:020000040000FA
:1000000008080020F50000000F01000011010000A9
:1000100000000000000000000000000000000000E0
:1000200000000000000000000000000013010000BC
:100030000000000000000000150100001701000092
:100040001901000019010000190100001901000048
:100050001901000000000000190100001901000052
:100060001901000019010000190100001901000028
:100070001901000019010000190100001901000018
:100080001901000019010000190100001901000008
:1000900019010000190100001901000019010000F8
:1000A000190100001901000000000000000000001C
:1000B0000000000000000000000000000000000040
:1000C0000348854600F032F8004800470D02000062
:1000D00008080020401E00BF00BF00BF00BF00BFD7
:1000E00000BF00BF00BF00BF00BF00BF00BFF1D115
:1000F000704700000321094802680A43026008486B
:1001000002680A4302600748804707480047FEE745
:10011000FEE7FEE7FEE7FEE7FEE7000024050040FD
:100120005405004051010000C1000000064C0125AB
:10013000064E05E0E36807CC2B430C3C984710348F
:10014000B442F7D3FFF7C0FF80020000A002000016
:1001500010B500F037F8002805D00E490C4848606B
:10016000C8130D4988610D48018CC9B201290ED10F
:10017000818C09070BD1018D0906090F042906D1CD
:10018000808D0006000F02D105490120886010BD56
:10019000DFFF07C000050040006C0040C00F00F00A
:1001A0000006004002E008C8121F08C1002AFAD168
:1001B00070477047002001E001C1121F002AFBD1E7
:1001C000704700001048018CC9B2012917D1818CF9
:1001D000090714D1018D09060A0F03D1828D120679
:1001E000120F0ED0090F012903D1828D1206120FB2
:1001F00007D0032903D1808D0006000F01D0002015
:100200007047012070470000C00F00F0002003215C
:10021000104A01252B468340DB011B0F02D08300CF
:100220009B181960401C2028F4D30B4E0B4F002460
:100230007268395D2846884001469043B06011409D
:10024000F160FF20F53000F00BF8641C042CEFDBAC
:10025000EDE7000000070050000500507C020000A0
:1002600031B5054C04E0401E00902046FFF732FFF8
:1002700000980028F7D138BDE703000015161718BD
:10028000A00200000000002004000000A401000003
:10029000A40200000400002004080000B4010000D3
:0402A0000024F40042
:04000005000000C136
:00000001FF
