:020000040001F9
:10F0000078CE0120C1F30100C9F30100CBF3010068
:10F01000CDF30100CFF30100D1F3010000000000A7
:10F02000000000000000000000000000D3F3010019
:10F03000D5F3010000000000D7F30100D9F301006F
:10F04000C9F50100DBF3010015F80100DBF3010055
:10F05000DBF30100DBF30100DBF30100DBF3010074
:10F06000DBF30100DBF30100E1F70100DBF301005A
:10F07000DBF30100DBF30100DBF30100DBF3010054
:10F08000DBF30100D9F50100DBF30100DBF3010044
:10F09000FDF50100DBF3010001F60100DBF30100E7
:10F0A000DBF30100DBF30100DBF30100DBF3010024
:10F0B000DBF30100DBF301000000000000000000B2
:10F0C000DBF30100DBF30100DBF30100DBF3010004
:10F0D000DBF30100DBF30100DBF3010021F80100A9
:10F0E000DBF30100DBF30100DBF3010000000000B3
:10F0F00000000000DBF3010000000000DBF3010072
:10F1000000000000000000000000000000000000FF
:10F1100000000000000000000000000000000000EF
:10F1200000000000000000000000000000000000DF
:10F1300000000000000000000000000000000000CF
:10F1400000000000000000000000000000000000BF
:10F1500000000000000000000000000000000000AF
:10F16000000000000000000000000000000000009F
:10F17000000000000000000000000000000000008F
:10F18000000000000000000000000000000000007F
:10F19000000000000000000000000000000000006F
:10F1A000000000000000000000000000000000005F
:10F1B000000000000000000000000000000000004F
:10F1C000000000000000000000000000000000003F
:10F1D000000000000000000000000000000000002F
:10F1E000000000000000000000000000000000001F
:10F1F000000000000000000000000000000000000F
:10F20000DFF80CD000F058F900480047B5A802001C
:10F2100078CE012030B450E8012F93B2C489234442
:10F220008489A34228BF1B1B0489A34202BFBFF3EA
:10F230002F8F002007E0C3EA020340E80134002CCE
:10F24000E9D14FF001000A6030BC704750E8012F4F
:10F25000C2EA024240E801210029F7D1704730B4E8
:10F2600050E8022F1FFAA2F3C488A34202BFBFF3E3
:10F270002F8F00200DE0C48923448489A34228BF36
:10F280001B1BC2EA034340E80234002CE8D14FF0D4
:10F2900001000A6030BC704750E8022FC2EA2242E7
:10F2A00040E802210029F7D17047034653E8022FB6
:10F2B000D988B2EB324F4FF0000017BF92B241EA4B
:10F2C000014142EA014104E05A68B2EB324F08BF03
:10F2D000012043E80212002AE8D1704730B4044606
:10F2E00054E8000F0D4644E80053002BF8D1156098
:10F2F00030BC704730B4044654E8000F40EA0105C2
:10F3000044E80053002BF7D1156030BC704730B48F
:10F31000044654E8000F00EA010544E80053002BBE
:10F32000F7D1156030BC704730B4044654E8000F84
:10F3300080EA010544E80053002BF7D1156030BC8A
:10F34000704730B4044654E8000F00EB010544E870
:10F350000053002BF7D1156030BC704730B4044621
:10F3600054E8000FA0EB010544E80053002BF7D14F
:10F37000156030BC704770B404464FF0000054E88C
:10F38000006F0D68AE4207BF44E80023012044E847
:10F3900000630E60002B1CBF0020F0E770BC7047BC
:10F3A00030B4044654E8000F88422CBF451A054685
:10F3B00044E80053002BF5D1156030BC70470000C5
:10F3C0000648804706480047FEE7FEE7FEE7FEE7FF
:10F3D000FEE7FEE7FEE7FEE7FEE7FEE705F60100D3
:10F3E00001F2010040EA01039B0703D009E008C9CC
:10F3F000121F08C0042AFAD203E011F8013B00F8FA
:10F40000013B521EF9D27047D2B201E000F8012B45
:10F41000491EFBD270470022F6E710B513460A4694
:10F4200004461946FFF7F0FF204610BD421C10F8B5
:10F43000011B0029FBD1801A704730B5044600201B
:10F44000034600E05B1C934203D2E05CCD5C401BB2
:10F45000F8D030BD2DE9F05F0546002092469B466E
:10F4600088460646814640241BE0284641464746DA
:10F47000224600F042F853465A46C01A914110D332
:10F4800011461846224600F029F82D1A67EB0108AC
:10F490004F4622460120002100F020F817EB00091A
:10F4A0004E41201EA4F10104DFDC484631462A46C5
:10F4B0004346BDE8F09F0000064C074D06E0E068BB
:10F4C00040F0010394E8070098471034AC42F6D3AB
:10F4D000FFF79AFEE0F2020000F30200202A04DBAC
:10F4E000203A00FA02F1002070479140C2F1200357
:10F4F00020FA03F3194390407047202A04DB203A96
:10F5000021FA02F00021704721FA02F3D040C2F143
:10F510002002914008431946704770B58C1810F8C6
:10F52000015B15F0070301D110F8013B2A1106D148
:10F5300010F8012B03E010F8016B01F8016B5B1E62
:10F54000F9D12B0705D40023521E0DD401F8013B3D
:10F55000FAE710F8013BCB1A921C03E013F8015BA9
:10F5600001F8015B521EF9D5A142D8D3002070BD2D
:10F5700000F01F02012191404009800000F1E020CD
:10F58000C0F88012704700F01F020121914040092D
:10F59000800000F1E020C0F88012704700F01F02E8
:10F5A000012191404009800000F1E020C0F80011E5
:10F5B000704700F01F02012191404009800000F1D6
:10F5C000E020C0F80012704710B50CF055FEBDE801
:10F5D00010400CF0D7BD000007480021C0F84011D2
:10F5E000C0F84411C0F84811C0F84C11C0F800111F
:10F5F000C0F804110EF05CBD001001400EF0CABC52
:10F600000CF034BC30B54FF0805000228300D0F8AD
:10F610003011C3F80C21C3F81021624B1A60624B01
:10F620001B68624C2360604B1B1D1B68241D2360FC
:10F630005D4B08331B68241D23605B4B0C331B6838
:10F64000241D2360584B10331B68241D2360564B28
:10F6500014331B68241D2360534B18331B68534C11
:10F6600020342360504B1C331B68241D23604E4BF9
:10F6700020331B68241D23604B4B24331B68241D3F
:10F680002360494B28331B68241D2360464B2C33D1
:10F690001B68241D2360444B30331B68434C4034AB
:10F6A0002360414B34331B68241D23603E4B3833A9
:10F6B0001B68241D23603C4B3C331B68241D2360C6
:10F6C000394B40331B68241D23600124082902D1D3
:10F6D000D0F8343113B1082904D006E0354B344951
:10F6E000196005E0D0F8343113B1082904D006E0E0
:10F6F000314BFB21196005E0D0F8343113B10829F2
:10F7000008D00EE090F858322C48016863F30301EA
:10F71000016002E0D0F834311BB929494FF4007080
:10F72000086028480168C90702D06FF00101016034
:10F730002548016841F470010160BFF34F8FBFF3AA
:10F740006F8F4FF01021D1F80002002803DBD1F8B1
:10F750000402002822DA1D4B1C601D480468002C9E
:10F76000FCD01224C1F800420568002DFCD0C1F87D
:10F77000044201680029FCD01A6001680029FCD00D
:10F78000BFF34F8F10487C380168124A01F4E061E2
:10F7900011430160BFF34F8F00BFFDE70F490E48D3
:10F7A000086030BD380500400404001020C500404A
:10F7B000488103008C56004018F50040E40E0040DC
:10F7C000409602400004004088ED00E004E501405E
:10F7D00000E401400400FA050090D0031C9C0120C5
:10F7E0000A48D0F8441101290ED1D0F80413890336
:10F7F0000AD50021C0F844110121C1600448C27932
:10F800000AB10AF043BD01727047000000A0004039
:10F81000A89B012001480068004700007C9A012055
:10F820002DE9F05F5448D0F8045300242E464FF0E1
:10F83000010913E096FAA6F0B0FA80F7B80000F5D7
:10F84000807080460CF020FC28B140460CF024FC6F
:10F8500009FA07F0044309FA07F08643002EE9D1BC
:10F860000BF036FE002869D0444AD078F0BBA002E5
:10F8700064D5434940F2A978C1F80080081D0368A7
:10F8800013F0FF0C02D0036803EA0C0C40F2AA7AD2
:10F89000C1F800A0036813F0FF0301D006683340ED
:10F8A00040F2AB7BC1F800B0066816F0FF0601D04D
:10F8B00007683E4040F2AC770F60076817EA0C0714
:10F8C00009D0D2F810C04CEA070CC2F810C0C1F839
:10F8D00000800760076840F2AD770F6007681F403F
:10F8E00009D0136943EA0743136100E026E0C1F839
:10F8F00000A00760036840F2AE730B6003683340FA
:10F900000BD0DE0701D044F40004DE0601D544F03C
:10F910000104C1F800B003600068106930F0011103
:10F9200002D005F080710C4310F0011F06D069056C
:10F9300004D520F0011044F480641061C4F3C05673
:10F9400024F400044F46DFF83C8009E094FAA4F068
:10F95000B0FA80F558F82500804707FA05F084438F
:10F96000002CF3D10EF09EFF002E03D0BDE8F05F17
:10F970000AF00AB9BDE8F09F007002404C9A0120DD
:10F980000078024098ED0200C11700EBD161074BEF
:10F990004A1153F8222021F01F01411A012088400A
:10F9A000024201D0012070470020704700E100E0D2
:10F9B0000FB41CB50A46521ECDE9000207A9054B3B
:10F9C0006A46069800F038F8009A002111701CBCB5
:10F9D0005DF814FB9BFE010002E008C8121F08C17D
:10F9E000002AFAD170477047002001E001C1121FC0
:10F9F000002AFBD1704700000121202803DA814052
:10FA00000548014003E0402802DA2038814009B16E
:10FA10000120704700207047FC06FFBC082808D270
:10FA200038B1012805D0042803D0052801D00120D1
:10FA300070470020704700002DE9FF4F8DB00F4642
:10FA40000546002606E025280BD0DDE90F12904779
:10FA50006D1C761C28780028F5D111B03046BDE821
:10FA6000F08F0024A246A1460122EC4900E00443A5
:10FA700015F8013F203B02FA03F00842F7D128783D
:10FA80002A2810D06FF02F022878A0F13001092920
:10FA900014D80AEB8A0102EB410144F0020400EBA6
:10FAA000010A6D1CF0E701CF5FEA000A03D544F4B8
:10FAB0000054CAF1000A44F002046D1C28782E2874
:10FAC00017D115F8010F44F004042A280ED06FF066
:10FAD0002F022878A0F1300109290AD809EB890101
:10FAE00002EB410100EB01096D1CF2E757F8049BA2
:10FAF0006D1C28786C280FD006DC4C2817D068289D
:10FB00000DD06A2814D104E0742810D07A280FD1BF
:10FB10000DE044F400140AE044F4801401E044F4DD
:10FB200040146978814202D104F580146D1C6D1C6B
:10FB30002A786E2A1FD00CDC632A31D004DC002A1C
:10FB40008BD0582A11D1A3E0642A68D0692A0CD13D
:10FB500065E0732A2ED004DC6F2A73D0702A04D19A
:10FB60009BE0752A6FD0782A6ED01046DDE90F121F
:10FB70009047761C50E1C4F30250022806D00328B7
:10FB800009D0042801CF09D0066045E101CFF11763
:10FB9000C0E9006140E101CF06803DE106703BE134
:10FBA00017F8040B8DF8000000208DF80100EB46DB
:10FBB000012003E057F804BB4FF0FF3061074FF01E
:10FBC000000102D40DE008F10101884649450FDA31
:10FBD0008045F8DB1BF808100029F4D108E008F193
:10FBE000010188468142FADB1BF808100029F6D192
:10FBF000DDE90F23AAEB08008146214600F036F923
:10FC0000304400EB080604E0DDE90F121BF8010B9D
:10FC10009047B8F10108F7D221464846F7E00A219B
:10FC2000C4F302534FF0000B0891022B04D001CF14
:10FC3000C117032B09D00AE0FF1D27F00707F7E8DB
:10FC4000020108E032E01FE020E000B2C117042BFF
:10FC500001D140B2C117031E71F1000307DA4FF062
:10FC6000000CD0EB0C006CEB01012D2302E023050E
:10FC700004D52B238DF82430012303E0E30701D0C2
:10FC80002023F7E7984658E00A2110E010210EE003
:10FC900010204FF0000B08900CE010214FF0000BEB
:10FCA00044F004044FF00809089103E008214FF0E4
:10FCB000000B0891C4F30253022B04D001CF0021A2
:10FCC000032B06D006E0FF1D27F00707F7E8020127
:10FCD00003E080B2042B00D1C0B24FF0000823072C
:10FCE0002BD5702A07D0DDF820C08CF0100C5CEA10
:10FCF0000B0C05D00EE040238DF82430012308E0E2
:10FD000050EA010306D030238DF824308DF82520E9
:10FD100002239846DDF820C08CF0080C5CEA0B0C3E
:10FD20000BD150EA010301D1630706D530238DF8CA
:10FD300024304FF00108A9F10109582A04D038A253
:10FD40000B9208AA0A920BE03AA2F9E75B46089ADE
:10FD5000FFF780FB0B9B9B5C0A9A521E0A92137062
:10FD600050EA0102F2D10A98ADEB000000F1200B3D
:10FD7000600702D524F4803401E04FF00109D94531
:10FD800002DDA9EB0B0000E0002000EB0B01414479
:10FD90000890AAEB010AE00306D4DDE90F2321460F
:10FDA000504600F063F806444FF0000908E009A946
:10FDB00011F80900DDE90F12904709F10109761CDD
:10FDC000C145F4DBE0030CD5DDE90F2321465046A5
:10FDD00000F04CF8064404E0DDE90F1230209047B3
:10FDE000761C0899481E08900029F5DC08E00A985E
:10FDF0000A990078491C0A91DDE90F129047761C98
:10FE0000BBF10001ABF1010BF1DC21465046DDE90D
:10FE10000F2300F019F806446D1C1BE609280100A9
:10FE20003031323334353637383961626364656670
:10FE30000000000030313233343536373839414232
:10FE400043444546000000002DE9F04104460025EA
:10FE50001E461746880404D405E039462020B047E2
:10FE60006D1C641EF9D52846BDE8F0812DE9F041EE
:10FE7000044600251E469046C80301D5302700E001
:10FE80002027880404D505E041463846B0476D1C5C
:10FE9000641EF9D52846BDE8F0814A68002A06D0DC
:10FEA0000A68531C0B6010704868401E4860704719
:10FEB0001CB50E480D4C90F830002834C00020705E
:10FEC00000206070A07020460AF0C2FBE0700420A1
:10FED000ADF8040000220094114668460DF098FB2E
:10FEE000002802D0002000F027F81CBDA89B0120AC
:10FEF00038B5044600208DF80000684600F018FF71
:10FF00000A4884420CD0BFF34F8F09480168094A60
:10FF100001F4E06111430160BFF34F8F00BFFDE7C3
:10FF20009DF8000000F028FF38BD0000FECADDBAD1
:10FF30000CED00E00400FA050EB500210091CDE9BA
:10FF400001106A4644F20100FFF7D2FF0EBD000027
:10FF50002DE9F84F2C4C8146924660880E4681422E
:10FF60004FD800274FF6FF788DF80070684600F0F4
:10FF7000DFFE22786078A188884201DA401C00E028
:10FF80000020C0B2904204D19DF8000000F0F4FEC1
:10FF900035E065786078884201DA401C00E0002096
:10FFA000607020786278824201D3101A02E0081A49
:10FFB0001044401CE18880B2884200D9E0809DF85E
:10FFC000000000F0D9FE454519D0E068B9F1000FF6
:10FFD00040F835A00DD066B161882069324605FB36
:10FFE00001004946FFF7FEF9E06800EBC500868096
:10FFF00002E000EBC50087800020BDE8F88F0420F8
:020000040002F8
:10000000FBE70920F9E70000849A012010B50F4CA6
:1000100003E0401C00E000202070A068002814D1FC
:1000200020786178814210D0227861882069E36865
:1000300002FB010003EBC20153F83220898890478C
:100040002078A1888842E6DAE3E710BD849A01208F
:1000500030B5CB0008339DB293074FF0000401D0B8
:10006000072030BD054BDA602A441A615C701C70B1
:1000700058809980DC80002030BD0000849A0120E7
:1000800008B500208DF80000684600F051FE0549D3
:100090008868421C01D0401C88609DF8000000F078
:1000A0006BFE08BD849A0120074801784078064A13
:1000B0008842928801D3401A02E0511A0844401C39
:1000C000101A80B270470000849A012008B5002001
:1000D0008DF80000684600F02BFE0548816809B1E4
:1000E000491E81609DF8000000F046FE08BD00003A
:1000F000849A012070B505460548046905E0294643
:10010000204607F041FD20680468002CF7D170BD3F
:10011000AC9A012070B5094804690CE0267A0025E4
:1001200005E02946204600F091FC6D1CEDB2B54279
:10013000F7D320680468002CF0D170BDAC9A012080
:1001400070B50A4804690DE0267A002506E0002211
:100150002946204600F0B8FC6D1CEDB2B542F6D33E
:1001600020680468002CEFD170BD0000AC9A01201B
:1001700070B50849054606200C6907E02946204667
:1001800007F002FD062803D121680C68002CF5D188
:1001900070BD0000AC9A01207CB504680B46154682
:1001A000217F0834C90705D0A16929B1206AA0B30D
:1001B00011207CBD08207CBDE16EA9420CD31846FD
:1001C000A16EFFF70FF9E06E401BE066A06E656759
:1001D0002844A06600207CBDC4E9063209F063F81B
:1001E000054610480069CDE90004E26E6AB1A16ECF
:1001F000A069FFF7F7F8E16EE069401AE061A069D5
:100200000844A0610020C4E91B016946284600F0AB
:100210005BFA0028DFD192207CBDFFE7C4E90832F9
:10022000F9E7000098EE02003EB50D46016814465D
:10023000097F11F0010F09D009F02CF80021009579
:10024000CDE90141694600F065FA3EBD08203EBD9A
:10025000F8B5044600250FE0002705E0007800F01F
:1002600047FA08B11120F8BD3946781CC7B23046AC
:1002700000F09CF80028F1D12946681CC5B2204640
:1002800000F0A6F80600E7D100250DE0002703E006
:100290000078214600F031FA3946781CC7B2304662
:1002A00000F084F80028F3D12946681CC5B2204626
:1002B00000F08EF80600E9D1074800E00868016800
:1002C0000029FBD1046005486946406900906068D8
:1002D000026820469047F8BDBC9A012048EE020013
:1002E0002DE9F04F87B04FF000081D469346894630
:1002F0000446DDF840A04646CDF80C8000E0761CB0
:100300006068012300224768214603A8B8470028F7
:10031000F5D140468DF800800027B84601903BE0BB
:10032000606801236A46D0F804C0214601A8E0476E
:100330006068012305AAD0F804C0214601A8E0475F
:100340009DF8141049451AD1D84514D19DF80000E4
:10035000CAF8000005F8010B6A1C85F80090606877
:100360009DF800302146456801A89B1EA847002043
:1003700007B0BDE8F08F08F1010000F0FF086068E9
:100380009DF800300022D0F804C0214601A89B1E31
:10039000E0479DF800000744B742C1D30520E7E7D6
:1003A0000148006970470000AC9A012042788A42F7
:1003B00001D8002070478278104408447047427882
:1003C0008A4201D800207047827810440844704760
:1003D000027A8A4201D80020704701EB41010930BE
:1003E00008447047027A8A4201D80020704701EB26
:1003F000410109300844704702484078002800D085
:1004000001207047AC9A012070B50D46097806248A
:1004100001260F293DD2DFE801F03C080C0E3C1A02
:100420002B3C3C3C3C0C1E20290003200EF096F98E
:100430002FE000242DE028480AF0E1FA0028F8D047
:1004400026480660BFF36F8FBFF34F8FF1E700F0D0
:1004500065F804461DE0002005E02148006810F022
:10046000010F03D002200EF079F9E2E70120FAE74C
:10047000E87803280DD01849091D0A6832B1002315
:100480000B6049689047040005D000E00E240BF093
:1004900041F9204670BD0EF059F928B1A87800281E
:1004A000F7D10BF0FAF8F4E70E480078082810D1DD
:1004B0000C48001D007800070BD10A48083000786E
:1004C00010F0F00F05D107480C30007810F0F00F55
:1004D000DFD00BF0DFF8DCE7DC9A01205C70024033
:1004E00038040040E00F00F0024A0146D2E9000261
:1004F0001047000064AC012070B50C4605460BF0B7
:10050000C3F8A84201D0102070BD0348D4E90012FE
:10051000C0E90212002070BDD89A01207FB50546BF
:1005200005208DF8000006240DF101000BF0CAF83B
:100530000EF00CF92949002008609DF8010010F028
:100540001F0006D001280FD0022826D0032833D15F
:1005500006E0694628460DF0B3F9044606282AD17C
:100560006846FFF705FE25E09DF8050003A900F0A9
:1005700089FA050008D06A469DF80C1000F062FA6E
:100580000446062802D016E0102415E06A469DF8BD
:100590000C1028460DF008FB0CE09DF80500010743
:1005A00005D0694600F05CF80446062803D1684689
:1005B0000DF010FA044624B10BF0ACF804B020465C
:1005C00070BD0EF0C3F830B10BF05EF80028F5D125
:1005D0000BF063F8F2E70BF05DF8EFE7E09A01202B
:1005E0007FB5C08814460E46A04201D2054600E001
:1005F0001546844207D280200AF068FEB4FBF0F171
:1006000000FB114080B100200096CDE90150002090
:100610008DF80C0003A800F08BFB6946802000F0E9
:1006200079F8040002D006E00120EDE705498020BA
:10063000FFF762FF04469DF80C0000F09DFB04B03C
:10064000204670BDC8EE020008B14021016001489B
:1006500070470000B8AC01200AF0CEBC0AF0E8BC3C
:1006600010B50C46010600F00F02092A09D200F06D
:100670000BF8006828B141680A682146BDE81040BF
:100680001047102010BD0000010600F00F0001D53A
:10069000034901E00249483101EBC0007047000006
:1006A0001CAC012010B5044600F00F00082805D24C
:1006B00020460AF07DFD20460AF038FE2046BDE8BF
:1006C00010400AF083BD000070B50C4605460AF0E4
:1006D000BFFD18B105480078022801D0082070BD80
:1006E00021462846BDE870400AF0B4BDAC9A01200E
:1006F00010B5FFF7C9FF006810BD10B50C46FFF735
:10070000C3FF04601CB161680968416010BD00212D
:10071000FBE7000070B50C4605460AF099FD18B1DC
:1007200005480078022801D0082070BD21462846DF
:10073000BDE870400AF02ABEAC9A01202DE9FE43C4
:1007400005460078224E002748B3DFF8888001A9CB
:10075000D8F81C000AF027F904001ED02868206091
:100760008DF8087002A800F0E3FA7088F168401A6A
:10077000401CE080002106F10C000AF054F9A08032
:100780009DF8080000F0F8FA01A9D8F81C000AF05A
:100790002BF9014628460EF023FABDE8FE838DF8BA
:1007A0000070684600F0C4FAF06808B96888708084
:1007B000074801210C300AF025F99DF8000000F0EF
:1007C000DBFA012128460EF00BFAF068E5E700009D
:1007D000AC9A012048EE020070B501786B4C0546DA
:1007E00009296FD007DC77D2DFE801F067779E80B8
:1007F0008AA7AE76C30065488129007817D00DDC42
:100800000A2971D00F2970D0802965D1052803D01D
:1008100006283CD007285FD1022081E082291BD026
:10082000832936D0842957D103283AD03FE058484D
:10083000FFF75AFE5648FFF75DFC0D200EF0DEF97B
:10084000606910B95348007A00B101200AF066FFD0
:10085000FFF760FC012063E0FFF75CFC0AF08AFF11
:1008600000200DF0E5FA4A48401CFFF743FC4848D9
:10087000401CFFF739FE0E200EF0C0F9207800F082
:100880003DFA002828D0BDE870400AF06FBA082071
:1008900046E0032820D10AF08BFF00281CD004205A
:1008A0003EE00AF085FF10B104200DF0C1FA0BF014
:1008B0000DF8002810D0062032E000200EF09EF93E
:1008C000646907E057E007E02946204607F05CF935
:1008D00020684468002CF7D170BDFFF71BFC022094
:1008E0000DF0A6FA012005E047E02BE005200DF011
:1008F0009FFA03200EF082F92846FFF7F5FD3FE04E
:1009000003200EF07BF92248801CFFF7EDFD204804
:10091000801CFFF7EFFB207806287FF47DAF0720CF
:10092000BDE870400DF084BA03200DF081FA02207A
:100930000EF064F92846FFF7DDFB2846BDE870405D
:10094000FFF7D2BD0F2019E0A878FFF79DFED0E990
:1009500000232946104698470028BDD0A8780107F3
:10096000BAD000F00F010829B6D2BDE870400AF0F5
:10097000B9BC082002E0092000E00A200EF03EF990
:100980002846BDE87040FFF7B5BB0000AC9A0120D7
:1009900059EE0200ACAC0120FFF7D0BE2DE9FC41BE
:1009A000234C00250095234EA0684FF4006728B91A
:1009B000211DF0690AF00DF8A060C0B1818869B10D
:1009C000C188B94200D3C580C188ADF80210C18882
:1009D000491CC1808188491E818022E0FFF7FCFE0E
:1009E0001349F069091D09F0E9FFA5601CE0E06802
:1009F00000281AD08DF8045001A800F099F96088F9
:100A0000B84200D365806088ADF80200401C608069
:100A1000074801210C300AF00BF89DF8040000F0A3
:100A2000ABF96846FFF7D8FE0120BDE8FC81000065
:100A3000AC9A012048EE02000148FFF77FBE00009B
:100A400048EE0200114642681368184770B5044624
:100A500040680D46C2680AB12046904720462946A4
:100A6000FFF7B6FC05464678002408E021462846F4
:100A7000FFF79CFC00780AF079FB641CE4B2B442F6
:100A8000F4D370BD2DE9F04180460E480E4605694D
:100A900014E02F7A00240DE021462846FFF798FC49
:100AA0000178414504D106B134702846BDE8F08193
:100AB000641CE4B2BC42EFD328680568002DE8D17D
:100AC0000020F3E7AC9A012070B504464068154653
:100AD0000E4683681BB120469847062803D120465E
:100AE00031460DB1072070BDFFF772FC0546467810
:100AF000002408E021462846FFF758FC0078FFF75D
:100B0000D1FD641CE4B2B442F4D3002070BD0346AE
:100B100000205A681269002A01D018461047704711
:100B20002DE9F8432E4C054608234FF484722B49D7
:100B3000E06909F025FF10B10320BDE8F8832948DA
:100B40000AF04EFD0028F8D1274908700861486175
:100B500048212648FEF75FFC244848214830FEF72C
:100B60005AFC224878307DB195E80E00183080E8B4
:100B70000E0000200AF078F918B1852801D0FFF79F
:100B8000DBF91B4D002611E004F130010EC9EDE741
:100B9000002703E000782946FFF7AFFD3946781CAF
:100BA000C7B24046FFF702FC0028F3D13146701C63
:100BB000C6B22846FFF70CFC5FEA0008E8D160687F
:100BC00000906946284606F0DFFF040003D00AF0D3
:100BD0006FFE2046B1E70020AFE7000014AB012014
:100BE00048EE020099090200AC9A01201CAC0120D9
:100BF00008EF020030B1012807D0022808D10548CB
:100C0000FFF79CBD03480838FAE70248001FF7E7E2
:100C10007047000070EE020010B50AF02DFD10B113
:100C20000AF020FD08B1082010BD04480AF06BF955
:100C300008B1FFF781F9002010BD000074EE02003A
:100C400070B54FF0805086B0D0F8A810D0F8A4004E
:100C500089B241F4404300900BA20D2101A8FEF798
:100C6000A7FE0C4E40F21A3001AD3080002404E0A3
:100C7000285D06EB4401641C48802846FEF7D6FB3D
:100C8000A042F5D806B070BD25303458253038580C
:100C90000000000010AD0120074803E0016811F0DA
:100CA000010F07D00168C1F340010029F6D00348C5
:100CB000FFF744BD70470000380400404DEE0200CD
:100CC000034808B5806800906846FFF737FD08BD07
:100CD00048EE0200074918B1052803D300207047E9
:100CE00008687047044A105C0028FAD051F82000C8
:100CF00070470000F49A01208EEF0200092808D204
:100D0000DFE800F0070705070705050505000120D6
:100D1000704700207047092808D2DFE800F0070775
:100D200005070707070705000120704700207047E7
:100D300030B5EFF3108172B60D4A9468012324B1E7
:100D40000370002900D162B630BD93604FF0E023FC
:100D5000D3F88051074C25401560C3F88041D3F883
:100D6000844154605A17C3F8842100220270E8E7D6
:100D70002CAD0120FC06FFBC0B498A68002A11D06B
:100D800000280FD1EFF3108072B60B684FF0E0220D
:100D9000C2F800314B68C2F8043100228A60002892
:100DA00000D162B6704700002CAD012070B5054639
:100DB00008680C46411C04D00AF098FE20680AF02E
:100DC00048FE6068411C02D000210AF030FE29680C
:100DD000A069C1F82405607D227D29681043C1F80F
:100DE0006C05D4E900122868C0F81425C0F80C1569
:100DF000207D012814D1A068411C02D000210AF0F6
:100E000016FEE068411C04D00AF070FEE0680AF0AB
:100E100020FED4E902122868C0F80825C0F8101591
:100E200070BD70B5054608680C46411C04D00AF038
:100E300067FE20680AF017FE6068411C02D000219E
:100E40000AF0FEFD2968A069C1F82405607D217DB6
:100E50002A680843C2F86C05D4E900122868C0F873
:100E60000C15C0F81425207D012814D1A068411C60
:100E700002D000210AF0E4FDE068411C04D00AF031
:100E80003FFEE0680AF0EFFDD4E902122868C0F8DE
:100E90000825C0F8101570BD102802D31038C0B254
:100EA000704740F080007047F8B51646070010D034
:100EB0007EB173B11C460D460DF09DFB002807D195
:100EC00005480090231D32462946384606F0E2FECA
:100ED000F8BD0E20F8BD0000A5100200F8B51646BA
:100EE000070010D07EB173B11C460D460DF0E4FB37
:100EF000002807D105480090631C32462946384631
:100F000008F006FFF8BD0E20F8BD0000E110020059
:100F1000F8B51D4617460E000FD075B168B10446EE
:100F20000DF0D7FB002807D1054800902B463A4624
:100F30003146601C08F03CFFF8BD0E20F8BD0000F3
:100F40001311020038B568B162B15BB11C466B4643
:100F50000DF0B2FB002804D19DF8001001F0010152
:100F6000217038BD0E2038BD08B551B14BB140B12C
:100F7000007800F001008DF8000068460DF0A9FB34
:100F800008BD0E2008BD00002DE9F84316465FEAB3
:100F900000082BD056B34BB3164F1C460D46009796
:100FA00008F0B6FE002822D1631C3246294640468E
:100FB000009708F0ADFE002819D1A31C324629463F
:100FC00040460DF079FB002811D1E31C324629463A
:100FD00040460DF071FB002809D101B0231D3246B7
:100FE00029464046BDE8F0430DF066BB0E20BDE843
:100FF000F8830000996A02002DE9F8431D469046E7
:101000000E002AD04DB340B3154F0446009708F0A8
:10101000CFFE002822D12B4642463146601C009765
:1010200008F0C6FE002819D12B4642463146A01CC6
:101030000DF04FFB002811D12B4642463146E01CF3
:101040000DF047FB002809D101B02B46424631463E
:10105000201DBDE8F0430DF03CBB0E20BDE8F88339
:10106000D76A02002DE9F0411646070017D0B6B145
:10107000ABB11C460D460DF01FFB002810D1631CC0
:101080003246294638460DF017FB002808D1A31C2C
:10109000324629463846BDE8F0410DF00DBB0E2022
:1010A000BDE8F0812DE9F84316465FEA000812D04A
:1010B0008EB183B1094F1C460D46009708F028FEFB
:1010C000002806D1E31C324629464046009708F026
:1010D0001FFEBDE8F8830E20FBE70000651002004C
:1010E0002DE9F0411546060010D07DB173B11F46C1
:1010F0000C465B1C0DF0E0FA002808D13B462A465E
:1011000021463046BDE8F0410DF0D6BA0E20BDE8CC
:10111000F0812DE9F0411C4616460D000FD074B148
:1011200068B10746401C0DF0D4FA002808D12346C8
:10113000324629463846BDE8F0410DF0CABA0E20C5
:10114000BDE8F081F8B5144606000D461ED0ECB19E
:1011500000200090631C6A4630460DF0ADFA00286E
:1011600013D123466A46294630460DF0A5FA0028D9
:101170000BD1631D6A46294630460DF09DFA0028C2
:1011800003D10099A94200D00920F8BD0E20F8BD76
:1011900017B581B0144669B164B1002000906B4668
:1011A00001A822680DF067FA002801D1009921609A
:1011B00004B010BD0E20FBE7F8B5164607002AD094
:1011C0004EB343B3154800901C460D46384608F010
:1011D0009FFD00281ED11248009004F108033246FA
:1011E0002946384608F094FD002813D10D48009098
:1011F00004F1100332462946384608F089FD0028DC
:1012000008D10948009004F11403324629463846B3
:1012100008F07EFDF8BD0E20F8BD0000A90E02000A
:1012200075210200AB400200015802001CB50C46BB
:1012300040B12CB100210191037801A9602B03D0AA
:1012400007201CBD0E201CBD01230193074B0093FA
:1012500013460A46214606F01DFD0028F3D10198E9
:10126000A04201D009201CBD00201CBDB911020004
:1012700013460A46014660200BF088BE30B4C2B166
:10128000BBB1B0B10488202C7DD015DC36D2DFE8AC
:1012900004F035393F3C4235353535353535353552
:1012A00035356663454B4E546C576F515A605DB18E
:1012B00069480E2030BC70473A2C65D00ADCA4F196
:1012C00030040A2C1AD2DFE804F062715659775CB8
:1012D00068746E65532C75D008DC3B2C60D0502CA4
:1012E00079D0512C7AD0522C08D17AE0542C6FD07E
:1012F000552C79D0562C68D0702C78D0062000213F
:101300001960D7E730BC00F0D7B830BC00F007B99F
:1013100030BC00F050B930BC00F072B830BC01F005
:1013200085B930BC01F0BAB930BC01F09FBC30BC0B
:1013300001F02CBC30BC01F0D1B830BC01F06CBB6A
:1013400030BC01F097B830BC01F0FCB930BC01F002
:10135000A7BB30BC01F022BD30BC01F099BA30BC53
:1013600001F036BA30BC01F0C7BC30BC01F0DBBACA
:1013700030BC01F00BBB30BC03F0D6B830BC03F07E
:1013800011BA30BC01E038E019E003F03FB930BCDD
:1013900003F03CBB30BC03F0C9BA30BC03F0A6BBC1
:1013A00030BC03F087BC30BC03F0D6BC30BC03F0CB
:1013B0000DBC30BC03F096B930BC03F02DB830BC86
:1013C00003F062BA30BC04F079BA30BC04F0C4BB9C
:1013D00030BC04F057BB30BC04F0FEBB30BC04F0A2
:1013E000D1BA30BC04F078BB30BC04F027BA30BCB2
:1013F00005F046B930BC00F0BFBF30BC01F084BB83
:101400002DE9FC411E46154604002BD055B34EB3C2
:101410002088042802D00720BDE8FC81002000902D
:1014200037680420E846ADF8040043463A462946AA
:1014300001A80DF0EFF80028EED143463A462946C0
:10144000201D0DF0E7F80028E6D114F10800294628
:101450003A46434606D000F007F80028DCD1009950
:101460003160D9E70E20D7E72DE9F0411D46174638
:101470000E001ED0EDB1E0B104460DF0CBF800280F
:1014800018D12B463A463146A01C0DF0C3F800286F
:1014900010D12B463A463146201D0DF0BBF80028EE
:1014A00008D12B463A463146A01DBDE8F0410DF06B
:1014B000B1B80E20BDE8F0812DE9FC411D4616466D
:1014C000040007D036B12DB12088012804D00720B0
:1014D000BDE8FC810E20FBE7002000902F68012072
:1014E000E846ADF8040043463A46314601A80DF0FF
:1014F00091F80028ECD143463A463146201D0DF0C4
:1015000089F80028E4D143463A46314604F1080000
:101510000DF0DFF80028DBD100992960D8E72DE92C
:10152000FE431D461646040007D036B12DB1208873
:10153000032804D00720BDE8FE830E20FBE7002728
:101540000197D5F8008003200DF10409ADF80800DB
:101550004B464246314602A80DF05CF80028EAD11D
:101560004B4642463146201D0DF054F80028E2D18A
:101570004B464246314604F108000DF0AAF8002817
:10158000D9D14B464246314604F110000DF042F8E5
:101590000028D0D100974B4642463146E06806F01D
:1015A000A7FB0028C7D1A08806F054FC0028C2D1B0
:1015B00001992960BFE72DE9FC411D46164604004C
:1015C00007D036B12DB12088022804D00720BDE80D
:1015D000FC810E20FBE7002000902F680220E846E7
:1015E000ADF8040043463A46314601A80DF012F822
:1015F0000028ECD143463A463146201D0DF00AF84A
:101600000028E4D143463A46314604F108000DF083
:1016100060F80028DBD100992960D8E77CB50C463A
:1016200040B12CB100230193057801A96D2D03D0A1
:1016300007207CBD0E207CBD0125CDE90035134679
:101640000A46214606F026FB0028F4D10198A04264
:1016500001D009207CBD00207CBD2DE9FF4182B076
:10166000984614460F0028D03CB30020009025680F
:101670006D206E468DF8040033462A4601A80DF011
:1016800028F8002816D133462A46394602A80CF01D
:10169000F2FF00280ED1029848B95FEA08003946E7
:1016A0002A46334609D000F05BF8002802D10098A2
:1016B0002060002006B0BDE8F0810E20FAE70000AF
:1016C0001CB50C4640B12CB100210191037801A951
:1016D0006C2B03D007201CBD0E201CBD01230193E1
:1016E000074B009313460A46214606F0D3FA00281A
:1016F000F3D10198A04201D009201CBD00201CBDDF
:101700001117020013460A4601466C200BF03EBC3E
:101710002DE9FC411646070020D0FEB1F3B11C466E
:101720000D4601AB0CF0C8FF002815D10620009033
:10173000631C3246294638460CF0D8FF00280BD1EE
:101740009DF80420217862F3000121709DF80420A7
:10175000520862F347012170BDE8FC810E20FBE7CF
:101760002DE9FC411D4617460E0013D095B188B1F6
:10177000044600788DF8040001A80CF0AAFF0028A8
:1017800006D13B4632460621601C00950CF0C4FF92
:10179000BDE8FC810E20FBE738B5D0B1CAB1C3B1BA
:1017A0001C466B460CF088FF002811D19DF80020E4
:1017B000217862F3000121709DF80020520862F345
:1017C000410121709DF80020920862F3820121708E
:1017D00038BD0E2038BD2DE9FC410C46DDE90886F8
:1017E000050023D02CB100200190287801AF722889
:1017F00002D00720BDE8FC8101200190B3B1AEB159
:10180000009313463A46284608F0A7FF0028F1D176
:1018100043463A4621462846009608F09EFF002897
:10182000E8D10198A04203D00920E3E70E20E1E7C8
:101830000020DFE713460A46014672200BF0A6BBE4
:10184000F8B51646070037D0AEB3A3B31C460D4615
:101850000CF032FF00282DD118480090231D32468D
:101860002946384606F016FA002823D104F1080369
:101870003246294638460CF01FFF00281AD104F1E1
:101880000A033246294638460CF0B5FE002811D12D
:1018900004F10C033246294638460CF0ACFE002811
:1018A00008D10748009004F10E0332462946384615
:1018B00008F01AFAF8BDFFE70E20FBE71117020047
:1018C000991702001CB50C46E8B12CB1002101911A
:1018D000037801A9732B01D007201CBD01230193BC
:1018E0008AB113687BB15B686BB1094B00931346F7
:1018F0000A46214606F0CEF90028EED10198A04212
:1019000003D009201CBD0E201CBD00201CBD000002
:101910004118020013460A46014673200BF036BBFD
:1019200013460A46014674200BF030BB7CB50C46CA
:10193000D0B12CB100230193057801A9792D01D0F4
:1019400007207CBD0125019572B1156865B1009332
:1019500013460A46214606F09DF90028F1D1019868
:10196000A04203D009207CBD0E207CBD00207CBDA0
:101970002DE9FF4184B0984614460F0019D0C4B138
:10198000002001902568792001AE8DF808003346CB
:101990002A4602A80CF09DFE00280BD133462A46A9
:1019A000394604A80CF067FE002803D1049870B9EA
:1019B00003E00E2008B0BDE8F081074800903346F0
:1019C0002A463946404606F093F90028F2D101989C
:1019D00020600020EEE7000015E6020038B50C4656
:1019E000B8B12CB10021009103786946782B01D061
:1019F000072038BD012300935AB113460A462146F9
:101A00000CF0F9FD0028F4D10098A04203D0092081
:101A100038BD0E2038BD002038BD13460A460146A9
:101A200078200BF0B3BA2DE9FE431F46DDF828807D
:101A30000C46050022D0F4B100200290287802AEB6
:101A4000802818D101200290C2B1BFB1134632469E
:101A500028460CF0D0FD00280ED13B4632462146E8
:101A600028460CF029FE002806D1387840B101281C
:101A700008D0022808D00720BDE8FE830E20FBE72F
:101A8000002202E0062200E010220092019243466A
:101A900032462146284605F068FB0028ECD1029822
:101AA000A04201D00920E7E70020E5E713460A46F7
:101AB000014680200BF06ABA2DE9FC411C460D4618
:101AC000060025D02DB100200190307801AF7E288E
:101AD00002D00720BDE8FC8101200190C2B1BCB159
:101AE0002068A8B113463A4630460CF084FD002821
:101AF000F0D10948009023463A462946304606F080
:101B0000C9F80028E6D10198A84203D00920E1E7EE
:101B10000E20DFE70020DDE73D3D020013460A46C8
:101B200001467E200BF032BA2DE9FC411C460D46E1
:101B3000060025D02DB100200190307801AF752826
:101B400002D00720BDE8FC8101200190C2B1BCB1E8
:101B50002068A8B113463A4630460CF04CFD0028E8
:101B6000F0D10948009023463A462946304606F00F
:101B700091F80028E6D10198A84203D00920E1E7B6
:101B80000E20DFE70020DDE7991B020013460A461E
:101B9000014675200BF0FAB92DE9F0411646070011
:101BA0001FD0F6B1EBB11C460D460CF024FD002809
:101BB00018D1A31C3246294638460CF01CFD0028DB
:101BC00010D1231D3246294638460CF014FD00285A
:101BD00008D1A31D324629463846BDE8F0410CF035
:101BE0000ABD0E20BDE8F0812DE9F0411D461746E3
:101BF0000E001ED0EDB1E0B104460CF00BFD002844
:101C000018D12B463A463146A01C0CF003FD0028A3
:101C100010D12B463A463146201D0CF0FBFC002823
:101C200008D12B463A463146A01DBDE8F0410CF0E4
:101C3000F1BC0E20BDE8F0812DE9FC4198460C4630
:101C4000050021D02CB100260196287801AF872805
:101C500002D00720BDE8FC8101200190A2B113460B
:101C60003A4628460CF0C7FC0028F3D143463A46D2
:101C700021462846009606F00DF80028EAD1019882
:101C8000A04203D00920E5E70E20E3E70020E1E7CA
:101C90002DE9FF4184B01C46150088461AD0CCB10E
:101CA000002001902668872001AF8DF808003B4690
:101CB0003246294602A80CF00CFD00280BD13B4609
:101CC0003246294604A80CF0D6FC002803D104981B
:101CD00070B903E00E2008B0BDE8F081064800901E
:101CE0003B4632462946404606F002F80028F2D12B
:101CF000019820600020EEE7491D020038B5A0B130
:101D00009AB193B11C466B460CF0D6FC00280BD15F
:101D10009DF80020217862F3030121709DF80020D6
:101D2000120962F30711217038BD0E2038BD08B5C5
:101D300041B13BB130B100788DF8000068460CF03D
:101D4000C8FC08BD0E2008BDF8B51D4617460E009C
:101D500012D08DB180B1044608480090204607F0AB
:101D6000F5FF002809D101B02B463A463146601CE8
:101D7000BDE8F0400CF0ADBC0E20F8BD2F1D0200F8
:101D800013460A4601468D200BF000B92DE9FC41AF
:101D90001D46089C0E46070037D036B10020019042
:101DA00038780DF104088C2802D00720BDE8FC81AA
:101DB000012001904AB3106838B335B3286820B3C6
:101DC0001CB3206808B313481346009042463846B7
:101DD00005F060FF0028E9D10F4800902B464246ED
:101DE0003146384605F056FF0028DFD10B480090F9
:101DF000234642463146384605F04CFF0028D5D1EF
:101E00000198B04203D00920D0E70E20CEE7002091
:101E1000CCE700001117020099380200991B02005C
:101E200013460A4601468C200BF0B0B82DE9FF5F3F
:101E30001D460E9F144688465FEA000942D0B8F15D
:101E4000000F07D0002602A8CDE9010699F800008E
:101E50006F2803D0072004B0BDE8F09F0120029056
:101E60007CB3206868B3006858B355B3286840B3A2
:101E7000006830B33B4641464846019A0CF01CFCD2
:101E80000028E8D103AB41464846019A0CF014FC07
:101E90000028E0D19DF80C00012815D0266003AB86
:101EA00041464846019A0CF007FC0028D3D19DF822
:101EB0000C0001281ED02E60029941452DD009202A
:101EC000C9E7FFE70E20C6E7D4F800A00024DFF83A
:101ED00050B00BE00AEB8403CDF800B04146484611
:101EE000019A05F0D7FE0028B5D1641C3878A042CD
:101EF000F0D8D4E72D6800240A4E0AE005EB8403ED
:101F0000009641464846019A05F0C4FE0028A2D139
:101F1000641C3878A042F1D8CEE700209BE700008F
:101F2000052E0200852E020013460A4601466F2048
:101F30000BF02CB82DE9FC4190460C46050022D050
:101F40002CB100260196287801AF7D2802D0072009
:101F5000BDE8FC8101200190ABB10D4800903A46EC
:101F6000284605F097FE0028F2D143463A4621461E
:101F70002846009605F08EFE0028E9D10198A0427F
:101F800003D00920E4E70E20E2E70020E0E70000AC
:101F9000F7E502002DE9FF4383B01E000E9C1546B5
:101FA00089461BD0D4B100200190D4F800807D2058
:101FB00001AF8DF808003B464246314602A80CF0BE
:101FC00088FB00280BD13B464246314603A80CF063
:101FD00052FB002803D10398C0B903E00E2007B0DC
:101FE000BDE8F0830B4800903B4642463146284608
:101FF00005F07EFE0028F2D145B1009729884346BE
:10200000324648460CF088FB0028E8D10198206051
:102010000020E4E715E602002DE9FC419846089E01
:102020000C46050027D02CB100200190287801AF84
:102030007C2802D00720BDE8FC8101200190D2B1AC
:10204000B8F1000F17D0B6B10D48134600903A46CC
:10205000284605F01FFE0028EDD143463A462146AA
:102060002846009608F049FB0028E4D10198A042D8
:1020700003D00920DFE70E20DDE70020DBE70000CA
:10208000FD1C020013460A4601467C200AF07EBF72
:102090002DE9FE4316465FEA000836D0A6B39BB38F
:1020A0005F891B4800901C460D46404607F01CFE09
:1020B000002827D102AB3246294640460CF0FCFAF4
:1020C00000281FD19DF8080004F1080300F0030068
:1020D00060703246294640460CF08DFA002811D136
:1020E00004F10A033246294640460CF084FA0028DF
:1020F00008D12089231DCDE900703246294640468B
:1021000005F033F8BDE8FE83FFE70E20FAE7000094
:10211000FD1C0200F8B51F460C46050020D02CB16E
:102120000020009028786E46762801D00720F8BD60
:1021300001200090A2B19FB11346324628460CF010
:102140005AFA0028F3D13B463246214628460CF085
:10215000B3FA0028EBD10098A04203D00920F8BDC3
:102160000E20F8BD0020F8BD13460A460146762031
:102170000AF00CBFF8B51646070020D0FEB1F3B147
:102180001C460D460CF098FA002817D1631C324605
:10219000294638460CF090FA00280FD1A31C32468D
:1021A000294638460CF088FA002807D105480090E7
:1021B000231D32462946384605F06CFDF8BD0E2039
:1021C000F8BD0000912002002DE9FC4116460700F1
:1021D00020D0FEB1F3B1102000901C460D463846C9
:1021E0000CF084FA002813D101AB32462946384658
:1021F0000CF062FA00280BD19DF80410227C4B08E9
:1022000061F3000263F34102890861F387022274DB
:10221000BDE8FC810E20FBE72DE9FC411D46174679
:102220000E001DD0E5B1D8B113460A460446102170
:1022300000950CF071FA002810D1207C2B46C0F3D9
:102240004002014662F35F0120F0030001438DF874
:1022500004103A46314601A80CF03BFABDE8FC8177
:102260000E20FBE7F8B51646070014D09EB193B1D7
:102270000A4800901C460D46384607F035FD0028F8
:1022800008D10748009004F1120332462946384627
:1022900007F02AFDF8BD0E20F8BD0000C92102009C
:1022A000E1310200F8B51D4617460E0013D095B176
:1022B00088B1044609480090204607F047FD0028F1
:1022C00008D1074800902B463A46314604F11200E7
:1022D00007F03CFDF8BD0E20F8BD000019220200F9
:1022E0000F3202002DE9FC411D46089C0E460700F6
:1022F00033D036B10020019038780DF104088528DC
:1023000002D00720BDE8FC81012001902AB324B34C
:102310001DB3206808B32868F8B113464246384612
:102320000CF069F90028EDD10E4800902B4642468A
:102330003146384605F0AEFC0028E3D10A4800904B
:10234000234642463146384605F0A4FC0028D9D140
:102350000198B04203D00920D4E70E20D2E7002034
:10236000D0E70000E1310200C921020013460A460D
:10237000014685200AF00ABE2DE9FE431D46164699
:10238000040007D036B12DB120881D2804D00720C5
:10239000BDE8FE830E20FBE7002001902F681D2082
:1023A0000DF10408ADF8080043463A46314602A84C
:1023B0000CF030F90028EBD143463A463146201D57
:1023C0000CF028F90028E3D10648009043463A462D
:1023D000314604F1080007F0AFFC0028D8D101997C
:1023E0002960D5E7E92302002DE9FC471D46914607
:1023F0000E003AD0C5B3B8B30446C07B1C4FC0F33F
:102400004102014662F35F018DF804104FEAD008E3
:102410004A4631462046009707F098FC002821D113
:102420002B464A463146E01D009707F08FFC0028F6
:1024300018D12B464A46314604F10E000CF049F9FA
:1024400000280FD12B464A46314601A80CF041F92D
:10245000002807D14B463246414604F11000009552
:1024600008F093F9BDE8FC87FFE70E20FAE70000CB
:10247000611702002DE9FC411D461646040007D0F5
:1024800036B12DB12088172804D00720BDE8FC8183
:102490000E20FBE7002000902F681720E846ADF8DB
:1024A000040043463A46314601A80CF0B3F8002830
:1024B000ECD143463A463146201D0CF0ABF80028DB
:1024C000E4D143463A46314604F108000CF001F9E4
:1024D0000028DBD100992960D8E700002DE9FF41F1
:1024E0001D461646040008D03EB135B12088192893
:1024F00005D0072004B0BDE8F0810E20FAE70020E7
:1025000001902F6819200DF10408ADF8080043462A
:102510003A46314602A80CF07DF80028EAD143463D
:102520003A463146201D0CF075F80028E2D11648D5
:10253000009043463A46314604F1080007F0FCFBA0
:102540000028D7D1A08803A905F02EFC18B10020DF
:1025500001992960CEE70D48009003980C49C0EB23
:10256000001000EB800001EB800043463A46314604
:10257000001D07F0E1FB0028BCD1A08805F0F6FBA8
:102580000028E5D0B6E7000095250200C13B020017
:1025900038AD01202DE9FC411D4690460E003ED08D
:1025A000E5B3D8B304464078C0F3800161F39F00DF
:1025B0008DF80400314620460CF08BF800282BD112
:1025C0002B464246314601A80CF083F8002823D15F
:1025D000144F2B4642463146A01C009707F0B6FB2D
:1025E000002819D12B4642463146E01C009707F0DF
:1025F000ADFB002810D10C4F2B4642463146201D22
:10260000009707F0A3FB002806D12B46424631462F
:10261000601D009707F09AFBBDE8FC81FFE70E20E4
:10262000FAE70000FD3B0200733A02002DE9FE4389
:102630001D461646040007D036B12DB12088122859
:1026400004D00720BDE8FE830E20FBE700200190A8
:102650002F6812200DF10408ADF8080043463A46F1
:10266000314602A80BF0D6FF0028EBD143463A468C
:102670003146201D0BF0CEFF0028E3D10648009024
:1026800043463A46314604F1080007F055FB00285E
:10269000D8D101992960D5E7292702002DE9FE4309
:1026A0001D461646040007D036B12DB120881F28DC
:1026B00004D00720BDE8FE830E20FBE70020019038
:1026C0002F681F200DF10408ADF8080043463A4674
:1026D000314602A80BF09EFF0028EBD143463A4654
:1026E0003146201D0BF096FF0028E3D106480090EC
:1026F00043463A46314604F1080007F01DFB002826
:10270000D8D101992960D5E70D27020038B531B13C
:102710002BB120B1034C009407F018FB38BD0E20FC
:1027200038BD0000E91B020038B531B12BB120B132
:10273000034C009407F00AFB38BD0E2038BD0000A2
:10274000E91B02002DE9FE431D461646040007D092
:1027500036B12DB120881A2804D00720BDE8FE83A9
:102760000E20FBE7002001902F681A200DF10408CD
:10277000ADF8080043463A46314602A80BF04AFF3E
:102780000028EBD143463A463146201D0BF042FF6C
:102790000028E3D10648009043463A46314604F10A
:1027A000080007F0C9FA0028D8D101992960D5E7B7
:1027B000B527020038B531B12BB120B1034C0094DC
:1027C00007F0C4FA38BD0E2038BD0000491D0200D4
:1027D0002DE9FE431D461646040007D036B12DB143
:1027E0002088102804D00720BDE8FE830E20FBE7D8
:1027F000002001902F6810200DF10408ADF80800AA
:1028000043463A46314602A80BF004FF0028EBD1BC
:1028100043463A463146201D0BF0FCFE0028E3D12A
:102820000648009043463A46314604F1080007F056
:1028300083FA0028D8D101992960D5E74128020000
:10284000F8B51D4617460E001BD0D5B1C8B10446D9
:102850000D480090204607F079FA002810D12B4649
:102860003A463146E01D0BF034FF002808D10748F6
:1028700000902B463A46314604F1080007F066FA0C
:10288000F8BD0E20F8BD000061170200E91B020030
:102890002DE9FF411D461646040008D03EB135B172
:1028A0002088112805D0072004B0BDE8F0810E2053
:1028B000FAE7002001902F6811200DF10408ADF80F
:1028C000080043463A46314602A80BF0A3FE002812
:1028D000EAD143463A463146201D0BF09BFE0028C4
:1028E000E2D10C48009043463A46314604F10800D4
:1028F00007F022FA0028D7D1A08803A905F054FADE
:1029000020B9A08805F032FA0028CDD10199002025
:102910002960C9E71929020019B113B108B10BF0F8
:10292000D8BE0E2070472DE9FC411D461646040016
:1029300007D036B12DB12088162804D00720BDE875
:10294000FC810E20FBE7002000902F681620E8464F
:10295000ADF8040043463A46314601A80BF05AFE52
:102960000028ECD143463A463146201D0BF052FE7A
:102970000028E4D143463A46314604F108000BF002
:10298000A8FE0028DBD100992960D8E72DE9FF4196
:102990001D461646040008D03EB135B120881828DF
:1029A00005D0072004B0BDE8F0810E20FAE7002032
:1029B00001902F6818200DF10408ADF80800434677
:1029C0003A46314602A80BF025FE0028EAD1207BCA
:1029D000434600F001008DF80C003A463146201DB8
:1029E0000BF018FE0028DDD10A48009043463A4615
:1029F0003146A06805F07CF90028D3D143463A4619
:102A0000314603A80BF065FE0028CBD1019929605F
:102A1000C8E70000C73102002DE9FF411D4690467E
:102A200004000AD0B8F1000F07D035B1208815286E
:102A300005D0072004B0BDE8F0810E20FAE70020A1
:102A400001902F68152001AEADF8080033463A46D4
:102A5000414602A80BF0DEFD0028EBD1A07B3346F7
:102A600000F001008DF80C003A464146201D0BF0A5
:102A7000D1FD0028DED13B464246062104F1080084
:102A800000960BF049FE0028D4D133463A46414621
:102A900003A80BF01EFE0028CCD101992960C9E7DC
:102AA0002DE9FC411D461646040007D036B12DB174
:102AB00020881C2804D00720BDE8FC810E20FBE7FD
:102AC000002000902F681C20E846ADF80400434623
:102AD0003A46314601A80BF09DFD0028ECD1434653
:102AE0003A463146201D0BF095FD0028E4D14346BF
:102AF0003A46314604F108000BF0EBFD0028DBD12B
:102B000000992960D8E700002DE9FE431D461646CE
:102B1000040007D036B12DB12088202804D007202A
:102B2000BDE8FE830E20FBE7002001902F682020E7
:102B30000DF10408ADF8080043463A46314602A8B4
:102B40000BF068FD0028EBD143463A463146201D84
:102B50000BF060FD0028E3D10B48009043463A4655
:102B6000314604F1090007F0E7F80028D8D14346C0
:102B70003A46314604F108000BF0ABFD0028CFD1F6
:102B800001992960CCE70000611702002DE9FE439E
:102B90001D461646040007D036B12DB120881428F2
:102BA00004D00720BDE8FE830E20FBE70020019043
:102BB0002F6814200DF10408ADF8080043463A468A
:102BC000314602A80BF026FD0028EBD143463A46D9
:102BD0003146201D0BF01EFD0028E3D10648009071
:102BE00043463A46314604F1080007F0A5F80028AC
:102BF000D8D101992960D5E7FD2B02002DE9FC41D0
:102C00001D4617460E002AD04DB340B30446807CC3
:102C1000C0F34002014662F35F01C0F3800041EA65
:102C200080008DF804000F4800903A463146204657
:102C300007F08CF8002810D10B4800902B463A463C
:102C4000314604F1080007F081F8002805D12B4631
:102C50003A46314601A80BF03CFDBDE8FC810E2050
:102C6000FBE70000611702000F3202002DE9FE436E
:102C70001D461646040007D036B12DB12088132812
:102C800004D00720BDE8FE830E20FBE70020019062
:102C90002F6813200DF10408ADF8080043463A46AA
:102CA000314602A80BF0B6FC0028EBD143463A4669
:102CB0003146201D0BF0AEFC0028E3D10648009001
:102CC00043463A46314604F1080007F035F800283B
:102CD000D8D101992960D5E7DD2C020038B531B192
:102CE0002BB120B1034C009407F030F838BD0E2012
:102CF00038BD0000F93D02002DE9FE431D46164691
:102D0000040007D036B12DB120881E2804D007203A
:102D1000BDE8FE830E20FBE7002001902F681E20F7
:102D20000DF10408ADF8080043463A46314602A8C2
:102D30000BF070FC0028EBD143463A463146201D8B
:102D40000BF068FC0028E3D10648009043463A4661
:102D5000314604F1080006F0EFFF0028D8D10199B0
:102D60002960D5E7692D020038B5A9B1A3B198B1A2
:102D70000078C0F34005044665F35F04C0F38005A6
:102D800044EA8504C0F3C00044EAC0008DF80000A6
:102D900068460BF09EFC38BD0E2038BD2DE9FC4185
:102DA0001D461646040007D036B12DB120881B28D9
:102DB00004D00720BDE8FC810E20FBE70020009036
:102DC0002F681B20E846ADF8040043463A463146DA
:102DD00001A80BF01FFC0028ECD143463A463146CF
:102DE000201D0BF017FC0028E4D143463A4631463B
:102DF00004F108000BF06DFC0028DBD1009929607C
:102E0000D8E70000F8B51646070014D09EB193B17C
:102E10000A4800901C460D46384606F065FF00281B
:102E200008D10748009004F110033246294638467D
:102E300006F05AFFF8BD0E20F8BD0000852E0200F6
:102E400011170200F8B51D4617460E0013D095B1B4
:102E500088B1044609480090204606F077FF002814
:102E600008D1074800902B463A46314604F110003D
:102E700006F06CFFF8BD0E20F8BD00009B2E02008E
:102E80006117020038B530B12AB123B11024009483
:102E90000BF02CFC38BD0E2038BD08B541B13BB15C
:102EA00030B1009313460A4610210BF035FC08BDE3
:102EB0000E2008BDF8B51F460C46050020D02CB1E9
:102EC0000020009028786E46822801D00720F8BDA7
:102ED00001200090A2B19FB11346324628460BF064
:102EE0008AFB0028F3D13B463246214628460BF0A8
:102EF000E3FB0028EBD10098A04203D00920F8BDE5
:102F00000E20F8BD0020F8BD13460A460146822077
:102F10000AF03CB82DE9FC411F460C46050023D0C1
:102F20002CB100200190287801AE812802D0072022
:102F3000BDE8FC8101200190B2B1AFB11346324629
:102F400028460BF058FB0028F2D1094800903B4678
:102F500032462146284604F09DFE0028E8D101981B
:102F6000A04203D00920E3E70E20E1E70020DFE7DD
:102F7000812F020013460A46014681200AF006B856
:102F800038B530B12AB123B1202400940BF0AEFB48
:102F900038BD0E2038BD00002DE9FC479846DDF80D
:102FA00028900C46050031D02CB1002601962878D7
:102FB00001AF832802D00720BDE8FC8701200190E3
:102FC00022B35FEA090021D0B8F1000F1ED01346EA
:102FD0003A4628460BF00FFB0028EDD10D48009033
:102FE00043463A462146284604F054FE0028E3D1E1
:102FF0004B463A4621462846009604F04BFE0028F0
:10300000DAD10198A04203D00920D5E70E20D3E7FA
:103010000020D1E7B13102002DE9FF4184B01C4608
:10302000150088461AD0CCB1002001902668832074
:1030300001AF8DF808003B463246294602A80BF046
:1030400048FB00280BD13B463246294604A80BF02A
:1030500012FB002803D1049870B903E00E2008B0D9
:10306000BDE8F081064800903B463246294640467E
:1030700004F03EFE0028F2D1019820600020EEE727
:10308000653102002DE9FC479846DDF828900C4692
:10309000050031D02CB100200190287801AE8428A1
:1030A00002D00720BDE8FC870120019022B3B8F1CF
:1030B000000F21D05FEA09001ED013463246284691
:1030C0000BF099FA0028EDD10D4F434632462146C8
:1030D0002846009704F0DEFD0028E3D14B46324637
:1030E00021462846009704F0D5FD0028DAD1019842
:1030F000A04203D00920D5E70E20D3E70020D1E776
:103100001131020013460A460146842009F03EBFF1
:103110002DE9F84316465FEA00081ED0EEB1E3B190
:103120000F4800901C460D46404606F0DDFD002885
:1031300011D11027E31D32462946404600970BF077
:10314000D5FA002807D104F1170332462946404634
:1031500000970BF0CBFABDE8F8830E20FBE70000E8
:1031600011170200F8B51D4617460E001BD0D5B149
:10317000C8B104460D480090204606F0E7FD00283F
:1031800010D13B4632461021E01D00950BF0C4FAE9
:10319000002807D13B463246102104F11700009564
:1031A0000BF0BAFAF8BD0E20F8BD0000611702005E
:1031B00038B530B12AB123B1402400940BF096FA0F
:1031C00038BD0E2038BD08B541B13BB130B10093D8
:1031D00013460A4640210BF09FFA08BD0E2008BD99
:1031E000F8B51646070010D07EB173B11C460D46E7
:1031F0000BF001FA002807D108200090A31C3246EA
:10320000294638460BF072FAF8BD0E20F8BDF8B525
:103210001D4617460E000ED06DB160B104460BF08E
:10322000F9F9002806D13B4632460821A01C00953A
:103230000BF072FAF8BD0E20F8BD2DE9F0411646EC
:1032400007000FD076B16BB11C460D460BF0D3F9D9
:10325000002808D1A31C324629463846BDE8F04173
:103260000BF0C9B90E20BDE8F0812DE9F0411D46F3
:1032700017460E000ED06DB160B104460BF0CAF9CE
:10328000002808D12B463A463146A01CBDE8F04143
:103290000BF0C0B90E20BDE8F081F8B51646070066
:1032A00010D07EB173B11C460D460BF0A4F9002876
:1032B00007D105200090A31C3246294638460BF062
:1032C00015FAF8BD0E20F8BDF8B51D4617460E00DC
:1032D0000ED06DB160B104460BF09CF9002806D108
:1032E0003B4632460521A01C00950BF015FAF8BDAF
:1032F0000E20F8BD38B568B162B15BB11C466B46B3
:103300000BF0DAF9002804D19DF8001001F001015A
:10331000217038BD0E2038BD08B551B14BB140B158
:10332000007800F001008DF8000068460BF0D1F93C
:1033300008BD0E2008BD18B112B10BB10BF0BCB91D
:103340000E20704719B113B108B10BF0C2B90E20AD
:1033500070470000F8B51646070018D0BEB1B3B1EB
:103360001C460D460BF047F900280FD1A31C32462E
:10337000294638460BF03FF9002807D10548009050
:10338000231D32462946384604F084FCF8BD0E2041
:10339000F8BD0000F7E50200F8B51D4617460E001F
:1033A00017D0B5B1A8B104460BF034F900280FD1FD
:1033B0002B463A463146A01C0BF02CF9002807D1C9
:1033C000054800902B463A463146606804F090FC70
:1033D000F8BD0E20F8BD000015E602001CB538B19E
:1033E00032B12BB106240094019403F0BEFE1CBD43
:1033F0000E201CBD08B549B143B138B10093134646
:103400000A460068062103F0E2FE08BD0E2008BD52
:1034100038B568B162B15BB11C466B460BF04CF934
:10342000002804D19DF8001001F00101217038BD81
:103430000E2038BD08B551B14BB140B1007800F055
:1034400001008DF8000068460BF043F908BD0E201E
:1034500008BD7CB50C46E0B12CB100230193057882
:1034600001A97B2D01D007207CBD0125019582B1EA
:10347000156875B1022C0AD3009313460A462146FB
:1034800004F008FC0028EFD10198A04203D00920E5
:103490007CBD0E207CBD00207CBD00002DE9FF41DD
:1034A00084B0984614460F0019D0C4B10020019092
:1034B00025687B2001AE8DF8080033462A4602A815
:1034C0000BF007F900280BD133462A46394604A8E9
:1034D0000BF0D1F8002803D1049870B903E00E2056
:1034E00008B0BDE8F0810748009033462A463946C7
:1034F000404604F0FDFB0028F2D101982060002036
:10350000EEE70000E91B02001CB50C46C8B12CB167
:1035100000210191037801A97A2B01D007201CBD5D
:10352000012301936AB1094B009313460A462146D1
:1035300004F0B0FB0028F2D10198A04203D009208A
:103540001CBD0E201CBD00201CBD0000991B0200EC
:1035500013460A4601467A2009F018BD1CB50C46F0
:1035600040B12CB100210191037801A9712B03D046
:1035700007201CBD0E201CBD01230193074B0093A7
:1035800013460A46214604F085FB0028F3D1019832
:10359000A04201D009201CBD00201CBD0D36020038
:1035A0002DE9FF4184B0984614460F0019D0C4B1EC
:1035B000002001902568712001AE8DF80800334687
:1035C0002A4602A80BF085F800280BD133462A467C
:1035D000394604A80BF04FF8002803D1049870B9BD
:1035E00003E00E2008B0BDE8F081074800903346A4
:1035F0002A463946404604F07BFB0028F2D1019868
:1036000020600020EEE7000061360200F8B51646A3
:10361000070020D0FEB1F3B11C460D460BF04CF86C
:10362000002817D1631C3246294638460BF044F86F
:1036300000280FD1A31C3246294638460AF0DBFF8A
:10364000002807D105480090231D324629463846F8
:1036500004F020FBF8BD0E20F8BD0000852E02000E
:10366000F8B51D4617460E001FD0F5B1E8B1044667
:103670000BF02FF8002817D12B463A463146601C34
:103680000BF027F800280FD12B463A463146A01CF4
:103690000AF0C0FF002807D1054800902B463A46A3
:1036A0003146606804F024FBF8BD0E20F8BD000030
:1036B0009B2E02001CB50C4640B12CB1002101919B
:1036C000037801A9702B03D007201CBD0E201CBD60
:1036D00001230193074B009313460A46214604F049
:1036E000D9FA0028F3D10198A04201D009201CBDCD
:1036F00000201CBD0D36020013460A46014670200C
:1037000009F044BC2DE9FC411C460D46060025D0BD
:1037100035B10027019730780DF104088E2802D0CA
:103720000720BDE8FC8101200190BAB1B4B1206846
:10373000A0B11346424630460AF05DFF0028F0D1A2
:103740002346424629463046009704F0A3FA002853
:10375000E7D10198A84203D00920E2E70E20E0E774
:103760000020DEE72DE9FF4184B0984614460F00A3
:1037700019D0C4B10020019025688E2001AE8DF8CB
:10378000080033462A4602A80AF0A3FF00280BD1FE
:1037900033462A46394604A80AF06DFF002803D1B3
:1037A000049870B903E00E2008B0BDE8F081074826
:1037B000009033462A463946404604F099FA0028DC
:1037C000F2D1019820600020EEE70000D3E602006D
:1037D0002DE9F8431F46DDF820800C4605002CD06B
:1037E0002CB10020009028786E46882802D007204F
:1037F000BDE8F88301200090FAB1F7B15FEA080054
:103800001BD01346324628460AF0F5FE0028EFD1B9
:103810003B463246214628460AF04EFF0028E7D1B3
:1038200043463246214628460AF046FF0028DFD1AB
:103830000098A04203D00920DAE70E20D8E7002044
:10384000D6E713460A460146882009F09FBB38B5E3
:103850000C46B8B12CB10021009103786946892B40
:1038600001D0072038BD012300935AB113460A4600
:1038700021460AF0C0FE0028F4D10098A04203D0EF
:10388000092038BD0E2038BD002038BD13460A4639
:103890000146892009F07ABBF8B51646070032D0F8
:1038A00086B37BB31C460D466B460AF005FF002825
:1038B00027D19DF800102078A31C61F30000207030
:1038C0009DF800103246490861F3410020709DF8D0
:1038D0000010890861F382002070294638460AF0FA
:1038E0008AFE00280DD1231D3246294638460AF0AB
:1038F00082FE002805D1A31D3246294638460AF02B
:103900007AFEF8BDFFE70E20FBE700001CB50C4671
:10391000D8B12CB100210191037801A98A2B01D0E3
:1039200007201CBD012301937AB113686BB1094BC9
:10393000009313460A46214604F0ACF90028F0D162
:103940000198A04203D009201CBD0E201CBD002000
:103950001CBD00009938020013460A4601468A2021
:1039600009F014BB13460A4601468B2009F00EBB32
:103970002DE9FC471E46DDE90A540F465FEA0008C0
:1039800042D03FB10020019098F800000DF10409E9
:10399000862802D00720BDE8FC870120019092B361
:1039A0008EB385B37CB3306868B3286858B3206899
:1039B00048B313464A4640460AF01DFE0028EAD1A5
:1039C0001348009033464A463946404604F062F9AF
:1039D0000028E0D10F4800902B464A463946404621
:1039E00004F058F90028D6D10B48009023464A46E7
:1039F0003946404604F04EF90028CCD10198B8422F
:103A000004D00920C7E7FFE70E20C4E70020C2E783
:103A1000C9210200852E0200993E020013460A4683
:103A20000146862009F0B2BA38B500B3FAB1F3B155
:103A30001C466B460AF040FE002817D19DF8002076
:103A4000217862F3000121709DF80020520862F392
:103A5000410121709DF80020920862F382012170DB
:103A60009DF80020D20862F3C301217038BD0E20FA
:103A700038BD38B5A9B1A3B198B10078C0F34005FD
:103A8000044665F35F04C0F3800544EA8504C0F38F
:103A9000C00044EAC0008DF8000068460AF019FE34
:103AA00038BD0E2038BD0000F8B51646070029D0F5
:103AB00046B33BB3144800901C460D46384604F00C
:103AC000E9F800281DD111480090231D32462946EF
:103AD000384604F0DFF8002813D10D48009004F1B7
:103AE000080332462946384604F0D4F8002808D1A5
:103AF0000848009004F10C0332462946384604F089
:103B0000C9F8F8BD0E20F8BD65220200052E02009E
:103B1000993E0200B1310200F8B51D4617460E006D
:103B200026D02DB320B3044612480090206804F03C
:103B3000DFF800281BD1104800902B463A4631464A
:103B4000606804F0D5F8002811D10C4800902B468D
:103B50003A463146A06804F0CBF8002807D108485F
:103B600000902B463A463146E06804F0C1F8F8BDB3
:103B70000E20F8BDA5220200452E0200AF3E020035
:103B8000C73102002DE9F84316465FEA000813D05A
:103B900096B18BB1094F1C460D46009706F0A4F86C
:103BA000002807D104F11003324629464046009709
:103BB00006F09AF8BDE8F8830E20FBE7A93A020068
:103BC0002DE9F8431D4690460E0012D08DB180B10C
:103BD000094F0446009706F0B9F8002807D12B4694
:103BE0004246314604F11000009706F0AFF8BDE8F8
:103BF000F8830E20FBE70000193B020038B5A9B19D
:103C0000A3B198B10078C0F34005044665F35F04A2
:103C1000C0F3800544EA8504C0F3C00044EAC00054
:103C20008DF8000068460AF054FD38BD0E2038BDFE
:103C30002DE9FC479846DDE90A540E4607003FD0BF
:103C400036B10020019038780DF104097F2802D0A8
:103C50000720BDE8FC870120019082B3B8F1000F76
:103C60002ED065B3286850B34CB3206838B31346E0
:103C70004A4638460AF0BFFC0028EAD143464A4685
:103C8000314638460AF018FD0028E2D10E4800906F
:103C90002B464A463146384603F0FCFF0028D8D16F
:103CA0000A48009023464A463146384603F0F2FF60
:103CB0000028CED10198B04204D00920C9E7FFE71F
:103CC0000E20C6E70020C4E73D3D0200853B020010
:103CD0002DE9FF4184B0984614460F0019D0C4B1B5
:103CE0000020019025687F2001AE8DF80800334642
:103CF0002A4602A80AF0EDFC00280BD133462A46DA
:103D0000394604A80AF0B7FC002803D1049870B91A
:103D100003E00E2008B0BDE8F0810748009033466C
:103D20002A463946404603F0E3FF0028F2D10198C5
:103D300020600020EEE70000C13B02002DE9FC41BD
:103D400016465FEA000853D0002E51D0002B4FD00A
:103D50001C460D4601AB0AF0AFFC002846D1631C9F
:103D60003246294640460AF0A7FC00283ED1A31C53
:103D70003246294640460AF09FFC002836D11D4FA6
:103D8000E31C324629464046009705F0ADFF002867
:103D90002CD1231D324629464046009705F0A4FF4A
:103DA000002823D19DF80420217862F300012170BE
:103DB0009DF80420520862F3410121709DF804200F
:103DC000920862F3820121709DF80420D20862F308
:103DD000C30121709DF80420120962F306112170BD
:103DE0009DF80420D20962F3C7112170BDE8FC815F
:103DF0000E20FBE7293A02002DE9FC411D469046C2
:103E00000E0045D0F5B3E8B304460078C0F3400295
:103E1000014662F35F01C0F3800241EA8201C0F310
:103E2000C00241EAC201C0F3021241EA021120F0CD
:103E30007F0001438DF804104246314601A80AF084
:103E400048FC002822D12B4642463146601C0AF02D
:103E500040FC00281AD12B4642463146A01C0AF0ED
:103E600038FC002812D10B4F2B4642463146E01C4D
:103E7000009705F06BFF002808D12B4642463146DB
:103E8000201D00E004E0009705F060FFBDE8FC8124
:103E90000E20FBE7733A020038B530B12AB123B1E6
:103EA000102400940AF022FC38BD0E2038BD08B55D
:103EB00041B13BB130B1009313460A4610210AF0DC
:103EC0002BFC08BD0E2008BD38B50C46B8B12CB18E
:103ED0000021009103786946772B01D0072038BD77
:103EE000012300935AB113460A4621460AF0E4FB27
:103EF0000028F4D10098A04203D0092038BD0E203C
:103F000038BD002038BD13460A460146772009F027
:103F10003DB800002DE9FE4F1446060098460D46B8
:103F200029D035B10027019730780DF1040A6E28A9
:103F300002D00720BDE8FE8F01200190DCB120688F
:103F4000C8B10068B8B1524630460AF0B5FB002847
:103F5000F0D102AB5246294630460AF0ADFB0028AC
:103F6000E8D19DF80800012807D027600198A842F1
:103F700019D00920DEE70E20DCE727680024DFF8EF
:103F80002C900BE007EB8403524629463046CDF8CF
:103F9000009003F07FFE0028CCD1641C98F800004C
:103FA000A042EFD8E2E70020C4E7000011170200AA
:103FB00013460A4601466E2008F0E8BF38B5A0B1A6
:103FC0009AB193B11C466B460AF076FB00280BD1E0
:103FD0009DF80020217862F3000121709DF80020F7
:103FE000520862F34101217038BD0E2038BD38B54A
:103FF00090B38AB383B31C466B460AF05DFB00287E
:1040000029D19DF80020217862F3000121709DF8EC
:104010000020520862F3410121709DF800209208AF
:1040200062F3820121709DF80020D20862F3C3017F
:1040300021709DF80020120962F3041121709DF88F
:104040000020520962F3451121709DF80020920969
:1040500062F38611217038BDFFE70E20FBE738B50B
:1040600009B303B3F8B10078C0F34005044665F323
:104070005F04C0F3800544EA8504C0F3C00544EA48
:10408000C504C0F3001544EA0514C0F3401544EA22
:104090004514C0F3801044EA80108DF80000684693
:1040A0000AF017FB38BD0E2038BD18B112B10BB1A4
:1040B0000AF0A1BA0E207047F8B51D4617460E004B
:1040C0000FD075B168B104460AF0A4FA002807D1F0
:1040D000054800902B463A463146A01C05F04AFEA2
:1040E000F8BD0E20F8BD00007B6C0200F8B51D463F
:1040F00017460E000FD075B168B104460AF08AFA6F
:10410000002807D1054800902B463A463146A01CAE
:1041100005F030FEF8BD0E20F8BD0000956E0200DF
:104120002DE9FC411C460D46060025D02DB100208E
:104130000190307801AF982802D00720BDE8FC81BB
:1041400001200190C2B1BCB12068A8B113463A4623
:1041500030460AF050FA0028F0D109480090234672
:104160003A462946304603F095FD0028E6D10198ED
:10417000A84203D00920E1E70E20DFE70020DDE7B9
:10418000A74E020013460A460146982008F0FEBEDC
:104190002DE9FC411D4617460E0032D085B378B399
:1041A000044619480090204605F0E4FD002825D17A
:1041B000164800902B463A463146201D05F0DAFDA0
:1041C00000281BD160792B4600F001008DF8040017
:1041D0003A46314601A80AF07CFA00280ED12B4657
:1041E0003A463146A01D0AF015FA002806D12B46A2
:1041F0003A46314604F108000AF00CFABDE8FC81A9
:10420000FFE70E20FAE70000956E02005F40020013
:104210002DE9FC411D46089C0E46070033D036B1FF
:104220000020019038780DF10408992802D0072069
:10423000BDE8FC81012001902AB325B3286810B3A2
:104240000CB32068F8B11346424638460AF0D3F959
:104250000028EDD10E4800902B46424631463846A4
:1042600003F018FD0028E3D10A4800902346424697
:104270003146384603F00EFD0028D9D10198B042EE
:1042800003D00920D4E70E20D2E70020D0E70000B9
:10429000656E0200A74E020013460A4601469920A9
:1042A00008F074BE2DE9FC411C46089F0D4606002F
:1042B00026D035B10020019030780DF104089B28FC
:1042C00002D00720BDE8FC8101200190C2B1BCB141
:1042D0002068A8B1A7B11346424630460AF08BF9D0
:1042E0000028EFD12346424629463046009704F085
:1042F0006FFF0028E6D10198A84203D00920E1E72A
:104300000E20DFE70020DDE713460A4601469B202A
:1043100008F03CBE2DE9FC411F460C46050009D0C3
:104320002CB100200190287801AE962804D00720F7
:10433000BDE8FC810E20FBE70120134601903246C8
:1043400028460AF058F90028F2D1084800903B4668
:1043500032462146284603F09DFC0028E8D101980A
:10436000A04201D00920E3E70020E1E7A74E0200C8
:1043700013460A460146962008F008BEF8B51D46C9
:1043800017460E000FD075B168B104460AF042F925
:10439000002807D1054800902B463A463146A01C1C
:1043A00005F0E8FCF8BD0E20F8BD0000956E020097
:1043B0002DE9FC411F460C46050009D02CB1002018
:1043C0000190287801AE972804D00720BDE8FC8131
:1043D0000E20FBE7012013460190324628460AF0E2
:1043E0000AF90028F2D1084800903B46324621469F
:1043F000284603F04FFC0028E8D10198A04201D0E4
:104400000920E3E70020E1E7A74E020013460A4631
:104410000146972008F0BABD2DE9FE431D46164619
:10442000040007D036B12DB12088342804D00720ED
:10443000BDE8FE830E20FBE7002001902F683420AA
:104440000DF10408ADF8080043463A46314602A88B
:104450000AF0E0F80028EBD143463A463146201DE9
:104460000AF0D8F80028E3D143463A463146A01D69
:104470000AF0D0F80028DBD143463A46314604F131
:1044800008000AF0C7F80028D2D107480090434638
:104490003A46314604F10A0005F062FC0028C7D113
:1044A00001992960C4E70000AD4402002DE9F843FA
:1044B0001F4691465FEA010814D09FB190B10446AF
:1044C0000AF0A8F800280ED13B464A464146A01CF7
:1044D0000AF0FFF8002806D1A178012905D0104E76
:1044E000002515E00E20BDE8F8830E4EF8E7A07811
:1044F000012811D005EBC50004EB4000001D3B4630
:104500004A464146009605F035FC0028EBD16D1C6B
:104510002188A942EBD8E6E705EB4500ECE700006F
:10452000B9400200ED4002002DE9FE431D4616464B
:10453000040007D036B12DB12088322804D00720DE
:10454000BDE8FE830E20FBE7002001902F6832209B
:104550000DF10408ADF8080043463A46314602A87A
:104560000AF058F80028EBD143463A463146201D60
:104570000AF050F80028E3D143463A463146A01DE0
:104580000AF048F80028DBD143463A46314604F1A8
:1045900008000AF03FF80028D2D1074800904346AF
:1045A0003A46314604F10A0005F0DAFB0028C7D18B
:1045B00001992960C4E70000BD4502002DE9F843D8
:1045C0001E4691465FEA010809D046B138B104465B
:1045D0000AF020F8002803D100250B4F10E00E2030
:1045E000BDE8F88305EB850004EB400033464A46FE
:1045F0004146801C009705F0BDFB0028F0D16D1CE2
:104600002188A942EED8EBE7914102002DE9FE4353
:104610001D461646040007D036B12DB12088352836
:1046200004D00720BDE8FE830E20FBE700200190A8
:104630002F6835200DF10408ADF8080043463A46CE
:10464000314602A809F0E6FF0028EBD143463A467E
:104650003146201D09F0DEFF0028E3D143463A46EB
:104660003146A01D09F0D6FF0028DBD143463A466B
:10467000314604F1080009F0CDFF0028D2D10748E7
:10468000009043463A46314604F10A0005F068FBC3
:104690000028C7D101992960C4E70000A1460200A3
:1046A000F8B51D4617460E001AD0CDB1C0B104466C
:1046B00009F0B0FF002812D12B463A463146A01C23
:1046C00009F0A8FF00280AD160882188801C48438F
:1046D00081B23B463246201D00950AF01DF8F8BD18
:1046E0000E20F8BD2DE9FE431D461646040007D0F6
:1046F00036B12DB12088372804D00720BDE8FE83CD
:104700000E20FBE7002001902F6837200DF10408F0
:10471000ADF8080043463A46314602A809F07AFF50
:104720000028EBD143463A463146201D09F072FF7E
:104730000028E3D143463A463146A01D09F06AFFFE
:104740000028DBD143463A46314604F1080009F01F
:1047500061FF0028D2D10748009043463A463146CF
:1047600004F10A0005F0FCFA0028C7D1019929607C
:10477000C4E7000079470200F8B51D4617460E0051
:104780000ED06DB160B1044609F044FF002806D197
:10479000009521883B463246A01C09F0BDFFF8BDBC
:1047A0000E20F8BD2DE9FE431D461646040007D035
:1047B00036B12DB12088332804D00720BDE8FE8310
:1047C0000E20FBE7002001902F6833200DF1040834
:1047D000ADF8080043463A46314602A809F01AFFF0
:1047E0000028EBD143463A463146201D09F012FF1E
:1047F0000028E3D143463A463146A01D09F00AFF9E
:104800000028DBD143463A46314604F1080009F05E
:1048100001FF0028D2D10748009043463A4631466E
:1048200004F10A0005F09CFA0028C7D1019929601B
:10483000C4E70000394802002DE9F8431E469146BE
:104840005FEA010809D046B138B1044609F0E2FE3A
:10485000002803D100250B4F10E00E20BDE8F8839F
:1048600005EB450004EB400033464A464146801CB8
:10487000009705F07FFA0028F0D16D1C2188A9422D
:10488000EED8EBE77D4302002DE9FE431D461646B8
:10489000040007D036B12DB120883A2804D0072073
:1048A000BDE8FE830E20FBE7002001902F683A2030
:1048B0000DF10408ADF8080043463A46314602A817
:1048C00009F0A8FE0028EBD143463A463146201DA8
:1048D00009F0A0FE0028E3D143463A463146A01D28
:1048E00009F098FE0028DBD143463A46314604F1F0
:1048F000080009F08FFE0028D2D1074800904346F7
:104900003A46314604F10A0005F02AFA0028C7D1D8
:1049100001992960C4E700001D49020019B113B1D3
:1049200008B109F077BE0E20704700002DE9FE4364
:104930001D461646040007D036B12DB1208839280F
:1049400004D00720BDE8FE830E20FBE70020019085
:104950002F6839200DF10408ADF8080043463A46A7
:10496000314602A809F056FE0028EBD143463A46EC
:104970003146201D09F04EFE0028E3D143463A4659
:104980003146A01D09F046FE0028DBD143463A46D9
:10499000314604F1080009F03DFE0028D2D1074855
:1049A000009043463A46314604F10A0005F0D8F932
:1049B0000028C7D101992960C4E70000C14902005D
:1049C000F8B51D4617460E001ED0EDB1E0B1044605
:1049D00009F020FE002816D12B463A463146A01C8D
:1049E00009F077FE00280ED12B463A463146201DAD
:1049F00009F010FE002806D10095A1883B463246FA
:104A0000A01D09F089FEF8BD0E20F8BD2DE9FE437A
:104A10001D461646040007D036B12DB12088302837
:104A200004D00720BDE8FE830E20FBE700200190A4
:104A30002F6830200DF10408ADF8080043463A46CF
:104A4000314602A809F0E6FD0028EBD143463A467C
:104A50003146201D09F0DEFD0028E3D143463A46E9
:104A60003146A01D09F0D6FD0028DBD143463A4669
:104A7000314604F1080009F0CDFD0028D2D10748E5
:104A8000009043463A46314604F10A0005F068F9C1
:104A90000028C7D101992960C4E70000A14A02009B
:104AA0002DE9F8431E4691465FEA010809D046B158
:104AB00038B1044609F0AEFD002803D100250A4FA5
:104AC0000EE00E20BDE8F88304EBC50033464A46ED
