:020000040001F9
:10F0000088DA0120C1F30100C9F30100CBF301004C
:10F01000CDF30100CFF30100D1F3010000000000A7
:10F02000000000000000000000000000D3F3010019
:10F03000D5F3010000000000D7F30100D9F301006F
:10F04000C9F50100DBF3010015F80100DBF3010055
:10F05000DBF30100DBF30100DBF30100DBF3010074
:10F06000DBF30100DBF30100E1F70100DBF301005A
:10F07000DBF30100DBF30100DBF30100DBF3010054
:10F08000DBF30100D9F50100DBF30100DBF3010044
:10F09000FDF50100DBF3010001F60100DBF30100E7
:10F0A000DBF30100DBF30100DBF30100DBF3010024
:10F0B000DBF30100DBF301000000000000000000B2
:10F0C000DBF30100DBF30100DBF30100DBF3010004
:10F0D000DBF30100DBF30100DBF3010021F80100A9
:10F0E000DBF30100DBF30100DBF3010000000000B3
:10F0F00000000000DBF3010000000000DBF3010072
:10F1000000000000000000000000000000000000FF
:10F1100000000000000000000000000000000000EF
:10F1200000000000000000000000000000000000DF
:10F1300000000000000000000000000000000000CF
:10F1400000000000000000000000000000000000BF
:10F1500000000000000000000000000000000000AF
:10F16000000000000000000000000000000000009F
:10F17000000000000000000000000000000000008F
:10F18000000000000000000000000000000000007F
:10F19000000000000000000000000000000000006F
:10F1A000000000000000000000000000000000005F
:10F1B000000000000000000000000000000000004F
:10F1C000000000000000000000000000000000003F
:10F1D000000000000000000000000000000000002F
:10F1E000000000000000000000000000000000001F
:10F1F000000000000000000000000000000000000F
:10F20000DFF80CD000F058F900480047EDA80200E4
:10F2100088DA012030B450E8012F93B2C489234426
:10F220008489A34228BF1B1B0489A34202BFBFF3EA
:10F230002F8F002007E0C3EA020340E80134002CCE
:10F24000E9D14FF001000A6030BC704750E8012F4F
:10F25000C2EA024240E801210029F7D1704730B4E8
:10F2600050E8022F1FFAA2F3C488A34202BFBFF3E3
:10F270002F8F00200DE0C48923448489A34228BF36
:10F280001B1BC2EA034340E80234002CE8D14FF0D4
:10F2900001000A6030BC704750E8022FC2EA2242E7
:10F2A00040E802210029F7D17047034653E8022FB6
:10F2B000D988B2EB324F4FF0000017BF92B241EA4B
:10F2C000014142EA014104E05A68B2EB324F08BF03
:10F2D000012043E80212002AE8D1704730B4044606
:10F2E00054E8000F0D4644E80053002BF8D1156098
:10F2F00030BC704730B4044654E8000F40EA0105C2
:10F3000044E80053002BF7D1156030BC704730B48F
:10F31000044654E8000F00EA010544E80053002BBE
:10F32000F7D1156030BC704730B4044654E8000F84
:10F3300080EA010544E80053002BF7D1156030BC8A
:10F34000704730B4044654E8000F00EB010544E870
:10F350000053002BF7D1156030BC704730B4044621
:10F3600054E8000FA0EB010544E80053002BF7D14F
:10F37000156030BC704770B404464FF0000054E88C
:10F38000006F0D68AE4207BF44E80023012044E847
:10F3900000630E60002B1CBF0020F0E770BC7047BC
:10F3A00030B4044654E8000F88422CBF451A054685
:10F3B00044E80053002BF5D1156030BC70470000C5
:10F3C0000648804706480047FEE7FEE7FEE7FEE7FF
:10F3D000FEE7FEE7FEE7FEE7FEE7FEE705F60100D3
:10F3E00001F2010040EA01039B0703D009E008C9CC
:10F3F000121F08C0042AFAD203E011F8013B00F8FA
:10F40000013B521EF9D27047D2B201E000F8012B45
:10F41000491EFBD270470022F6E710B513460A4694
:10F4200004461946FFF7F0FF204610BD421C10F8B5
:10F43000011B0029FBD1801A704730B5044600201B
:10F44000034600E05B1C934203D2E05CCD5C401BB2
:10F45000F8D030BD2DE9F05F0546002092469B466E
:10F4600088460646814640241BE0284641464746DA
:10F47000224600F042F853465A46C01A914110D332
:10F4800011461846224600F029F82D1A67EB0108AC
:10F490004F4622460120002100F020F817EB00091A
:10F4A0004E41201EA4F10104DFDC484631462A46C5
:10F4B0004346BDE8F09F0000064C074D06E0E068BB
:10F4C00040F0010394E8070098471034AC42F6D3AB
:10F4D000FFF79AFE54F3020074F30200202A04DBC3
:10F4E000203A00FA02F1002070479140C2F1200357
:10F4F00020FA03F3194390407047202A04DB203A96
:10F5000021FA02F00021704721FA02F3D040C2F143
:10F510002002914008431946704770B58C1810F8C6
:10F52000015B15F0070301D110F8013B2A1106D148
:10F5300010F8012B03E010F8016B01F8016B5B1E62
:10F54000F9D12B0705D40023521E0DD401F8013B3D
:10F55000FAE710F8013BCB1A921C03E013F8015BA9
:10F5600001F8015B521EF9D5A142D8D3002070BD2D
:10F5700000F01F02012191404009800000F1E020CD
:10F58000C0F88012704700F01F020121914040092D
:10F59000800000F1E020C0F88012704700F01F02E8
:10F5A000012191404009800000F1E020C0F80011E5
:10F5B000704700F01F02012191404009800000F1D6
:10F5C000E020C0F80012704710B50CF07BFEBDE8DB
:10F5D00010400CF0FDBD000007480021C0F84011AC
:10F5E000C0F84411C0F84811C0F84C11C0F800111F
:10F5F000C0F804110EF0B0BD001001400EF01EBDA9
:10F600000CF05ABC30B54FF0805000228300D0F887
:10F610003011C3F80C21C3F81021624B1A60624B01
:10F620001B68624C2360604B1B1D1B68241D2360FC
:10F630005D4B08331B68241D23605B4B0C331B6838
:10F64000241D2360584B10331B68241D2360564B28
:10F6500014331B68241D2360534B18331B68534C11
:10F6600020342360504B1C331B68241D23604E4BF9
:10F6700020331B68241D23604B4B24331B68241D3F
:10F680002360494B28331B68241D2360464B2C33D1
:10F690001B68241D2360444B30331B68434C4034AB
:10F6A0002360414B34331B68241D23603E4B3833A9
:10F6B0001B68241D23603C4B3C331B68241D2360C6
:10F6C000394B40331B68241D23600124082902D1D3
:10F6D000D0F8343113B1082904D006E0354B344951
:10F6E000196005E0D0F8343113B1082904D006E0E0
:10F6F000314BFB21196005E0D0F8343113B10829F2
:10F7000008D00EE090F858322C48016863F30301EA
:10F71000016002E0D0F834311BB929494FF4007080
:10F72000086028480168C90702D06FF00101016034
:10F730002548016841F470010160BFF34F8FBFF3AA
:10F740006F8F4FF01021D1F80002002803DBD1F8B1
:10F750000402002822DA1D4B1C601D480468002C9E
:10F76000FCD01224C1F800420568002DFCD0C1F87D
:10F77000044201680029FCD01A6001680029FCD00D
:10F78000BFF34F8F10487C380168124A01F4E061E2
:10F7900011430160BFF34F8F00BFFDE70F490E48D3
:10F7A000086030BD380500400404001020C500404A
:10F7B000488103008C56004018F50040E40E0040DC
:10F7C000409602400004004088ED00E004E501405E
:10F7D00000E401400400FA050090D003209C0120C1
:10F7E0000A48D0F8441101290ED1D0F80413890336
:10F7F0000AD50021C0F844110121C1600448C27932
:10F800000AB10AF061BD01727047000000A000401B
:10F81000AC9B012001480068004700007C9A012051
:10F820002DE9F05F5448D0F8045300242E464FF0E1
:10F83000010913E096FAA6F0B0FA80F7B80000F5D7
:10F84000807080460CF046FC28B140460CF04AFC23
:10F8500009FA07F0044309FA07F08643002EE9D1BC
:10F860000BF05CFE002869D0444AD078F0BBA002BF
:10F8700064D5434940F2A978C1F80080081D0368A7
:10F8800013F0FF0C02D0036803EA0C0C40F2AA7AD2
:10F89000C1F800A0036813F0FF0301D006683340ED
:10F8A00040F2AB7BC1F800B0066816F0FF0601D04D
:10F8B00007683E4040F2AC770F60076817EA0C0714
:10F8C00009D0D2F810C04CEA070CC2F810C0C1F839
:10F8D00000800760076840F2AD770F6007681F403F
:10F8E00009D0136943EA0743136100E026E0C1F839
:10F8F00000A00760036840F2AE730B6003683340FA
:10F900000BD0DE0701D044F40004DE0601D544F03C
:10F910000104C1F800B003600068106930F0011103
:10F9200002D005F080710C4310F0011F06D069056C
:10F9300004D520F0011044F480641061C4F3C05673
:10F9400024F400044F46DFF83C8009E094FAA4F068
:10F95000B0FA80F558F82500804707FA05F084438F
:10F96000002CF3D10EF0F2FF002E03D0BDE8F05FC3
:10F970000AF028B9BDE8F09F007002404C9A0120BF
:10F980000078024038EE0200C11700EBD161074B4E
:10F990004A1153F8222021F01F01411A012088400A
:10F9A000024201D0012070470020704700E100E0D2
:10F9B0000FB41CB50A46521ECDE9000207A9054B3B
:10F9C0006A46069800F038F8009A002111701CBCB5
:10F9D0005DF814FB9BFE010002E008C8121F08C17D
:10F9E000002AFAD170477047002001E001C1121FC0
:10F9F000002AFBD1704700000121202803DA814052
:10FA00000548014003E0402802DA2038814009B16E
:10FA10000120704700207047FC06FFBC082808D270
:10FA200038B1012805D0042803D0052801D00120D1
:10FA300070470020704700002DE9FF4F8DB00F4642
:10FA40000546002606E025280BD0DDE90F12904779
:10FA50006D1C761C28780028F5D111B03046BDE821
:10FA6000F08F0024A246A1460122EC4900E00443A5
:10FA700015F8013F203B02FA03F00842F7D128783D
:10FA80002A2810D06FF02F022878A0F13001092920
:10FA900014D80AEB8A0102EB410144F0020400EBA6
:10FAA000010A6D1CF0E701CF5FEA000A03D544F4B8
:10FAB0000054CAF1000A44F002046D1C28782E2874
:10FAC00017D115F8010F44F004042A280ED06FF066
:10FAD0002F022878A0F1300109290AD809EB890101
:10FAE00002EB410100EB01096D1CF2E757F8049BA2
:10FAF0006D1C28786C280FD006DC4C2817D068289D
:10FB00000DD06A2814D104E0742810D07A280FD1BF
:10FB10000DE044F400140AE044F4801401E044F4DD
:10FB200040146978814202D104F580146D1C6D1C6B
:10FB30002A786E2A1FD00CDC632A31D004DC002A1C
:10FB40008BD0582A11D1A3E0642A68D0692A0CD13D
:10FB500065E0732A2ED004DC6F2A73D0702A04D19A
:10FB60009BE0752A6FD0782A6ED01046DDE90F121F
:10FB70009047761C50E1C4F30250022806D00328B7
:10FB800009D0042801CF09D0066045E101CFF11763
:10FB9000C0E9006140E101CF06803DE106703BE134
:10FBA00017F8040B8DF8000000208DF80100EB46DB
:10FBB000012003E057F804BB4FF0FF3061074FF01E
:10FBC000000102D40DE008F10101884649450FDA31
:10FBD0008045F8DB1BF808100029F4D108E008F193
:10FBE000010188468142FADB1BF808100029F6D192
:10FBF000DDE90F23AAEB08008146214600F036F923
:10FC0000304400EB080604E0DDE90F121BF8010B9D
:10FC10009047B8F10108F7D221464846F7E00A219B
:10FC2000C4F302534FF0000B0891022B04D001CF14
:10FC3000C117032B09D00AE0FF1D27F00707F7E8DB
:10FC4000020108E032E01FE020E000B2C117042BFF
:10FC500001D140B2C117031E71F1000307DA4FF062
:10FC6000000CD0EB0C006CEB01012D2302E023050E
:10FC700004D52B238DF82430012303E0E30701D0C2
:10FC80002023F7E7984658E00A2110E010210EE003
:10FC900010204FF0000B08900CE010214FF0000BEB
:10FCA00044F004044FF00809089103E008214FF0E4
:10FCB000000B0891C4F30253022B04D001CF0021A2
:10FCC000032B06D006E0FF1D27F00707F7E8020127
:10FCD00003E080B2042B00D1C0B24FF0000823072C
:10FCE0002BD5702A07D0DDF820C08CF0100C5CEA10
:10FCF0000B0C05D00EE040238DF82430012308E0E2
:10FD000050EA010306D030238DF824308DF82520E9
:10FD100002239846DDF820C08CF0080C5CEA0B0C3E
:10FD20000BD150EA010301D1630706D530238DF8CA
:10FD300024304FF00108A9F10109582A04D038A253
:10FD40000B9208AA0A920BE03AA2F9E75B46089ADE
:10FD5000FFF780FB0B9B9B5C0A9A521E0A92137062
:10FD600050EA0102F2D10A98ADEB000000F1200B3D
:10FD7000600702D524F4803401E04FF00109D94531
:10FD800002DDA9EB0B0000E0002000EB0B01414479
:10FD90000890AAEB010AE00306D4DDE90F2321460F
:10FDA000504600F063F806444FF0000908E009A946
:10FDB00011F80900DDE90F12904709F10109761CDD
:10FDC000C145F4DBE0030CD5DDE90F2321465046A5
:10FDD00000F04CF8064404E0DDE90F1230209047B3
:10FDE000761C0899481E08900029F5DC08E00A985E
:10FDF0000A990078491C0A91DDE90F129047761C98
:10FE0000BBF10001ABF1010BF1DC21465046DDE90D
:10FE10000F2300F019F806446D1C1BE609280100A9
:10FE20003031323334353637383961626364656670
:10FE30000000000030313233343536373839414232
:10FE400043444546000000002DE9F04104460025EA
:10FE50001E461746880404D405E039462020B047E2
:10FE60006D1C641EF9D52846BDE8F0812DE9F041EE
:10FE7000044600251E469046C80301D5302700E001
:10FE80002027880404D505E041463846B0476D1C5C
:10FE9000641EF9D52846BDE8F0814A68002A06D0DC
:10FEA0000A68531C0B6010704868401E4860704719
:10FEB0001CB50E480D4C90F830002834C00020705E
:10FEC00000206070A07020460AF0DEFBE070042085
:10FED000ADF8040000220094114668460DF0DCFBEA
:10FEE000002802D0002000F027F81CBDAC9B0120A8
:10FEF00038B5044600208DF80000684600F036FF53
:10FF00000A4884420CD0BFF34F8F09480168094A60
:10FF100001F4E06111430160BFF34F8F00BFFDE7C3
:10FF20009DF8000000F046FF38BD0000FECADDBAB3
:10FF30000CED00E00400FA050EB500210091CDE9BA
:10FF400001106A4644F20100FFF7D2FF0EBD000027
:10FF50002DE9F84F2C4C8146924660880E4681422E
:10FF60004FD800274FF6FF788DF80070684600F0F4
:10FF7000FDFE22786078A188884201DA401C00E00A
:10FF80000020C0B2904204D19DF8000000F012FFA2
:10FF900035E065786078884201DA401C00E0002096
:10FFA000607020786278824201D3101A02E0081A49
:10FFB0001044401CE18880B2884200D9E0809DF85E
:10FFC000000000F0F7FE454519D0E068B9F1000FD8
:10FFD00040F835A00DD066B161882069324605FB36
:10FFE00001004946FFF7FEF9E06800EBC500868096
:10FFF00002E000EBC50087800020BDE8F88F0420F8
:020000040002F8
:10000000FBE70920F9E70000849A012010B50F4CA6
:1000100003E0401C00E000202070A068002814D1FC
:1000200020786178814210D0227861882069E36865
:1000300002FB010003EBC20153F83220898890478C
:100040002078A1888842E6DAE3E710BD849A01208F
:1000500030B5CB0008339DB293074FF0000401D0B8
:10006000072030BD054BDA602A441A615C701C70B1
:1000700058809980DC80002030BD0000849A0120E7
:1000800008B500208DF80000684600F06FFE0549B5
:100090008868421C01D0401C88609DF8000000F078
:1000A00089FE08BD849A0120074801784078064AF5
:1000B0008842928801D3401A02E0511A0844401C39
:1000C000101A80B270470000849A012008B5002001
:1000D0008DF80000684600F049FE0548816809B1C6
:1000E000491E81609DF8000000F064FE08BD00001C
:1000F000849A012070B505460548046905E0294643
:10010000204607F05FFD20680468002CF7D170BD21
:10011000AC9A012070B5094804690CE0267A0025E4
:1001200005E02946204600F091FC6D1CEDB2B54279
:10013000F7D320680468002CF0D170BDAC9A012080
:1001400070B50A4804690DE0267A002506E0002211
:100150002946204600F0B8FC6D1CEDB2B542F6D33E
:1001600020680468002CEFD170BD0000AC9A01201B
:1001700070B50849054606200C6907E02946204667
:1001800007F020FD062803D121680C68002CF5D16A
:1001900070BD0000AC9A01207CB504680B46154682
:1001A000217F0834C90705D0A16929B1206AA0B30D
:1001B00011207CBD08207CBDE16EA9420CD31846FD
:1001C000A16EFFF70FF9E06E401BE066A06E656759
:1001D0002844A06600207CBDC4E9063209F081F8FD
:1001E000054610480069CDE90004E26E6AB1A16ECF
:1001F000A069FFF7F7F8E16EE069401AE061A069D5
:100200000844A0610020C4E91B016946284600F0AB
:100210005BFA0028DFD192207CBDFFE7C4E90832F9
:10022000F9E7000038EF02003EB50D4601681446BC
:10023000097F11F0010F09D009F04AF8002100955B
:10024000CDE90141694600F065FA3EBD08203EBD9A
:10025000F8B5044600250FE0002705E0007800F01F
:1002600047FA08B11120F8BD3946781CC7B23046AC
:1002700000F09CF80028F1D12946681CC5B2204640
:1002800000F0A6F80600E7D100250DE0002703E006
:100290000078214600F031FA3946781CC7B2304662
:1002A00000F084F80028F3D12946681CC5B2204626
:1002B00000F08EF80600E9D1074800E00868016800
:1002C0000029FBD1046005486946406900906068D8
:1002D000026820469047F8BDBC9A0120E8EE020073
:1002E0002DE9F04F87B04FF000081D469346894630
:1002F0000446DDF840A04646CDF80C8000E0761CB0
:100300006068012300224768214603A8B8470028F7
:10031000F5D140468DF800800027B84601903BE0BB
:10032000606801236A46D0F804C0214601A8E0476E
:100330006068012305AAD0F804C0214601A8E0475F
:100340009DF8141049451AD1D84514D19DF80000E4
:10035000CAF8000005F8010B6A1C85F80090606877
:100360009DF800302146456801A89B1EA847002043
:1003700007B0BDE8F08F08F1010000F0FF086068E9
:100380009DF800300022D0F804C0214601A89B1E31
:10039000E0479DF800000744B742C1D30520E7E7D6
:1003A0000148006970470000AC9A012042788A42F7
:1003B00001D8002070478278104408447047427882
:1003C0008A4201D800207047827810440844704760
:1003D000027A8A4201D80020704701EB41010930BE
:1003E00008447047027A8A4201D80020704701EB26
:1003F000410109300844704702484078002800D085
:1004000001207047AC9A012070B50D46097806248A
:1004100001260F293DD2DFE801F03C080C0E3C1A02
:100420002B3C3C3C3C0C1E20290003200EF0EAF93A
:100430002FE000242DE028480AF0FBFA0028F8D02D
:1004400026480660BFF36F8FBFF34F8FF1E700F0D0
:1004500065F804461DE0002005E02148006810F022
:10046000010F03D002200EF0CDF9E2E70120FAE7F8
:10047000E87803280DD01849091D0A6832B1002315
:100480000B6049689047040005D000E00E240BF093
:1004900067F9204670BD0EF0ADF928B1A8780028A4
:1004A000F7D10BF020F9F4E70E480078082810D1B6
:1004B0000C48001D007800070BD10A48083000786E
:1004C00010F0F00F05D107480C30007810F0F00F55
:1004D000DFD00BF005F9DCE7DC9A01205C7002400C
:1004E00038040040E00F00F0024A0146D2E9000261
:1004F0001047000080B8012070B50C4605460BF08F
:10050000E9F8A84201D0102070BD0348D4E90012D8
:10051000C0E90212002070BDD89A01207FB50546BF
:1005200005208DF8000006240DF101000BF0F0F815
:100530000EF060F92949002008609DF8010010F0D4
:100540001F0006D001280FD0022826D0032833D15F
:1005500006E0694628460DF0F7F9044606282AD138
:100560006846FFF705FE25E09DF8050003A900F0A9
:1005700089FA050008D06A469DF80C1000F062FA6E
:100580000446062802D016E0102415E06A469DF8BD
:100590000C1028460DF04CFB0CE09DF805000107FF
:1005A00005D0694600F05CF80446062803D1684689
:1005B0000DF054FA044624B10BF0D2F804B02046F2
:1005C00070BD0EF017F930B10BF084F80028F5D1AA
:1005D0000BF089F8F2E70BF083F8EFE7E09A0120DF
:1005E0007FB5C08814460E46A04201D2054600E001
:1005F0001546844207D280200AF082FEB4FBF0F157
:1006000000FB114080B100200096CDE90150002090
:100610008DF80C0003A800F0A9FB6946802000F0CB
:1006200079F8040002D006E00120EDE705498020BA
:10063000FFF762FF04469DF80C0000F0BBFB04B01E
:10064000204670BD68EF020008B1402101600148FA
:1006500070470000D4B801200AF0E8BC0AF002BDDF
:1006600010B50C46010600F00F02092A09D200F06D
:100670000BF8006828B141680A682146BDE81040BF
:100680001047102010BD0000010600F00F0001D53A
:10069000034901E00249483101EBC0007047000006
:1006A00038B8012010B5044600F00F00082805D224
:1006B00020460AF097FD20460AF052FE2046BDE88B
:1006C00010400AF09DBD000070B50C4605460AF0CA
:1006D000D9FD18B105480078022801D0082070BD66
:1006E00021462846BDE870400AF0CEBDAC9A0120F4
:1006F00010B5FFF7C9FF006810BD10B50C46FFF735
:10070000C3FF04601CB161680968416010BD00212D
:10071000FBE7000070B50C4605460AF0B3FD18B1C2
:1007200005480078022801D0082070BD21462846DF
:10073000BDE870400AF044BEAC9A01202DE9FE43AA
:1007400005460078224E002748B3DFF8888001A9CB
:10075000D8F81C000AF041F904001ED02868206077
:100760008DF8087002A800F001FB7088F168401A4B
:10077000401CE080002106F10C000AF06EF9A08018
:100780009DF8080000F016FB01A9D8F81C000AF03B
:1007900045F9014628460EF077FABDE8FE838DF84C
:1007A0000070684600F0E2FAF06808B96888708066
:1007B000074801210C300AF03FF99DF8000000F0D5
:1007C000F9FA012128460EF05FFAF068E5E700002B
:1007D000AC9A0120E8EE020070B501786B4C05463A
:1007E00009296FD007DC77D2DFE801F067779E80B8
:1007F0008AA7AE76C30065488129007817D00DDC42
:100800000A2971D00F2970D0802965D1052803D01D
:1008100006283CD007285FD1022081E082291BD026
:10082000832936D0842957D103283AD03FE058484D
:10083000FFF75AFE5648FFF75DFC0D200EF032FA26
:10084000606910B95348007A00B101200AF08CFFAA
:10085000FFF760FC012063E0FFF75CFC0AF0B0FFEB
:1008600000200DF039FB4A48401CFFF743FC484884
:10087000401CFFF739FE0E200EF014FA207800F02D
:100880005BFA002828D0BDE870400AF089BA082039
:1008900046E0032820D10AF0B1FF00281CD0042034
:1008A0003EE00AF0ABFF10B104200DF015FB0BF099
:1008B00033F8002810D0062032E000200EF0F2F9C4
:1008C000646907E057E007E02946204607F07AF917
:1008D00020684468002CF7D170BDFFF71BFC022094
:1008E0000DF0FAFA012005E047E02BE005200DF0BD
:1008F000F3FA03200EF0D6F92846FFF7F5FD3FE0A6
:1009000003200EF0CFF92248801CFFF7EDFD2048B0
:10091000801CFFF7EFFB207806287FF47DAF0720CF
:10092000BDE870400DF0D8BA03200DF0D5FA0220D2
:100930000EF0B8F92846FFF7DDFB2846BDE8704009
:10094000FFF7D2BD0F2019E0A878FFF79DFED0E990
:1009500000232946104698470028BDD0A8780107F3
:10096000BAD000F00F010829B6D2BDE870400AF0F5
:10097000D3BC082002E0092000E00A200EF092F922
:100980002846BDE87040FFF7B5BB0000AC9A0120D7
:10099000F9EE0200C8B80120FFF7D0BE2DE9FC41F6
:1009A000234C00250095234EA0684FF4006728B91A
:1009B000211DF0690AF027F8A060C0B1818869B1F3
:1009C000C188B94200D3C580C188ADF80210C18882
:1009D000491CC1808188491E818022E0FFF7FCFE0E
:1009E0001349F069091D0AF003F8A5601CE0E068EE
:1009F00000281AD08DF8045001A800F0B7F96088DB
:100A0000B84200D365806088ADF80200401C608069
:100A1000074801210C300AF025F89DF8040000F089
:100A2000C9F96846FFF7D8FE0120BDE8FC81000047
:100A3000AC9A0120E8EE02000148FFF77FBE0000FB
:100A4000E8EE0200114642681368184770B5044684
:100A500040680D46C2680AB12046904720462946A4
:100A6000FFF7B6FC05464678002408E021462846F4
:100A7000FFF79CFC00780AF093FB641CE4B2B442DC
:100A8000F4D370BD2DE9F04180460E480E4605694D
:100A900014E02F7A00240DE021462846FFF798FC49
:100AA0000178414504D106B134702846BDE8F08193
:100AB000641CE4B2BC42EFD328680568002DE8D17D
:100AC0000020F3E7AC9A012070B504464068154653
:100AD0000E4683681BB120469847062803D120465E
:100AE00031460DB1072070BDFFF772FC0546467810
:100AF000002408E021462846FFF758FC0078FFF75D
:100B0000D1FD641CE4B2B442F4D3002070BD0346AE
:100B100000205A681269002A01D018461047704711
:100B20002DE9F8432E4C054608234FF484722B49D7
:100B3000E06909F03FFF10B10320BDE8F8832948C0
:100B40000AF074FD0028F8D127490870086148614F
:100B500048212648FEF75FFC244848214830FEF72C
:100B60005AFC224878307DB195E80E00183080E8B4
:100B70000E0000200AF092F918B1852801D0FFF785
:100B8000DBF91B4D002611E004F130010EC9EDE741
:100B9000002703E000782946FFF7AFFD3946781CAF
:100BA000C7B24046FFF702FC0028F3D13146701C63
:100BB000C6B22846FFF70CFC5FEA0008E8D160687F
:100BC00000906946284606F0FDFF040003D00AF0B5
:100BD00095FE2046B1E70020AFE7000030B70120C6
:100BE000E8EE020099090200AC9A012038B8012011
:100BF000A8EF020030B1012807D0022808D105482B
:100C0000FFF79CBD03480838FAE70248001FF7E7E2
:100C10007047000010EF020010B50AF053FD10B14C
:100C20000AF046FD08B1082010BD04480AF085F915
:100C300008B1FFF781F9002010BD000014EF020099
:100C400070B50C460F4901EB800555F8240001787A
:100C500031B10020FFF7F8FC002255F8241006E01F
:100C6000801C70BD521CD2B2491C20F812300B7887
:100C7000002BF7D1022101EB4201C9B241F44071CE
:100C8000018070BDF49A012070B54FF0805086B09D
:100C9000D0F8A810D0F8A40089B241F440430090E5
:100CA00009A20D2101A8FEF783FE01AD0024094E23
:100CB00002E0285D3055641C2846FEF7B7FBA042D1
:100CC000F7D806B070BD00002530345825303858AC
:100CD000000000002CB90120074803E0016811F072
:100CE000010F07D00168C1F340010029F6D0034885
:100CF000FFF724BD7047000038040040EDEE02000D
:100D0000034808B5806800906846FFF717FD08BDE6
:100D1000E8EE02004FF0000118B1052803D30020CF
:100D20007047002003E0034A105C0028F8D0FFF76A
:100D300087BF000001F00200092808D2DFE800F0B8
:100D40000707050707050505050001207047002076
:100D50007047092808D2DFE800F0070705070707F2
:100D600007070500012070470020704730B5EFF3FA
:100D7000108172B60D4A9468012324B103700029D2
:100D800000D162B630BD93604FF0E023D3F88051BC
:100D9000074C25401560C3F88041D3F88441546066
:100DA0005A17C3F8842100220270E8E738B90120FD
:100DB000FC06FFBC0B498A68002A11D000280FD11D
:100DC000EFF3108072B60B684FF0E022C2F80031EA
:100DD0004B68C2F8043100228A60002800D162B654
:100DE0007047000038B9012070B5054608680C4608
:100DF000411C04D00AF0A0FE20680AF050FE606892
:100E0000411C02D000210AF038FE2968A069C1F80F
:100E10002405607D227D29681043C1F86C05D4E962
:100E200000122868C0F81425C0F80C15207D012890
:100E300014D1A068411C02D000210AF01EFEE06817
:100E4000411C04D00AF078FEE0680AF028FED4E9DC
:100E500002122868C0F80825C0F8101570BD70B5DA
:100E6000054608680C46411C04D00AF06FFE206855
:100E70000AF01FFE6068411C02D000210AF006FE45
:100E80002968A069C1F82405607D217D2A6808438E
:100E9000C2F86C05D4E900122868C0F80C15C0F837
:100EA0001425207D012814D1A068411C02D0002106
:100EB0000AF0ECFDE068411C04D00AF047FEE0684F
:100EC0000AF0F7FDD4E902122868C0F80825C0F836
:100ED000101570BD102802D31038C0B2704740F012
:100EE00080007047F8B51646070010D07EB173B188
:100EF0001C460D460DF0D3FB002807D10548009095
:100F0000231D32462946384606F0E2FEF8BD0E2083
:100F1000F8BD0000E1100200F8B51646070010D039
:100F20007EB173B11C460D460DF01AFC002807D1A6
:100F300005480090631C32462946384608F006FFF3
:100F4000F8BD0E20F8BD00001D110200F8B51D46C9
:100F500017460E000FD075B168B104460DF00DFCB8
:100F6000002807D1054800902B463A463146601CC0
:100F700008F03CFFF8BD0E20F8BD00004F11020044
:100F800038B568B162B15BB11C466B460DF0E8FB49
:100F9000002804D19DF8001001F00101217038BD36
:100FA0000E2038BD08B551B14BB140B1007800F00A
:100FB00001008DF8000068460DF0DFFB08BD0E2033
:100FC00008BD00002DE9F84316465FEA00082BD063
:100FD00056B34BB3164F1C460D46009708F0B6FEAD
:100FE000002822D1631C324629464046009708F06B
:100FF000ADFE002819D1A31C3246294640460DF00B
:10100000AFFB002811D1E31C3246294640460DF0C3
:10101000A7FB002809D101B0231D324629464046CE
:10102000BDE8F0430DF09CBB0E20BDE8F883000046
:10103000D56A02002DE9F8431D4690460E002AD0DD
:101040004DB340B3154F0446009708F0CFFE00287B
:1010500022D12B4642463146601C009708F0C6FE5E
:10106000002819D12B4642463146A01C0DF085FBC5
:10107000002811D12B4642463146E01C0DF07DFB85
:10108000002809D101B02B4642463146201DBDE85B
:10109000F0430DF072BB0E20BDE8F883136B020025
:1010A0002DE9F0411646070017D0B6B1ABB11C468A
:1010B0000D460DF055FB002810D1631C3246294621
:1010C00038460DF04DFB002808D1A31C32462946B6
:1010D0003846BDE8F0410DF043BB0E20BDE8F0817D
:1010E0002DE9F84316465FEA000812D08EB183B1AD
:1010F000094F1C460D46009708F028FE002806D12F
:10110000E31C324629464046009708F01FFEBDE822
:10111000F8830E20FBE70000A11002002DE9F0414A
:101120001546060010D07DB173B11F460C465B1CFE
:101130000DF016FB002808D13B462A4621463046D2
:10114000BDE8F0410DF00CBB0E20BDE8F0812DE9AB
:10115000F0411C4616460D000FD074B168B1074629
:10116000401C0DF00AFB002808D1234632462946D0
:101170003846BDE8F0410DF000BB0E20BDE8F0811F
:10118000F8B5144606000D461ED0ECB100200090C4
:10119000631C6A4630460DF0E3FA002813D123465B
:1011A0006A46294630460DF0DBFA00280BD1631D54
:1011B0006A46294630460DF0D3FA002803D100993B
:1011C000A94200D00920F8BD0E20F8BD17B581B0A6
:1011D000144669B164B1002000906B4601A82268F2
:1011E0000DF09DFA002801D10099216004B010BDD6
:1011F0000E20FBE7F8B5164607002AD04EB343B3DE
:10120000154800901C460D46384608F09FFD002802
:101210001ED11248009004F1080332462946384690
:1012200008F094FD002813D10D48009004F110033C
:1012300032462946384608F089FD002808D1094879
:10124000009004F1140332462946384608F07EFD2A
:10125000F8BD0E20F8BD0000E50E0200B12102002D
:10126000E74002003D5802001CB50C4640B12CB1CD
:1012700000210191037801A9602B03D007201CBD38
:101280000E201CBD01230193074B009313460A4611
:10129000214606F01DFD0028F3D10198A04201D09F
:1012A00009201CBD00201CBDF511020013460A4692
:1012B000014660200BF0B0BE30B4C2B1BBB1B0B1DA
:1012C0000488202C7DD015DC36D2DFE804F03539D7
:1012D0003F3C423535353535353535353535666341
:1012E000454B4E546C576F515A605DB169480E20A2
:1012F00030BC70473A2C65D00ADCA4F130040A2CCB
:101300001AD2DFE804F062715659775C68746E6532
:10131000532C75D008DC3B2C60D0502C79D0512C4C
:101320007AD0522C08D17AE0542C6FD0552C79D039
:10133000562C68D0702C78D0062000211960D7E791
:1013400030BC00F0D7B830BC00F007B930BC00F0BA
:1013500050B930BC00F072B830BC01F085B930BC77
:1013600001F0BAB930BC01F09FBC30BC01F02CBC1C
:1013700030BC01F0D1B830BC01F06CBB30BC01F026
:1013800097B830BC01F0FCB930BC01F0A7BB30BC51
:1013900001F022BD30BC01F099BA30BC01F036BA80
:1013A00030BC01F0C7BC30BC01F0DBBA30BC01F08E
:1013B0000BBB30BC03F0D6B830BC03F011BA30BC64
:1013C00001E038E019E003F03FB930BC03F03CBB6A
:1013D00030BC03F0C9BA30BC03F0A6BB30BC03F08C
:1013E00087BC30BC03F0D6BC30BC03F00DBC30BCB5
:1013F00003F096B930BC03F02DB830BC03F062BAEC
:1014000030BC04F079BA30BC04F0C4BB30BC04F08A
:1014100057BB30BC04F0FEBB30BC04F0D1BA30BCCA
:1014200004F078BB30BC04F027BA30BC05F046B9F4
:1014300030BC00F0BFBF30BC01F084BB2DE9FC41E3
:101440001E46154604002BD055B34EB32088042801
:1014500002D00720BDE8FC810020009037680420FE
:10146000E846ADF8040043463A46294601A80DF087
:1014700025F90028EED143463A462946201D0DF0B5
:101480001DF90028E6D114F1080029463A464346E2
:1014900006D000F007F80028DCD100993160D9E7C8
:1014A0000E20D7E72DE9F0411D4617460E001ED04D
:1014B000EDB1E0B104460DF001F9002818D12B463A
:1014C0003A463146A01C0DF0F9F8002810D12B4601
:1014D0003A463146201D0DF0F1F8002808D12B4680
:1014E0003A463146A01DBDE8F0410DF0E7B80E20A8
:1014F000BDE8F0812DE9FC411D461646040007D0E9
:1015000036B12DB12088012804D00720BDE8FC8128
:101510000E20FBE7002000902F680120E846ADF880
:10152000040043463A46314601A80DF0C7F80028AA
:10153000ECD143463A463146201D0DF0BFF8002855
:10154000E4D143463A46314604F108000DF015F95E
:101550000028DBD100992960D8E72DE9FE431D461C
:101560001646040007D036B12DB12088032804D0D8
:101570000720BDE8FE830E20FBE700270197D5F882
:10158000008003200DF10409ADF808004B464246E7
:10159000314602A80DF092F80028EAD14B464246A7
:1015A0003146201D0DF08AF80028E2D14B46424614
:1015B000314604F108000DF0E0F80028D9D14B467F
:1015C0004246314604F110000DF078F80028D0D1E1
:1015D00000974B4642463146E06806F0A7FB0028DC
:1015E000C7D1A08806F054FC0028C2D10199296017
:1015F000BFE72DE9FC411D461646040007D036B171
:101600002DB12088022804D00720BDE8FC810E20DF
:10161000FBE7002000902F680220E846ADF80400A8
:1016200043463A46314601A80DF048F80028ECD16F
:1016300043463A463146201D0DF040F80028E4D1DB
:1016400043463A46314604F108000DF096F800286A
:10165000DBD100992960D8E77CB50C4640B12CB1AC
:1016600000230193057801A96D2D03D007207CBDCF
:101670000E207CBD0125CDE9003513460A462146E2
:1016800006F026FB0028F4D10198A04201D00920E1
:101690007CBD00207CBD2DE9FF4182B098461446F8
:1016A0000F0028D03CB30020009025686D206E46C6
:1016B0008DF8040033462A4601A80DF05EF8002894
:1016C00016D133462A46394602A80DF028F80028DC
:1016D0000ED1029848B95FEA080039462A463346D7
:1016E00009D000F05BF8002802D1009820600020AB
:1016F00006B0BDE8F0810E20FAE700001CB50C46EC
:1017000040B12CB100210191037801A96C2B03D0C9
:1017100007201CBD0E201CBD01230193074B009325
:1017200013460A46214606F0D3FA0028F3D1019861
:10173000A04201D009201CBD00201CBD4D17020095
:1017400013460A4601466C200BF066BC2DE9FC41AD
:101750001646070020D0FEB1F3B11C460D4601AB82
:101760000CF0FEFF002815D106200090631C3246C5
:10177000294638460DF00EF800280BD19DF80420BC
:10178000217862F3000121709DF80420520862F371
:1017900047012170BDE8FC810E20FBE72DE9FC41EB
:1017A0001D4617460E0013D095B188B10446007847
:1017B0008DF8040001A80CF0E0FF002806D13B469C
:1017C00032460621601C00950CF0FAFFBDE8FC8152
:1017D0000E20FBE738B5D0B1CAB1C3B11C466B4689
:1017E0000CF0BEFF002811D19DF80020217862F393
:1017F000000121709DF80020520862F34101217020
:101800009DF80020920862F38201217038BD0E20FD
:1018100038BD2DE9FC410C46DDE90886050023D0E2
:101820002CB100200190287801AF722802D0072047
:10183000BDE8FC8101200190B3B1AEB10093134625
:101840003A46284608F0A5FF0028F1D143463A461B
:1018500021462846009608F09CFF0028E8D1019810
:10186000A04203D00920E3E70E20E1E70020DFE7F4
:1018700013460A46014672200BF0CEBBF8B5164659
:10188000070037D0AEB3A3B31C460D460CF068FF7B
:1018900000282DD118480090231D3246294638468D
:1018A00006F016FA002823D104F10803324629462F
:1018B00038460CF055FF00281AD104F10A033246CD
:1018C000294638460CF0EBFE002811D104F10C0338
:1018D0003246294638460CF0E2FE002808D1074877
:1018E000009004F10E0332462946384608F01AFAF1
:1018F000F8BDFFE70E20FBE74D170200D5170200E9
:101900001CB50C46E8B12CB100210191037801A966
:10191000732B01D007201CBD012301938AB11368EA
:101920007BB15B686BB1094B009313460A462146B5
:1019300006F0CEF90028EED10198A04203D009208C
:101940001CBD0E201CBD00201CBD00007D18020027
:1019500013460A46014673200BF05EBB13460A4647
:10196000014674200BF058BB7CB50C46D0B12CB1AD
:1019700000230193057801A9792D01D007207CBDB2
:101980000125019572B1156865B1009313460A46A9
:10199000214606F09DF90028F1D10198A04203D01C
:1019A00009207CBD0E207CBD00207CBD2DE9FF41BF
:1019B00084B0984614460F0019D0C4B1002001909D
:1019C0002568792001AE8DF8080033462A4602A822
:1019D0000CF0D3FE00280BD133462A46394604A822
:1019E0000CF09DFE002803D1049870B903E00E208E
:1019F00008B0BDE8F0810748009033462A463946D2
:101A0000404606F093F90028F2D1019820600020AA
:101A1000EEE70000BDE6020038B50C46B8B12CB1C7
:101A20000021009103786946782B01D0072038BD4A
:101A3000012300935AB113460A4621460CF02FFEAB
:101A40000028F4D10098A04203D0092038BD0E2010
:101A500038BD002038BD13460A46014678200BF0F9
:101A6000DBBA2DE9FE431F46DDF828800C46050051
:101A700022D0F4B100200290287802AE802818D13C
:101A800001200290C2B1BFB11346324628460CF085
:101A900006FE00280ED13B463246214628460CF071
:101AA0005FFE002806D1387840B1012808D002280E
:101AB00008D00720BDE8FE830E20FBE7002202E0ED
:101AC000062200E01022009201924346324621464F
:101AD000284605F068FB0028ECD10298A04201D00E
:101AE0000920E7E70020E5E713460A460146802083
:101AF0000BF092BA2DE9FC411C460D46060025D09C
:101B00002DB100200190307801AF7E2802D007204F
:101B1000BDE8FC8101200190C2B1BCB12068A8B130
:101B200013463A4630460CF0BAFD0028F0D1094879
:101B3000009023463A462946304606F0C9F8002868
:101B4000E6D10198A84203D00920E1E70E20DFE7A3
:101B50000020DDE7793D020013460A4601467E205B
:101B60000BF05ABA2DE9FC411C460D46060025D063
:101B70002DB100200190307801AF752802D00720E8
:101B8000BDE8FC8101200190C2B1BCB12068A8B1C0
:101B900013463A4630460CF082FD0028F0D1094841
:101BA000009023463A462946304606F091F8002830
:101BB000E6D10198A84203D00920E1E70E20DFE733
:101BC0000020DDE7D51B020013460A4601467520BA
:101BD0000BF022BA2DE9F041164607001FD0F6B1EE
:101BE000EBB11C460D460CF05AFD002818D1A31C81
:101BF0003246294638460CF052FD002810D1231DEC
:101C00003246294638460CF04AFD002808D1A31D6B
:101C1000324629463846BDE8F0410CF040BD0E2062
:101C2000BDE8F0812DE9F0411D4617460E001ED09B
:101C3000EDB1E0B104460CF041FD002818D12B466F
:101C40003A463146A01C0CF039FD002810D12B4635
:101C50003A463146201D0CF031FD002808D12B46B4
:101C60003A463146A01DBDE8F0410CF027BD0E20DC
:101C7000BDE8F0812DE9FC4198460C46050021D0D5
:101C80002CB100260196287801AF872802D00720C2
:101C9000BDE8FC8101200190A2B113463A462846D6
:101CA0000CF0FDFC0028F3D143463A462146284675
:101CB000009606F00DF80028EAD10198A04203D062
:101CC0000920E5E70E20E3E70020E1E72DE9FF41E9
:101CD00084B01C46150088461AD0CCB10020019073
:101CE0002668872001AF8DF808003B46324629461A
:101CF00002A80CF042FD00280BD13B463246294693
:101D000004A80CF00CFD002803D1049870B903E07E
:101D10000E2008B0BDE8F081064800903B463246F0
:101D20002946404606F002F80028F2D101982060CA
:101D30000020EEE7851D020038B5A0B19AB193B13D
:101D40001C466B460CF00CFD00280BD19DF80020C2
:101D5000217862F3030121709DF80020120962F3DB
:101D60000711217038BD0E2038BD08B541B13BB117
:101D700030B100788DF8000068460CF0FEFC08BD1C
:101D80000E2008BDF8B51D4617460E0012D08DB1C5
:101D900080B1044608480090204607F0F5FF00286F
:101DA00009D101B02B463A463146601CBDE8F040EF
:101DB0000CF0E3BC0E20F8BD6B1D020013460A4672
:101DC00001468D200BF028B92DE9FC411D46089CE9
:101DD0000E46070037D036B10020019038780DF15B
:101DE00004088C2802D00720BDE8FC810120019066
:101DF0004AB3106838B335B3286820B31CB32068E1
:101E000008B31348134600904246384605F060FF79
:101E10000028E9D10F4800902B464246314638460B
:101E200005F056FF0028DFD10B48009023464246BC
:101E30003146384605F04CFF0028D5D10198B04214
:101E400003D00920D0E70E20CEE70020CCE7000029
:101E50004D170200D5380200D51B020013460A4672
:101E600001468C200BF0D8B82DE9FF5F1D460E9F70
:101E7000144688465FEA000942D0B8F1000F07D047
:101E8000002602A8CDE9010699F800006F2803D0CA
:101E9000072004B0BDE8F09F012002907CB32068C9
:101EA00068B3006858B355B3286840B3006830B3CE
:101EB0003B4641464846019A0CF052FC0028E8D1C6
:101EC00003AB41464846019A0CF04AFC0028E0D199
:101ED0009DF80C00012815D0266003AB414648460A
:101EE000019A0CF03DFC0028D3D19DF80C0001288C
:101EF0001ED02E60029941452DD00920C9E7FFE789
:101F00000E20C6E7D4F800A00024DFF850B00BE0A4
:101F10000AEB8403CDF800B041464846019A05F02B
:101F2000D7FE0028B5D1641C3878A042F0D8D4E799
:101F30002D6800240A4E0AE005EB84030096414612
:101F40004846019A05F0C4FE0028A2D1641C3878E6
:101F5000A042F1D8CEE700209BE70000412E02000E
:101F6000C12E020013460A4601466F200BF054B8FA
:101F70002DE9FC4190460C46050022D02CB10026EC
:101F80000196287801AF7D2802D00720BDE8FC81AA
:101F900001200190ABB10D4800903A46284605F06B
:101FA00097FE0028F2D143463A462146284600963D
:101FB00005F08EFE0028E9D10198A04203D0092047
:101FC000E4E70E20E2E70020E0E700009FE60200E1
:101FD0002DE9FF4383B01E000E9C154689461BD099
:101FE000D4B100200190D4F800807D2001AF8DF89D
:101FF00008003B464246314602A80CF0BEFB0028D2
:102000000BD13B464246314603A80CF088FB002822
:1020100003D10398C0B903E00E2007B0BDE8F083F8
:102020000B4800903B4642463146284605F07EFE6E
:102030000028F2D145B100972988434632464846E8
:102040000CF0BEFB0028E8D1019820600020E4E7F6
:10205000BDE602002DE9FC419846089E0C460500AD
:1020600027D02CB100200190287801AF7C2802D025
:102070000720BDE8FC8101200190D2B1B8F1000F2A
:1020800017D0B6B10D48134600903A46284605F0E1
:102090001FFE0028EDD143463A46214628460096C9
:1020A00008F047FB0028E4D10198A04203D00920A2
:1020B000DFE70E20DDE70020DBE70000391D02002E
:1020C00013460A4601467C200AF0A6BF2DE9FE43CE
:1020D00016465FEA000836D0A6B39BB35F891B485B
:1020E00000901C460D46404607F01CFE002827D1F4
:1020F00002AB3246294640460CF032FB00281FD185
:102100009DF8080004F1080300F0030060703246F7
:10211000294640460CF0C3FA002811D104F10A0305
:102120003246294640460CF0BAFA002808D12089E8
:10213000231DCDE9007032462946404605F033F8AC
:10214000BDE8FE83FFE70E20FAE70000391D02001C
:10215000F8B51F460C46050020D02CB10020009099
:1021600028786E46762801D00720F8BD012000901F
:10217000A2B19FB11346324628460CF090FA0028CF
:10218000F3D13B463246214628460CF0E9FA0028B6
:10219000EBD10098A04203D00920F8BD0E20F8BD75
:1021A0000020F8BD13460A46014676200AF034BFE7
:1021B000F8B51646070020D0FEB1F3B11C460D4617
:1021C0000CF0CEFA002817D1631C32462946384657
:1021D0000CF0C6FA00280FD1A31C32462946384617
:1021E0000CF0BEFA002807D105480090231D3246A6
:1021F0002946384605F06CFDF8BD0E20F8BD0000FC
:10220000CD2002002DE9FC411646070020D0FEB18A
:10221000F3B1102000901C460D4638460CF0BAFA77
:10222000002813D101AB3246294638460CF098FA03
:1022300000280BD19DF80410227C4B0861F30002AA
:1022400063F34102890861F387022274BDE8FC81CF
:102250000E20FBE72DE9FC411D4617460E001DD060
:10226000E5B1D8B113460A460446102100950CF09A
:10227000A7FA002810D1207C2B46C0F3400201466B
:1022800062F35F0120F0030001438DF804103A4629
:10229000314601A80CF071FABDE8FC810E20FBE785
:1022A000F8B51646070014D09EB193B10A480090C5
:1022B0001C460D46384607F035FD002808D1074872
:1022C000009004F1120332462946384607F02AFDF1
:1022D000F8BD0E20F8BD0000052202001D320200EC
:1022E000F8B51D4617460E0013D095B188B10446C7
:1022F00009480090204607F047FD002808D107480C
:1023000000902B463A46314604F1120007F03CFD9E
:10231000F8BD0E20F8BD0000552202004B3202002D
:102320002DE9FC411D46089C0E46070033D036B10E
:102330000020019038780DF10408852802D007208C
:10234000BDE8FC81012001902AB324B31DB32068AD
:1023500008B32868F8B11346424638460CF09FF996
:102360000028EDD10E4800902B46424631463846B3
:1023700005F0AEFC0028E3D10A480090234642460F
:102380003146384605F0A4FC0028D9D10198B04266
:1023900003D00920D4E70E20D2E70020D0E70000C8
:1023A0001D3202000522020013460A46014685201E
:1023B0000AF032BE2DE9FE431D461646040007D042
:1023C00036B12DB120881D2804D00720BDE8FE833A
:1023D0000E20FBE7002001902F681D200DF104085E
:1023E000ADF8080043463A46314602A80CF066F9BB
:1023F0000028EBD143463A463146201D0CF05EF9E9
:102400000028E3D10648009043463A46314604F19D
:10241000080007F0AFFC0028D8D101992960D5E762
:10242000252402002DE9FC471D4691460E003AD0B6
:10243000C5B3B8B30446C07B1C4FC0F3410201468C
:1024400062F35F018DF804104FEAD0084A46314626
:102450002046009707F098FC002821D12B464A46D9
:102460003146E01D009707F08FFC002818D12B465D
:102470004A46314604F10E000CF07FF900280FD1D6
:102480002B464A46314601A80CF077F9002807D1BF
:102490004B463246414604F11000009508F091F990
:1024A000BDE8FC87FFE70E20FAE700009D17020059
:1024B0002DE9FC411D461646040007D036B12DB16A
:1024C0002088172804D00720BDE8FC810E20FBE7F8
:1024D000002000902F681720E846ADF8040043461E
:1024E0003A46314601A80CF0E9F80028ECD1434601
:1024F0003A463146201D0CF0E1F80028E4D143466D
:102500003A46314604F108000CF037F90028DBD1D7
:1025100000992960D8E700002DE9FF411D461646C5
:10252000040008D03EB135B12088192805D0072015
:1025300004B0BDE8F0810E20FAE7002001902F687A
:1025400019200DF10408ADF8080043463A4631461B
:1025500002A80CF0B3F80028EAD143463A463146C7
:10256000201D0CF0ABF80028E2D11648009043463D
:102570003A46314604F1080007F0FCFB0028D7D1A9
:10258000A08803A905F02EFC18B10020019929604C
:10259000CEE70D48009003980C49C0EB001000EB0B
:1025A000800001EB800043463A463146001D07F0AB
:1025B000E1FB0028BCD1A08805F0F6FB0028E5D09F
:1025C000B6E70000D1250200FD3B020044B901201E
:1025D0002DE9FC411D4690460E003ED0E5B3D8B330
:1025E00004464078C0F3800161F39F008DF8040039
:1025F000314620460CF0C1F800282BD12B4642462C
:10260000314601A80CF0B9F8002823D1144F2B460D
:1026100042463146A01C009707F0B6FB002819D1AE
:102620002B4642463146E01C009707F0ADFB0028E0
:1026300010D10C4F2B4642463146201D009707F023
:10264000A3FB002806D12B4642463146601D009769
:1026500007F09AFBBDE8FC81FFE70E20FAE70000D7
:10266000393C0200AF3A02002DE9FE431D461646F2
:10267000040007D036B12DB12088122804D00720DD
:10268000BDE8FE830E20FBE7002001902F6812209A
:102690000DF10408ADF8080043463A46314602A859
:1026A0000CF00CF80028EBD143463A463146201D89
:1026B0000CF004F80028E3D10648009043463A465F
:1026C000314604F1080007F055FB0028D8D10199E4
:1026D0002960D5E7652702002DE9FE431D46164611
:1026E000040007D036B12DB120881F2804D0072060
:1026F000BDE8FE830E20FBE7002001902F681F201D
:102700000DF10408ADF8080043463A46314602A8E8
:102710000BF0D4FF0028EBD143463A463146201D4A
:102720000BF0CCFF0028E3D10648009043463A4620
:10273000314604F1080007F01DFB0028D8D10199AB
:102740002960D5E74927020038B531B12BB120B156
:10275000034C009407F018FB38BD0E2038BD000074
:10276000251C020038B531B12BB120B1034C0094C7
:1027700007F00AFB38BD0E2038BD0000251C020002
:102780002DE9FE431D461646040007D036B12DB193
:1027900020881A2804D00720BDE8FE830E20FBE71E
:1027A000002001902F681A200DF10408ADF80800F0
:1027B00043463A46314602A80BF080FF0028EBD191
:1027C00043463A463146201D0BF078FF0028E3D1FE
:1027D0000648009043463A46314604F1080007F0A7
:1027E000C9FA0028D8D101992960D5E7F12702005C
:1027F00038B531B12BB120B1034C009407F0C4FAC5
:1028000038BD0E2038BD0000851D02002DE9FE43B5
:102810001D461646040007D036B12DB12088102879
:1028200004D00720BDE8FE830E20FBE700200190C6
:102830002F6810200DF10408ADF8080043463A4611
:10284000314602A80BF03AFF0028EBD143463A4646
:102850003146201D0BF032FF0028E3D106480090DE
:1028600043463A46314604F1080007F083FA00284F
:10287000D8D101992960D5E77D280200F8B51D4619
:1028800017460E001BD0D5B1C8B104460D480090C4
:10289000204607F079FA002810D12B463A463146F7
:1028A000E01D0BF06AFF002808D1074800902B4676
:1028B0003A46314604F1080007F066FAF8BD0E20EA
:1028C000F8BD00009D170200251C02002DE9FF4104
:1028D0001D461646040008D03EB135B120881128A7
:1028E00005D0072004B0BDE8F0810E20FAE70020F3
:1028F00001902F6811200DF10408ADF8080043463F
:102900003A46314602A80BF0D9FE0028EAD14346E8
:102910003A463146201D0BF0D1FE0028E2D10C488A
:10292000009043463A46314604F1080007F022FA87
:102930000028D7D1A08803A905F054FA20B9A088AF
:1029400005F032FA0028CDD1019900202960C9E7AD
:102950005529020019B113B108B10BF00EBF0E20BA
:1029600070472DE9FC411D461646040007D036B1DC
:102970002DB12088162804D00720BDE8FC810E2048
:10298000FBE7002000902F681620E846ADF8040011
:1029900043463A46314601A80BF090FE0028ECD1A0
:1029A00043463A463146201D0BF088FE0028E4D10C
:1029B00043463A46314604F108000BF0DEFE00289B
:1029C000DBD100992960D8E72DE9FF411D46164665
:1029D000040008D03EB135B12088182805D0072062
:1029E00004B0BDE8F0810E20FAE7002001902F68C6
:1029F00018200DF10408ADF8080043463A46314668
:102A000002A80BF05BFE0028EAD1207B434600F0D1
:102A100001008DF80C003A463146201D0BF04EFEA9
:102A20000028DDD10A48009043463A463146A06866
:102A300005F07CF90028D3D143463A46314603A835
:102A40000BF09BFE0028CBD101992960C8E700005C
:102A5000033202002DE9FF411D46904604000AD0D2
:102A6000B8F1000F07D035B12088152805D0072010
:102A700004B0BDE8F0810E20FAE7002001902F6835
:102A8000152001AEADF8080033463A46414602A88B
:102A90000BF014FE0028EBD1A07B334600F00100C0
:102AA0008DF80C003A464146201D0BF007FE002829
:102AB000DED13B464246062104F1080000960BF0A9
:102AC0007FFE0028D4D133463A46414603A80BF096
:102AD00054FE0028CCD101992960C9E72DE9FC41B9
:102AE0001D461646040007D036B12DB120881C289B
:102AF00004D00720BDE8FC810E20FBE700200090F9
:102B00002F681C20E846ADF8040043463A4631469B
:102B100001A80BF0D3FD0028ECD143463A463146DC
:102B2000201D0BF0CBFD0028E4D143463A46314648
:102B300004F108000BF021FE0028DBD10099296088
:102B4000D8E700002DE9FE431D461646040007D0D5
:102B500036B12DB12088202804D00720BDE8FE839F
:102B60000E20FBE7002001902F6820200DF10408C3
:102B7000ADF8080043463A46314602A80BF09EFDE8
:102B80000028EBD143463A463146201D0BF096FD16
:102B90000028E3D10B48009043463A46314604F101
:102BA000090007F0E7F80028D8D143463A463146F5
:102BB00004F108000BF0E1FD0028CFD10199296054
:102BC000CCE700009D1702002DE9FE431D46164686
:102BD000040007D036B12DB12088142804D0072076
:102BE000BDE8FE830E20FBE7002001902F68142033
:102BF0000DF10408ADF8080043463A46314602A8F4
:102C00000BF05CFD0028EBD143463A463146201DCF
:102C10000BF054FD0028E3D10648009043463A46A5
:102C2000314604F1080007F0A5F80028D8D1019931
:102C30002960D5E7392C02002DE9FC411D461746D5
:102C40000E002AD04DB340B30446807CC0F340024E
:102C5000014662F35F01C0F3800041EA80008DF815
:102C600004000F4800903A463146204607F08CF8A1
:102C7000002810D10B4800902B463A46314604F10B
:102C8000080007F081F8002805D12B463A46314666
:102C900001A80BF072FDBDE8FC810E20FBE70000EF
:102CA0009D1702004B3202002DE9FE431D461646D9
:102CB000040007D036B12DB12088132804D0072096
:102CC000BDE8FE830E20FBE7002001902F68132053
:102CD0000DF10408ADF8080043463A46314602A813
:102CE0000BF0ECFC0028EBD143463A463146201D60
:102CF0000BF0E4FC0028E3D10648009043463A4636
:102D0000314604F1080007F035F80028D8D10199C0
:102D10002960D5E7192D020038B531B12BB120B1AA
:102D2000034C009407F030F838BD0E2038BD000089
:102D3000353E02002DE9FE431D461646040007D02D
:102D400036B12DB120881E2804D00720BDE8FE83AF
:102D50000E20FBE7002001902F681E200DF10408D3
:102D6000ADF8080043463A46314602A80BF0A6FCEF
:102D70000028EBD143463A463146201D0BF09EFC1D
:102D80000028E3D10648009043463A46314604F114
:102D9000080006F0EFFF0028D8D101992960D5E797
:102DA000A52D020038B5A9B1A3B198B10078C0F340
:102DB0004005044665F35F04C0F3800544EA8504DA
:102DC000C0F3C00044EAC0008DF8000068460BF074
:102DD000D4FC38BD0E2038BD2DE9FC411D461646F9
:102DE000040007D036B12DB120881B2804D007205D
:102DF000BDE8FC810E20FBE7002000902F681B201F
:102E0000E846ADF8040043463A46314601A80BF0C7
:102E100055FC0028ECD143463A463146201D0BF0C4
:102E20004DFC0028E4D143463A46314604F10800FF
:102E30000BF0A3FC0028DBD100992960D8E7000043
:102E4000F8B51646070014D09EB193B10A48009019
:102E50001C460D46384606F065FF002808D1074895
:102E6000009004F1100332462946384606F05AFF16
:102E7000F8BD0E20F8BD0000C12E02004D17020063
:102E8000F8B51D4617460E0013D095B188B104461B
:102E900009480090204606F077FF002808D107482F
:102EA00000902B463A46314604F1100006F06CFFC4
:102EB000F8BD0E20F8BD0000D72E02009D170200BD
:102EC00038B530B12AB123B1102400940BF062FC64
:102ED00038BD0E2038BD08B541B13BB130B10093CB
:102EE00013460A4610210BF06BFC08BD0E2008BDEE
:102EF000F8B51F460C46050020D02CB100200090EC
:102F000028786E46822801D00720F8BD0120009065
:102F1000A2B19FB11346324628460BF0C0FB0028F1
:102F2000F3D13B463246214628460BF019FC0028D7
:102F3000EBD10098A04203D00920F8BD0E20F8BDC7
:102F40000020F8BD13460A46014682200AF064B804
:102F50002DE9FC411F460C46050023D02CB1002072
:102F60000190287801AE812802D00720BDE8FC81BD
:102F700001200190B2B1AFB11346324628460BF0A2
:102F80008EFB0028F2D1094800903B46324621468C
:102F9000284604F09DFE0028E8D10198A04203D005
:102FA0000920E3E70E20E1E70020DFE7BD2F020064
:102FB00013460A46014681200AF02EB838B530B1D2
:102FC0002AB123B1202400940BF0E4FB38BD0E207D
:102FD00038BD00002DE9FC479846DDF828900C46E6
:102FE000050031D02CB100260196287801AF832846
:102FF00002D00720BDE8FC870120019022B35FEAE0
:10300000090021D0B8F1000F1ED013463A462846D9
:103010000BF045FB0028EDD10D48009043463A46A1
:103020002146284604F054FE0028E3D14B463A4698
:1030300021462846009604F04BFE0028DAD101987C
:10304000A04203D00920D5E70E20D3E70020D1E726
:10305000ED3102002DE9FF4184B01C461500884681
:103060001AD0CCB1002001902668832001AF8DF8E2
:1030700008003B463246294602A80BF07EFB00289A
:103080000BD13B463246294604A80BF048FB0028EA
:1030900003D1049870B903E00E2008B0BDE8F081B8
:1030A000064800903B4632462946404604F03EFE24
:1030B0000028F2D1019820600020EEE7A131020043
:1030C0002DE9FC479846DDF828900C46050031D0E4
:1030D0002CB100200190287801AE842802D007206E
:1030E000BDE8FC870120019022B3B8F1000F21D088
:1030F0005FEA09001ED01346324628460BF0CFFA8D
:103100000028EDD10D4F4346324621462846009710
:1031100004F0DEFD0028E3D14B4632462146284626
:10312000009704F0D5FD0028DAD10198A04203D021
:103130000920D5E70E20D3E70020D1E74D3102006A
:1031400013460A460146842009F066BF2DE9F8437C
:1031500016465FEA00081ED0EEB1E3B10F480090BA
:103160001C460D46404606F0DDFD002811D1102713
:10317000E31D32462946404600970BF00BFB002822
:1031800007D104F1170332462946404600970BF059
:1031900001FBBDE8F8830E20FBE700004D1702009D
:1031A000F8B51D4617460E001BD0D5B1C8B1044670
:1031B0000D480090204606F0E7FD002810D13B4660
:1031C00032461021E01D00950BF0FAFA002807D1D5
:1031D0003B463246102104F1170000950BF0F0FA3F
:1031E000F8BD0E20F8BD00009D17020038B530B1C3
:1031F0002AB123B1402400940BF0CCFA38BD0E2044
:1032000038BD08B541B13BB130B1009313460A4611
:1032100040210BF0D5FA08BD0E2008BDF8B51646C2
:10322000070010D07EB173B11C460D460BF037FA83
:10323000002807D108200090A31C324629463846B2
:103240000BF0A8FAF8BD0E20F8BDF8B51D461746DC
:103250000E000ED06DB160B104460BF02FFA0028BD
:1032600006D13B4632460821A01C00950BF0A8FA77
:10327000F8BD0E20F8BD2DE9F041164607000FD02D
:1032800076B16BB11C460D460BF009FA002808D147
:10329000A31C324629463846BDE8F0410BF0FFB981
:1032A0000E20BDE8F0812DE9F0411D4617460E00C5
:1032B0000ED06DB160B104460BF000FA002808D1C1
:1032C0002B463A463146A01CBDE8F0410BF0F6B95A
:1032D0000E20BDE8F081F8B51646070010D07EB18B
:1032E00073B11C460D460BF0DAF9002807D1052012
:1032F0000090A31C3246294638460BF04BFAF8BD25
:103300000E20F8BDF8B51D4617460E000ED06DB163
:1033100060B104460BF0D2F9002806D13B46324694
:103320000521A01C00950BF04BFAF8BD0E20F8BD4E
:1033300038B568B162B15BB11C466B460BF010FA50
:10334000002804D19DF8001001F00101217038BD62
:103350000E2038BD08B551B14BB140B1007800F036
:1033600001008DF8000068460BF007FA08BD0E203A
:1033700008BD18B112B10BB10BF0F2B90E207047B5
:1033800019B113B108B10BF0F8B90E207047000065
:10339000F8B51646070018D0BEB1B3B11C460D46AD
:1033A0000BF07DF900280FD1A31C32462946384680
:1033B0000BF075F9002807D105480090231D32460F
:1033C0002946384604F084FCF8BD0E20F8BD000004
:1033D0009FE60200F8B51D4617460E0017D0B5B19E
:1033E000A8B104460BF06AF900280FD12B463A46E3
:1033F0003146A01C0BF062F9002807D10548009067
:103400002B463A463146606804F090FCF8BD0E2029
:10341000F8BD0000BDE602001CB538B132B12BB1D9
:1034200006240094019403F0BEFE1CBD0E201CBDBA
:1034300008B549B143B138B1009313460A46006854
:10344000062103F0E2FE08BD0E2008BD38B568B1C4
:1034500062B15BB11C466B460BF082F9002804D1C7
:103460009DF8001001F00101217038BD0E2038BD1B
:1034700008B551B14BB140B1007800F001008DF8B2
:10348000000068460BF079F908BD0E2008BD7CB538
:103490000C46E0B12CB100230193057801A97B2DE6
:1034A00001D007207CBD0125019582B1156875B159
:1034B000022C0AD3009313460A46214604F008FC66
:1034C0000028EFD10198A04203D009207CBD0E2036
:1034D0007CBD00207CBD00002DE9FF4184B09846F2
:1034E00014460F0019D0C4B10020019025687B203C
:1034F00001AE8DF8080033462A4602A80BF03DF9CC
:1035000000280BD133462A46394604A80BF007F9A8
:10351000002803D1049870B903E00E2008B0BDE87C
:10352000F0810748009033462A463946404604F069
:10353000FDFB0028F2D1019820600020EEE700009A
:10354000251C02001CB50C46C8B12CB1002101910C
:10355000037801A97A2B01D007201CBD0123019318
:103560006AB1094B009313460A46214604F0B0FBAA
:103570000028F2D10198A04203D009201CBD0E20E2
:103580001CBD00201CBD0000D51B020013460A46CE
:1035900001467A2009F040BD1CB50C4640B12CB163
:1035A00000210191037801A9712B03D007201CBDD4
:1035B0000E201CBD01230193074B009313460A46BE
:1035C000214604F085FB0028F3D10198A04201D0E8
:1035D00009201CBD00201CBD493602002DE9FF4119
:1035E00084B0984614460F0019D0C4B10020019051
:1035F0002568712001AE8DF8080033462A4602A8DE
:103600000BF0BBF800280BD133462A46394604A8F4
:103610000BF085F8002803D1049870B903E00E2060
:1036200008B0BDE8F0810748009033462A46394685
:10363000404604F07BFB0028F2D101982060002076
:10364000EEE700009D360200F8B51646070020D0D0
:10365000FEB1F3B11C460D460BF082F8002817D1DD
:10366000631C3246294638460BF07AF800280FD101
:10367000A31C3246294638460BF011F8002807D122
:1036800005480090231D32462946384604F020FBA9
:10369000F8BD0E20F8BD0000C12E0200F8B51D4691
:1036A00017460E001FD0F5B1E8B104460BF065F8DF
:1036B000002817D12B463A463146601C0BF05DF8C6
:1036C00000280FD12B463A463146A01C0AF0F6FFDF
:1036D000002807D1054800902B463A4631466068DD
:1036E00004F024FBF8BD0E20F8BD0000D72E020028
:1036F0001CB50C4640B12CB100210191037801A901
:10370000702B03D007201CBD0E201CBD012301938C
:10371000074B009313460A46214604F0D9FA0028C5
:10372000F3D10198A04201D009201CBD00201CBD8E
:103730004936020013460A460146702009F06CBC67
:103740002DE9FC411C460D46060025D035B1002769
:10375000019730780DF104088E2802D00720BDE8CB
:10376000FC8101200190BAB1B4B12068A0B1134628
:10377000424630460AF093FF0028F0D123464246E5
:1037800029463046009704F0A3FA0028E7D10198B3
:10379000A84203D00920E2E70E20E0E70020DEE7A0
:1037A0002DE9FF4184B0984614460F0019D0C4B1EA
:1037B0000020019025688E2001AE8DF80800334668
:1037C0002A4602A80AF0D9FF00280BD133462A4620
:1037D000394604A80AF0A3FF002803D1049870B961
:1037E00003E00E2008B0BDE8F081074800903346A2
:1037F0002A463946404604F099FA0028F2D1019849
:1038000020600020EEE700007BE702002DE9F8438E
:103810001F46DDF820800C4605002CD02CB100207E
:10382000009028786E46882802D00720BDE8F883EB
:1038300001200090FAB1F7B15FEA08001BD01346EF
:10384000324628460AF02BFF0028EFD13B4632468D
:10385000214628460AF084FF0028E7D14346324635
:10386000214628460AF07CFF0028DFD10098A042BC
:1038700003D00920DAE70E20D8E70020D6E7134668
:103880000A460146882009F0C7BB38B50C46B8B1D6
:103890002CB10021009103786946892B01D00720C3
:1038A00038BD012300935AB113460A4621460AF057
:1038B000F6FE0028F4D10098A04203D0092038BDBC
:1038C0000E2038BD002038BD13460A460146892027
:1038D00009F0A2BBF8B51646070032D086B37BB319
:1038E0001C460D466B460AF03BFF002827D19DF889
:1038F00000102078A31C61F3000020709DF80010D8
:103900003246490861F3410020709DF80010890893
:1039100061F382002070294638460AF0C0FE002874
:103920000DD1231D3246294638460AF0B8FE00283C
:1039300005D1A31D3246294638460AF0B0FEF8BD2F
:10394000FFE70E20FBE700001CB50C46D8B12CB1F8
:1039500000210191037801A98A2B01D007201CBD09
:10396000012301937AB113686BB1094B009313469D
:103970000A46214604F0ACF90028F0D10198A04293
:1039800003D009201CBD0E201CBD00201CBD000062
:10399000D538020013460A4601468A2009F03CBB8E
:1039A00013460A4601468B2009F036BB2DE9FC4739
:1039B0001E46DDE90A540F465FEA000842D03FB1D7
:1039C0000020019098F800000DF10409862802D02B
:1039D0000720BDE8FC870120019092B38EB385B328
:1039E0007CB3306868B3286858B3206848B313467E
:1039F0004A4640460AF053FE0028EAD11348009098
:103A000033464A463946404604F062F90028E0D180
:103A10000F4800902B464A463946404604F058F974
:103A20000028D6D10B48009023464A4639464046E6
:103A300004F04EF90028CCD10198B84204D00920F6
:103A4000C7E7FFE70E20C4E70020C2E70522020017
:103A5000C12E0200D53E020013460A4601468620CA
:103A600009F0DABA38B500B3FAB1F3B11C466B46C7
:103A70000AF076FE002817D19DF80020217862F325
:103A8000000121709DF80020520862F3410121706D
:103A90009DF80020920862F3820121709DF80020B9
:103AA000D20862F3C301217038BD0E2038BD38B58D
:103AB000A9B1A3B198B10078C0F34005044665F3FD
:103AC0005F04C0F3800544EA8504C0F3C00044EA03
:103AD000C0008DF8000068460AF04FFE38BD0E2089
:103AE00038BD0000F8B51646070029D046B33BB3F1
:103AF000144800901C460D46384604F0E9F80028AA
:103B00001DD111480090231D32462946384604F045
:103B1000DFF8002813D10D48009004F10803324665
:103B20002946384604F0D4F8002808D10848009007
:103B300004F10C0332462946384604F0C9F8F8BDB2
:103B40000E20F8BDA1220200412E0200D53E020047
:103B5000ED310200F8B51D4617460E0026D02DB3F4
:103B600020B3044612480090206804F0DFF80028D3
:103B70001BD1104800902B463A463146606804F04D
:103B8000D5F8002811D10C4800902B463A46314612
:103B9000A06804F0CBF8002807D1084800902B4615
:103BA0003A463146E06804F0C1F8F8BD0E20F8BD91
:103BB000E1220200812E0200EB3E020003320200ED
:103BC0002DE9F84316465FEA000813D096B18BB191
:103BD000094F1C460D46009706F0A4F8002807D1AF
:103BE00004F11003324629464046009706F09AF841
:103BF000BDE8F8830E20FBE7E53A02002DE9F84323
:103C00001D4690460E0012D08DB180B1094F04467A
:103C1000009706F0B9F8002807D12B4642463146F6
:103C200004F11000009706F0AFF8BDE8F8830E200D
:103C3000FBE70000553B020038B5A9B1A3B198B12C
:103C40000078C0F34005044665F35F04C0F38005C7
:103C500044EA8504C0F3C00044EAC0008DF80000C7
:103C600068460AF08AFD38BD0E2038BD2DE9FC47B4
:103C70009846DDE90A540E4607003FD036B10020D1
:103C8000019038780DF104097F2802D00720BDE8A3
:103C9000FC870120019082B3B8F1000F2ED065B3EC
:103CA000286850B34CB3206838B313464A463846A8
:103CB0000AF0F5FC0028EAD143464A463146384628
:103CC0000AF04EFD0028E2D10E4800902B464A46ED
:103CD0003146384603F0FCFF0028D8D10A4800904E
:103CE00023464A463146384603F0F2FF0028CED13B
:103CF0000198B04204D00920C9E7FFE70E20C6E7CB
:103D00000020C4E7793D0200C13B02002DE9FF41DC
:103D100084B0984614460F0019D0C4B10020019019
:103D200025687F2001AE8DF8080033462A4602A898
:103D30000AF023FD00280BD133462A46394604A851
:103D40000AF0EDFC002803D1049870B903E00E20BE
:103D500008B0BDE8F0810748009033462A4639464E
:103D6000404603F0E3FF0028F2D1019820600020D4
:103D7000EEE70000FD3B02002DE9FC4116465FEA3C
:103D8000000853D0002E51D0002B4FD01C460D46BA
:103D900001AB0AF0E5FC002846D1631C32462946F7
:103DA00040460AF0DDFC00283ED1A31C32462946DD
:103DB00040460AF0D5FC002836D11D4FE31C3246A0
:103DC00029464046009705F0ADFF00282CD1231D61
:103DD000324629464046009705F0A4FF002823D12B
:103DE0009DF80420217862F3000121709DF80420E1
:103DF000520862F3410121709DF80420920862F399
:103E0000820121709DF80420D20862F3C301217061
:103E10009DF80420120962F3061121709DF8042018
:103E2000D20962F3C7112170BDE8FC810E20FBE7C7
:103E3000653A02002DE9FC411D4690460E0045D032
:103E4000F5B3E8B304460078C0F34002014662F3DC
:103E50005F01C0F3800241EA8201C0F3C00241EA7F
:103E6000C201C0F3021241EA021120F07F000143B7
:103E70008DF804104246314601A80AF07EFC002865
:103E800022D12B4642463146601C0AF076FC0028BF
:103E90001AD12B4642463146A01C0AF06EFC00287F
:103EA00012D10B4F2B4642463146E01C009705F0DD
:103EB0006BFF002808D12B4642463146201D00E00A
:103EC00004E0009705F060FFBDE8FC810E20FBE7F1
:103ED000AF3A020038B530B12AB123B110240094B2
:103EE0000AF058FC38BD0E2038BD08B541B13BB1D1
:103EF00030B1009313460A4610210AF061FC08BD58
:103F00000E2008BD38B50C46B8B12CB10021009187
:103F100003786946772B01D0072038BD0123009331
:103F20005AB113460A4621460AF01AFC0028F4D179
:103F30000098A04203D0092038BD0E2038BD0020D3
:103F400038BD13460A460146772009F065B80000DF
:103F50002DE9FE4F1446060098460D4629D035B18E
:103F60000027019730780DF1040A6E2802D007204F
:103F7000BDE8FE8F01200190DCB12068C8B1006867
:103F8000B8B1524630460AF0EBFB0028F0D102AB44
:103F90005246294630460AF0E3FB0028E8D19DF856
:103FA0000800012807D027600198A84219D00920ED
:103FB000DEE70E20DCE727680024DFF82C900BE01A
:103FC00007EB8403524629463046CDF8009003F0B3
:103FD0007FFE0028CCD1641C98F80000A042EFD8E6
:103FE000E2E70020C4E700004D17020013460A462E
:103FF00001466E2009F010B838B5A0B19AB193B15E
:104000001C466B460AF0ACFB00280BD19DF8002043
:10401000217862F3000121709DF80020520862F3BC
:104020004101217038BD0E2038BD38B590B38AB338
:1040300083B31C466B460AF093FB002829D19DF8F8
:104040000020217862F3000121709DF800205208C1
:1040500062F3410121709DF80020920862F3820111
:1040600021709DF80020D20862F3C30121709DF8F1
:104070000020120962F3041121709DF800205209FA
:1040800062F3451121709DF80020920962F38611B8
:10409000217038BDFFE70E20FBE738B509B303B345
:1040A000F8B10078C0F34005044665F35F04C0F33F
:1040B000800544EA8504C0F3C00544EAC504C0F3A2
:1040C000001544EA0514C0F3401544EA4514C0F352
:1040D000801044EA80108DF8000068460AF04DFB1D
:1040E00038BD0E2038BD18B112B10BB10AF0D7BAE5
:1040F0000E207047F8B51D4617460E000FD075B15B
:1041000068B104460AF0DAFA002807D105480090A1
:104110002B463A463146A01C05F04AFEF8BD0E205B
:10412000F8BD0000B76C0200F8B51D4617460E003A
:104130000FD075B168B104460AF0C0FA002807D163
:10414000054800902B463A463146A01C05F030FE4B
:10415000F8BD0E20F8BD0000D16E02002DE9FC4133
:104160001C460D46060025D02DB100200190307868
:1041700001AF982802D00720BDE8FC810120019002
:10418000C2B1BCB12068A8B113463A4630460AF025
:1041900086FA0028F0D10948009023463A4629467D
:1041A000304603F095FD0028E6D10198A84203D0DF
:1041B0000920E1E70E20DFE70020DDE7E34E020003
:1041C00013460A460146982008F026BF2DE9FC4117
:1041D0001D4617460E0032D085B378B30446194801
:1041E0000090204605F0E4FD002825D116480090F7
:1041F0002B463A463146201D05F0DAFD00281BD13A
:1042000060792B4600F001008DF804003A463146F3
:1042100001A80AF0B2FA00280ED12B463A463146E0
:10422000A01D0AF04BFA002806D12B463A4631462B
:1042300004F108000AF042FABDE8FC81FFE70E2015
:10424000FAE70000D16E02009B4002002DE9FC411C
:104250001D46089C0E46070033D036B10020019061
:1042600038780DF10408992802D00720BDE8FC81B8
:10427000012001902AB325B3286810B30CB320683D
:10428000F8B11346424638460AF009FA0028EDD143
:104290000E4800902B4642463146384603F018FD42
:1042A0000028E3D10A48009023464246314638466A
:1042B00003F00EFD0028D9D10198B04203D00920A7
:1042C000D4E70E20D2E70020D0E70000A16E020064
:1042D000E34E020013460A460146992008F09CBEB0
:1042E0002DE9FC411C46089F0D46060026D035B13D
:1042F0000020019030780DF104089B2802D007209F
:10430000BDE8FC8101200190C2B1BCB12068A8B118
:10431000A7B11346424630460AF0C1F90028EFD152
:104320002346424629463046009704F06FFF002896
:10433000E6D10198A84203D00920E1E70E20DFE78B
:104340000020DDE713460A4601469B2008F064BEC4
:104350002DE9FC411F460C46050009D02CB1002078
:104360000190287801AE962804D00720BDE8FC8192
:104370000E20FBE7012013460190324628460AF042
:104380008EF90028F2D1084800903B46324621467B
:10439000284603F09DFC0028E8D10198A04201D0F6
:1043A0000920E3E70020E1E7E34E020013460A4656
:1043B0000146962008F030BEF8B51D4617460E009F
:1043C0000FD075B168B104460AF078F9002807D11A
:1043D000054800902B463A463146A01C05F0E8FC03
:1043E000F8BD0E20F8BD0000D16E02002DE9FC41A1
:1043F0001F460C46050009D02CB1002001902878FA
:1044000001AE972804D00720BDE8FC810E20FBE711
:10441000012013460190324628460AF040F9002850
:10442000F2D1084800903B4632462146284603F028
:104430004FFC0028E8D10198A04201D00920E3E711
:104440000020E1E7E34E020013460A4601469720AA
:1044500008F0E2BD2DE9FE431D461646040007D0D4
:1044600036B12DB12088342804D00720BDE8FE8362
:104470000E20FBE7002001902F6834200DF1040886
:10448000ADF8080043463A46314602A80AF016F94C
:104490000028EBD143463A463146201D0AF00EF97A
:1044A0000028E3D143463A463146A01D0AF006F9FA
:1044B0000028DBD143463A46314604F108000AF0B1
:1044C000FDF80028D2D10748009043463A463146CD
:1044D00004F10A0005F062FC0028C7D101992960A7
:1044E000C4E70000E94402002DE9F8431F46914665
:1044F0005FEA010814D09FB190B104460AF0DEF8DB
:1045000000280ED13B464A464146A01C0AF035F928
:10451000002806D1A178012905D0104E002515E00C
:104520000E20BDE8F8830E4EF8E7A078012811D0E0
:1045300005EBC50004EB4000001D3B464A464146E2
:10454000009605F035FC0028EBD16D1C2188A942AE
:10455000EBD8E6E705EB4500ECE70000F54002008C
:10456000294102002DE9FE431D461646040007D0EE
:1045700036B12DB12088322804D00720BDE8FE8353
:104580000E20FBE7002001902F6832200DF1040877
:10459000ADF8080043463A46314602A80AF08EF8C4
:1045A0000028EBD143463A463146201D0AF086F8F2
:1045B0000028E3D143463A463146A01D0AF07EF872
:1045C0000028DBD143463A46314604F108000AF0A0
:1045D00075F80028D2D10748009043463A46314644
:1045E00004F10A0005F0DAFB0028C7D1019929601F
:1045F000C4E70000F94502002DE9F8431E46914644
:104600005FEA010809D046B138B104460AF056F80D
:10461000002803D100250B4F10E00E20BDE8F883E1
:1046200005EB850004EB400033464A464146801CBA
:10463000009705F0BDFB0028F0D16D1C2188A94230
:10464000EED8EBE7CD4102002DE9FE431D461646AC
:10465000040007D036B12DB12088352804D00720BA
:10466000BDE8FE830E20FBE7002001902F68352077
:104670000DF10408ADF8080043463A46314602A859
:104680000AF01CF80028EBD143463A463146201D7B
:104690000AF014F80028E3D143463A463146A01DFB
:1046A0000AF00CF80028DBD143463A46314604F1C3
:1046B00008000AF003F80028D2D1074800904346CA
:1046C0003A46314604F10A0005F068FB0028C7D1DC
:1046D00001992960C4E70000DD460200F8B51D46D7
:1046E00017460E001AD0CDB1C0B1044609F0E6FF5E
:1046F000002812D12B463A463146A01C09F0DEFFB5
:1047000000280AD160882188801C484381B23B463A
:104710003246201D00950AF053F8F8BD0E20F8BD72
:104720002DE9FE431D461646040007D036B12DB1D3
:104730002088372804D00720BDE8FE830E20FBE741
:10474000002001902F6837200DF10408ADF8080013
:1047500043463A46314602A809F0B0FF0028EBD1A3
:1047600043463A463146201D09F0A8FF0028E3D110
:1047700043463A463146A01D09F0A0FF0028DBD190
:1047800043463A46314604F1080009F097FF0028F5
:10479000D2D10748009043463A46314604F10A0018
:1047A00005F0FCFA0028C7D101992960C4E7000090
:1047B000B5470200F8B51D4617460E000ED06DB184
:1047C00060B1044609F07AFF002806D100952188DF
:1047D0003B463246A01C09F0F3FFF8BD0E20F8BDA1
:1047E0002DE9FE431D461646040007D036B12DB113
:1047F0002088332804D00720BDE8FE830E20FBE785
:10480000002001902F6833200DF10408ADF8080056
:1048100043463A46314602A809F050FF0028EBD142
:1048200043463A463146201D09F048FF0028E3D1AF
:1048300043463A463146A01D09F040FF0028DBD12F
:1048400043463A46314604F1080009F037FF002894
:10485000D2D10748009043463A46314604F10A0057
:1048600005F09CFA0028C7D101992960C4E700002F
:10487000754802002DE9F8431E4691465FEA01089B
:1048800009D046B138B1044609F018FF002803D119
:1048900000250B4F10E00E20BDE8F88305EB450026
:1048A00004EB400033464A464146801C009705F021
:1048B0007FFA0028F0D16D1C2188A942EED8EBE7E1
:1048C000B94302002DE9FE431D461646040007D0F9
:1048D00036B12DB120883A2804D00720BDE8FE83E8
:1048E0000E20FBE7002001902F683A200DF104080C
:1048F000ADF8080043463A46314602A809F0DEFE0C
:104900000028EBD143463A463146201D09F0D6FE39
:104910000028E3D143463A463146A01D09F0CEFEB9
:104920000028DBD143463A46314604F1080009F03D
:10493000C5FE0028D2D10748009043463A4631468A
:1049400004F10A0005F02AFA0028C7D1019929606C
:10495000C4E700005949020019B113B108B109F0C8
:10496000ADBE0E20704700002DE9FE431D461646E1
:10497000040007D036B12DB12088392804D0072093
:10498000BDE8FE830E20FBE7002001902F68392050
:104990000DF10408ADF8080043463A46314602A836
:1049A00009F08CFE0028EBD143463A463146201DE3
:1049B00009F084FE0028E3D143463A463146A01D63
:1049C00009F07CFE0028DBD143463A46314604F12B
:1049D000080009F073FE0028D2D107480090434632
:1049E0003A46314604F10A0005F0D8F90028C7D14B
:1049F00001992960C4E70000FD490200F8B51D4691
:104A000017460E001ED0EDB1E0B1044609F056FE87
:104A1000002816D12B463A463146A01C09F0ADFEBF
:104A200000280ED12B463A463146201D09F046FE9D
:104A3000002806D10095A1883B463246A01D09F00A
:104A4000BFFEF8BD0E20F8BD2DE9FE431D461646FB
:104A5000040007D036B12DB12088302804D00720BB
:104A6000BDE8FE830E20FBE7002001902F68302078
:104A70000DF10408ADF8080043463A46314602A855
:104A800009F01CFE0028EBD143463A463146201D72
:104A900009F014FE0028E3D143463A463146A01DF2
:104AA00009F00CFE0028DBD143463A46314604F1BA
:104AB000080009F003FE0028D2D1074800904346C1
:104AC0003A46314604F10A0005F068F90028C7D1DA
