:020000040002F8
:1060000078CF0020156202001D6202001F620200AC
:1060100021620200236202002562020000000000EB
:1060200000000000000000000000000027620200E5
:1060300029620200000000002B6202002D620200B3
:10604000716302002F620200456702002F620200A6
:106050002F6202002F6202002F6202002F620200F4
:106060002F6202002F620200116702002F620200FD
:106070002F6202002F6202002F6202002F620200D4
:106080002F620200C96302002F6202002F62020029
:10609000ED6302002F620200F16302002F62020032
:1060A0002F6202002F6202002F6202002F620200A4
:1060B0002F6202002F6202000000000000000000BA
:1060C0002F6202002F6202002F6202002F62020084
:1060D0002F6202002F6202002F6202000000000007
:1060E00000000000000000000000000000000000B0
:1060F00000000000000000000000000000000000A0
:10610000000000000000000000000000000000008F
:10611000000000000000000000000000000000007F
:10612000000000000000000000000000000000006F
:10613000000000000000000000000000000000005F
:10614000000000000000000000000000000000004F
:10615000000000000000000000000000000000003F
:10616000000000000000000000000000000000002F
:10617000000000000000000000000000000000001F
:10618000000000000000000000000000000000000F
:1061900000000000000000000000000000000000FF
:1061A00000000000000000000000000000000000EF
:1061B00000000000000000000000000000000000DF
:1061C00000000000000000000000000000000000CF
:1061D00000000000000000000000000000000000BF
:1061E00000000000000000000000000000000000AF
:1061F000000000000000000000000000000000009F
:10620000DFF80CD000F04AF800480047B50803005A
:1062100078CF00200648804706480047FEE7FEE7A3
:10622000FEE7FEE7FEE7FEE7FEE7FEE7FEE7FEE746
:10623000F56302000162020040EA01039B0703D0FC
:1062400009E008C9121F08C0042AFAD203E011F8B5
:10625000013B00F8013B521EF9D27047D2B201E077
:1062600000F8012B491EFBD270470022F6E710B55B
:1062700013460A4604461946FFF7F0FF204610BDB4
:1062800030B504460020034600E05B1C934203D275
:10629000E05CCD5C401BF8D030BD0000064C074DE3
:1062A00006E0E06840F0010394E8070098471034E6
:1062B000AC42F6D3FFF7A8FF78340300983403000C
:1062C00070B58C1810F8015B15F0070301D110F8B8
:1062D000013B2A1106D110F8012B03E010F8016BE5
:1062E00001F8016B5B1EF9D12B0705D40023521E68
:1062F0000DD401F8013BFAE710F8013BCB1A921CD0
:1063000003E013F8015B01F8015B521EF9D5A142CD
:10631000D8D3002070BD00F01F0201219140400938
:10632000800000F1E020C0F88012704700F01F02EA
:10633000012191404009800000F1E020C0F8801266
:10634000704700F01F02012191404009800000F1D8
:10635000E020C0F80011704700F01F0201219140B9
:106360004009800000F1E020C0F8001270470000F2
:1063700070B54FF4807630460AF018FB114CB50525
:1063800060B130460AF019FB0120C5F808036079B6
:1063900020B9012060712168002088474FF482767F
:1063A00030460AF003FB00280AD030460AF005FB0D
:1063B0000220C5F808032168BDE8704001200847A5
:1063C00070BD0000F898002007480021C0F8401177
:1063D000C0F84411C0F84811C0F84C11C0F80011C1
:1063E000C0F804110CF046BA001001400CF0B4B92A
:1063F0000AF0B2BDF0B5B5480023021D0178101DAA
:1064000001254FF0805406290BD11678360708D1A4
:106410000678C6F30316032E06D0042E04D0052EEC
:1064200002D0062907D00EE0B4F82463A84FC6F3C3
:1064300004263E6002E01678360704D10678C6F3DB
:106440000316032E02D0062904D00FE0A24FA14E5E
:106450007E670EE01678360708D10678C6F3031675
:10646000032E06D0042E04D0052E02D0062907D014
:106470000EE0D4F84462994FC6F342363E6002E023
:106480001678360704D10678C6F30316032E02D019
:10649000062906D011E0924E376827F080773760E2
:1064A0000EE01678360708D10678C6F30316032ED9
:1064B00006D0042E04D0052E02D006290AD011E001
:1064C0004FF08046C6F80C31C6F81031834E361FA7
:1064D000336002E01678360704D10678C6F3031657
:1064E000032E02D0062905D00CE07C4F032664372A
:1064F0003E600AE01678360704D10678C6F3031624
:10650000032E02D006290DD014E0764F05263E60FA
:10651000744E78363560734E083633603F263F1D23
:106520003E6002E01678360704D10678C6F30316FB
:10653000052E02D0062957D062E06B4E36686B4FAD
:106540003E60694E361D36683F1D3E60664E083619
:1065500036683F1D3E60644E0C3636683F1D3E6017
:10656000614E103636683F1D3E605F4E1436366809
:106570003F1D3E605C4E183636685C4F20373E60EB
:10658000594E1C3636683F1D3E60574E20363668E1
:106590003F1D3E60544E243636683F1D3E60524ECD
:1065A000283636683F1D3E604F4E2C3636683F1DFC
:1065B0003E604D4E303636684C4F40373E604A4E56
:1065C000343636683F1D3E60474E383636683F1DCC
:1065D0003E60454E3C3636683F1D3E60424E40367A
:1065E00036683F1D3E6002E01678360708D106780F
:1065F000C6F30316032E06D0042E04D0052E02D0B7
:10660000062907D019E0D4F85812394A01F04F0191
:10661000116002E0117809070FD10078C0F3031070
:10662000032803D0042801D0052806D13148016889
:10663000C90702D06FF001010160D4F830010628CB
:1066400008D1D4F83401062804D12B48016841F45C
:106650008061016022487438016841F47001016072
:10666000BFF34F8FBFF36F8F4FF01021D1F80002AF
:10667000002803DBD1F80402002822DA1F4A156043
:106680001F480468002CFCD01524C1F8004205689E
:10669000002DFCD0C1F8044201680029FCD0136031
:1066A00001680029FCD0BFF34F8F0D48F038016816
:1066B000144A01F4E06111430160BFF34F8F00BF42
:1066C000FDE7124910480860F0BD0000E00F00F03F
:1066D000403501400DF0ADBA00C007403C05004018
:1066E000FCED00E0105600400404001020C50040FE
:1066F000E40E0040000400403C17004004E5014067
:1067000000E401400400FA050090D003489A0020FC
:106710000A48D0F8441101290ED1D0F80413890396
:106720000AD50021C0F844110121C1600448C27992
:106730000AB109F0CDBD01727047000000A0004011
:10674000D49900200148006800470000009900200B
:1067500002E008C8121F08C1002AFAD1704770472A
:10676000002001E001C1121F002AFBD17047000088
:106770000121202803DA81400548014003E0402838
:1067800002DA2038814009B10120704700207047AB
:10679000FC06FFBD082806D228B1012803D0042832
:1067A00001D0012070470020704700001CB50E4842
:1067B0000D4C90F830002834C0002070002060702C
:1067C000A070204609F05CFFE0700420ADF80400E2
:1067D00000220094114668460BF0EAFD002802D022
:1067E000002000F027F81CBDD499002038B50446DD
:1067F00000208DF80000684600F0FAF80A4884424C
:106800000CD0BFF34F8F09480168094A01F4E061D9
:1068100011430160BFF34F8F00BFFDE79DF80000FB
:1068200000F00AF938BD0000FECADDBA0CED00E048
:106830000400FA050EB500210091CDE901106A4669
:1068400044F20100FFF7D2FF0EBD00002DE9F84F22
:106850002C4C8146924660880E4681424FD80027D4
:106860004FF6FF788DF80070684600F0C1F8227886
:106870006078A188884201DA401C00E00020C0B2A4
:10688000904204D19DF8000000F0D6F835E065781C
:106890006078884201DA401C00E0002060702078B7
:1068A0006278824201D3101A02E0081A1044401C98
:1068B000E18880B2884200D9E0809DF8000000F0B5
:1068C000BBF8454519D0E068B9F1000F40F835A094
:1068D0000DD066B161882069324605FB010049464A
:1068E000FFF7AAFCE06800EBC500868002E000EB41
:1068F000C50087800020BDE8F88F0420FBE7092051
:10690000F9E700000899002010B50F4C03E0401C87
:1069100000E000202070A068002814D12078617861
:10692000814210D0227861882069E36802FB01006F
:1069300003EBC20153F83220898890472078A18860
:106940008842E6DAE3E710BD0899002030B5CB00B5
:1069500008339DB293074FF0000401D0072030BDEB
:10696000054BDA602A441A615C701C70588099806B
:10697000DC80002030BD00000899002008B5002010
:106980008DF80000684600F033F805498868421C1D
:1069900001D0401C88609DF8000000F04DF808BD53
:1069A00008990020074801784078064A8842928872
:1069B00001D3401A02E0511A0844401C101A80B258
:1069C000704700000899002008B500208DF80000ED
:1069D000684600F00DF80548816809B1491E8160DC
:1069E0009DF8000000F028F808BD0000089900207C
:1069F00030B5EFF3108172B60D4A9468012324B1CB
:106A00000370002900D162B630BD93604FF0E023DF
:106A1000D3F88051074C25401560C3F88041D3F866
:106A2000844154605A17C3F8842100220270E8E7B9
:106A3000D4A60020FC06FFBD0B498A68002A11D0AD
:106A400000280FD1EFF3108072B60B684FF0E022F0
:106A5000C2F800314B68C2F8043100228A60002875
:106A600000D162B670470000D4A600202DE9F041A5
:106A7000064608680C46411C4FF0A0474FF0010540
:106A800006D005FA00F1C7F8081520680AF0ECF8FE
:106A90006068411C02D000210AF0D4F83168A06976
:106AA000C1F82405607D227D31681043C1F86C0572
:106AB000D4E900123068C0F81425C0F80C15207D08
:106AC000012815D1A068411C02D000210AF0BAF8B3
:106AD000E068411C05D08540C7F80855E0680AF019
:106AE000C3F8D4E902123068C0F80825C0F81015C0
:106AF000BDE8F0812DE9F041064608680C46411CCE
:106B00004FF0A0474FF0010506D005FA00F1C7F895
:106B1000081520680AF0B2F86068411C02D0002114
:106B20000AF099F83168A069C1F82405607D217DDB
:106B300032680843C2F86C05D4E900123068C0F826
:106B40000C15C0F81425207D012815D1A068411C22
:106B500002D000210AF07FF8E068411C05D0854092
:106B6000C7F80855E0680AF089F8D4E902123068DD
:106B7000C0F80825C0F81015BDE8F0812DE9FC47E4
:106B80001D46070090460E460AD036B100240194F7
:106B900038780DF10409692804D00720BDE8FC8786
:106BA0000E20FBE70120134601904A4638460CF0C0
:106BB0008FF90028F2D12B464A46314638460094D8
:106BC00007F082F90028E9D12B68EBB30025D8F84B
:106BD00000002C4624281FD00CDC212815D004DC12
:106BE00001281BD020281DD10DE0222810D02328F9
:106BF00018D10FE0402813D041282DD0A0282DD047
:106C0000A1280FD12CE0184D00E0184D9C1C09E084
:106C1000174DFBE7174DF9E7174DF7E7174D00E064
:106C2000174D1C462038032806D84A4631463846B8
:106C30000CF086F90028B1D123464A463146384641
:106C4000009509F04FF800E001E00028A6D1019876
:106C5000B04207D00920A1E70A4DE2E70A4DE0E77C
:106C60000A4DDEE7002099E7EB79020025A8020033
:106C700091BC020053A5020065D002009D6C020089
:106C80008579020001790200FBB90200EDB902002A
:106C900013460A46014669200BF05EB818B112B1DE
:106CA0000BB10CF04DB90E20704738B568B162B128
:106CB0005BB11C466B460CF043F9002804D19DF8EB
:106CC000001001F00101217038BD0E2038BD08B55B
:106CD00051B14BB140B1007800F001008DF80000D7
:106CE00068460CF03AF908BD0E2008BD2DE9F843BE
:106CF00016465FEA00082BD056B34BB3164F1C461E
:106D00000D46009709F00CF8002822D1631C32468A
:106D100029464046009709F003F8002819D1A31C22
:106D20003246294640460CF00BF9002811D1E31CED
:106D30003246294640460CF003F9002809D101B03B
:106D4000231D324629464046BDE8F0430CF0F8B812
:106D50000E20BDE8F883000085D702002DE9F84336
:106D60001D4690460E002AD04DB340B3154F044641
:106D7000009709F02FF8002822D12B4642463146D1
:106D8000601C009709F026F8002819D12B464246CE
:106D90003146A01C0CF0E1F8002811D12B464246E8
:106DA0003146E01C0CF0D9F8002809D101B02B467F
:106DB00042463146201DBDE8F0430CF0CEB80E200F
:106DC000BDE8F883C3D702002DE9FC411646070051
:106DD0000DD066B15BB11C460D4601AB0CF078F8E6
:106DE000002805D1019840B1216819B105E00E20B5
:106DF000BDE8FC8107F0B6F82060201D0090234616
:106E000032462946384609F090FCF1E72DE9FC416D
:106E10001D4617460E0012D08DB180B104460068A1
:106E2000019001A80CF06BF8002806D10095A1880C
:106E30003B463246206809F090FCBDE8FC810E20FC
:106E4000FBE7F8B5144606000D461ED0ECB1002055
:106E50000090631C6A4630460CF072F8002813D18B
:106E600023466A46294630460CF06AF800280BD1C2
:106E7000631D6A46294630460CF062F8002803D1AB
:106E80000099A94200D00920F8BD0E20F8BD17B521
:106E900081B0144669B164B1002000906B4601A82E
:106EA00022680CF02CF8002801D10099216004B070
:106EB00010BD0E20FBE728B111B10078602803D087
:106EC000072070470E207047012901D00920704724
:106ED0000020704713460A46014660200AF03CBF76
:106EE00030B41AB313B308B30488332C7DD020DC3C
:106EF000332C7BD2DFE804F0FE5653FEFEFEFEFE8E
:106F0000FEFEFEFEFEFEFEFE7D77595F6268836B2D
:106F100086656E7471F8805CFB8C898F92FEFEFE34
:106F2000FEFEFEFEFEFEFEFEA5B495000E2030BC69
:106F30007047532C7DD018DC3A2C7BD008DCA4F1B0
:106F40003404062C52D2DFE804F09172828E887FDE
:106F5000502C70D004DC3B2C7CD03C2C46D190E0F3
:106F6000512C6AD0522C41D19DE0722C66D00EDC9F
:106F7000572C7DD006DC542C7BD0552C7AD0562C47
:106F800034D184E0702C76D0712C2FD197E0733CF3
:106F9000052C2BD2DFE804F0999C9FA2A50030BC01
:106FA00000F0ACB830BC00F0F5B830BC01F080BBEC
:106FB00030BC01F0B5BB30BC01F0B4BF30BC01F057
:106FC00041BF30BC01F0C6BA30BC01F0F3BD30BCEB
:106FD00001F08CBA30BC01F0F7BB30BC01F0ACBEA4
:106FE00030BC02F037B830BC01E01DE082E001F0B7
:106FF0001DBD30BC01F02EBC30BC01F0D9BF30BC8F
:1070000001F05FBD30BC01F08FBD30BC01F016BE99
:1070100030BC01F059BE30BC01F0D0BC30BC01F036
:1070200095BC30BC03F0DCBC30BC03F017BE30BCF8
:1070300005E029E022E030E00CE031E042E003F03E
:1070400041BD30BC03F03EBF30BC03F0CBBE30BC12
:1070500003F0A8BF30BC04F089B830BC04F01CB900
:1070600030BC04F00FB830BC03F098BD30BC03E076
:107070001FE00FE01AE01FE003F02ABC30BC03F071
:107080005FBE30BC04F0C3B830BC04F0B9BE30BC45
:1070900005F036B830BC04F0C9BF30BC05F070B89C
:1070A00030BC04F043BF30BC04F0EABF30BC04F095
:1070B00067BE30BC04F0E3BE30BC06F0A1B930BC02
:1070C00006F05AB930BC06F017B930BC06F035B836
:1070D00030BC06F0C5B830BC05F0F4BF30BC06F0DB
:1070E0005EB830BC06F0D6B930BC01F03DB930BC5A
:1070F00001F05EBE06200021196018E72DE9FE436D
:107100001D461646040007D036B12DB1208802284E
:1071100004D00720BDE8FE830E20FBE7002701977F
:10712000D5F8008002200DF10409ADF808004B46A7
:107130004246314602A80BF0B1FE0028EAD14B4688
:1071400042463146201D0BF0A9FE0028E2D14B46F5
:107150004246314604F108000BF0FFFE0028D9D169
:107160004B464246314604F110000BF097FE0028D2
:10717000D0D100974B4642463146E06806F0D2FE39
:107180000028C7D1A08806F0B9FF0028C2D1019914
:107190002960BFE72DE9FC411D461646040007D0D3
:1071A00036B12DB12088012804D00720BDE8FC812C
:1071B0000E20FBE7002000902F680120E846ADF884
:1071C000040043463A46314601A80BF067FE00280A
:1071D000ECD143463A463146201D0BF05FFE0028B5
:1071E000E4D143463A46314604F108000BF0B5FEBF
:1071F0000028DBD100992960D8E77CB50C4640B166
:107200002CB100230193057801A96D2D03D007202F
:107210007CBD0E207CBD0125CDE9003513460A4614
:10722000214606F051FE0028F4D10198A04201D079
:1072300009207CBD00207CBD2DE9FF4182B098462D
:1072400014460F0028D03CB30020009025686D2024
:107250006E468DF8040033462A4601A80BF07DFEE9
:10726000002816D133462A46394602A80BF047FEBD
:1072700000280ED1029848B95FEA080039462A462C
:10728000334609D000F05AF8002802D10098206057
:10729000002006B0BDE8F0810E20FAE71CB50C46D0
:1072A00040B12CB100210191037801A96C2B03D0CE
:1072B00007201CBD0E201CBD01230193074B00932A
:1072C00013460A46214606F0FFFD0028F3D1019837
:1072D000A04201D009201CBD00201CBDED7202009F
:1072E00013460A4601466C200AF036BD2DE9FC41E2
:1072F0001646070020D0FEB1F3B11C460D4601AB87
:107300000BF01EFE002815D106200090631C3246AB
:10731000294638460BF02EFE00280BD19DF804209C
:10732000217862F3000121709DF80420520862F375
:1073300047012170BDE8FC810E20FBE72DE9FC41EF
:107340001D4617460E0013D095B188B1044600784B
:107350008DF8040001A80BF000FE002806D13B4682
:1073600032460621601C00950BF01AFEBDE8FC8138
:107370000E20FBE72DE9F84316465FEA000813D01C
:1073800096B18BB1094F1C460D46009708F0B4FC2E
:10739000002807D104F108033246294640460097E9
:1073A00008F0AAFCBDE8F8830E20FBE7C96D0200D7
:1073B0002DE9FF41164607006ED0002E6CD0002B41
:1073C0006AD0364800901C460D46384608F094FCBA
:1073D00000285ED132480090231D324629463846A7
:1073E00006F072FD002854D104F108033246294604
:1073F00038460BF06DFD00284BD104F10C033246EA
:10740000294638460BF03BFD002842D104F10E031B
:107410003246294638460BF093FD002839D104F155
:107420000F00029005200090019002AB32462946E1
:10743000384606F03FFC00282BD104F114033246F5
:10744000294638460BF07CFD002822D104F11503B3
:107450003246294638460BF073FD002819D104F155
:1074600016033246294638460BF06AFD002810D133
:1074700003AB3246294638460BF062FD002808D19E
:107480009DF80C20E17D62F30301120962F30411FF
:10749000E17504B0BDE8F0810E20FAE7A5740200A2
:1074A000ED720200F8B51646070019D0C6B1BBB19F
:1074B0001C460D460BF044FD002810D16B463246A9
:1074C000294638460BF03CFD002808D19DF80020E5
:1074D000617862F30001520862F341016170F8BD06
:1074E0000E20F8BD38B501B3FBB1F0B10088C0F390
:1074F0004005044665F35F04C0F3800544EA850453
:10750000C0F3C00544EAC504C0F3001544EA0514FD
:10751000C0F3411544EA451420F07F000443ADF860
:10752000004068460BF0BAFC38BD0E2038BD0000A4
:107530002DE9FC411D46089C0E46070037D036B1A8
:107540000020019038780DF10408722802D007203D
:10755000BDE8FC81012001904AB3106838B335B30F
:10756000286820B31CB3206808B313481346009062
:107570004246384606F0A8FC0028E9D10F480090A2
:107580002B4642463146384606F09EFC0028DFD1A5
:107590000B480090234642463146384606F094FC9C
:1075A0000028D5D10198B04203D00920D0E70E20A1
:1075B000CEE70020CCE70000412F030075730200E6
:1075C000B17302002DE9FF4184B0984614460F00C4
:1075D00019D0C4B1002001902568722001AE8DF849
:1075E000080033462A4602A80BF0B7FC00280BD14E
:1075F00033462A46394604A80BF081FC002803D103
:10760000049870B903E00E2008B0BDE8F081074887
:10761000009033462A463946404606F083FC00284F
:10762000F2D1019820600020EEE700005B2F0300FC
:10763000F8B51F460C46050008D02CB1002000907C
:1076400028786E46732803D00720F8BD0E20F8BDB9
:10765000012013460090324628460BF071FC0028AA
:10766000F5D13B463246214628460BF069FC0028FE
:10767000EDD10098A04201D00920F8BD0020F8BD4E
:1076800013460A46014673200AF066BB38B50C461D
:1076900040B12CB10021009103786946742B03D0CE
:1076A000072038BD0E2038BD0123009313460A463B
:1076B00021460BF045FC0028F5D10098A04201D0EE
:1076C000092038BD002038BD13460A460146742003
:1076D0000AF042BB7CB50C46D0B12CB1002301931B
:1076E000057801A9792D01D007207CBD01250195E0
:1076F00072B1156865B1009313460A46214606F03B
:10770000E3FB0028F1D10198A04203D009207CBD01
:107710000E207CBD00207CBD2DE9FF4184B0984641
:1077200014460F0019D0C4B10020019025687920BB
:1077300001AE8DF8080033462A4602A80BF00DFC76
:1077400000280BD133462A46394604A80BF0D7FB54
:10775000002803D1049870B903E00E2008B0BDE8FA
:10776000F0810748009033462A463946404606F0E5
:10777000D9FB0028F2D1019820600020EEE700003C
:107780009D2E030038B50C46B8B12CB100210091F4
:1077900003786946782B01D0072038BD0123009378
:1077A0005AB113460A4621460BF069FB0028F4D172
:1077B0000098A04203D0092038BD0E2038BD00201B
:1077C00038BD13460A46014678200AF0C5BA2DE9AD
:1077D000FE431F46DDF828800C46050022D0F4B198
:1077E00000200290287802AE802818D10120029053
:1077F000C2B1BFB11346324628460BF040FB002809
:107800000ED13B463246214628460BF099FB002814
:1078100006D1387840B1012808D0022808D00720C6
:10782000BDE8FE830E20FBE7002202E0062200E016
:10783000102200920192434632462146284606F025
:1078400039FA0028ECD10298A04201D00920E7E7DC
:107850000020E5E713460A46014680200AF07CBA7C
:107860002DE9FC411C460D46060025D02DB1002017
:107870000190307801AF7E2802D00720BDE8FC815E
:1078800001200190C2B1BCB12068A8B113463A46AC
:1078900030460BF0F4FA0028F0D109480090234656
:1078A0003A462946304606F00FFB0028E6D10198FB
:1078B000A84203D00920E1E70E20DFE70020DDE742
:1078C000BDA1020013460A4601467E200AF044BAD2
:1078D0002DE9F0411D4617460E000ED06DB160B186
:1078E00004460BF0DBFA002808D12B463A46314615
:1078F000A01CBDE8F0410BF030BB0E20BDE8F081CC
:107900002DE9FE4316465FEA000836D0A6B39BB3C6
:107910005F891B4800901C460D46404608F0ECF974
:10792000002827D102AB3246294640460BF008FB1F
:1079300000281FD19DF8080004F1080300F003009F
:1079400060703246294640460BF099FA002811D162
:1079500004F10A033246294640460BF090FA00280B
:1079600008D12089231DCDE90070324629464046C2
:1079700006F0A0F9BDE8FE83FFE70E20FAE700005D
:10798000F17B0200F8B5164607002CD05EB353B366
:107990001C460D465B1C0BF0D3FA002822D1A31C19
:1079A0003246294638460BF0CBFA00281AD1E31CA0
:1079B0003246294638460BF0C3FA002812D1234636
:1079C0003246294638460BF0BBFA00280AD16B46EE
:1079D0003246294638460BF0B3FA002802D19DF80A
:1079E00000102171F8BD0E20F8BD2DE9F0411646BA
:1079F00007000FD076B16BB11C460D460BF0A0FA14
:107A0000002808D1A31C324629463846BDE8F0417B
:107A10000BF035BA0E20BDE8F08100002DE9FC41E5
:107A20001C460D46060025D02DB10020019030786F
:107A300001AF752802D00720BDE8FC81012001902C
:107A4000C2B1BCB12068A8B113463A4630460BF02B
:107A500016FA0028F0D10948009023463A462946F4
:107A6000304606F031FA0028E6D10198A84203D04A
:107A70000920E1E70E20DFE70020DDE78D7A020034
:107A800013460A46014675200AF066B92DE9F04111
:107A9000164607001FD0F6B1EBB11C460D460BF0A1
:107AA000EEF9002818D1A31C3246294638460BF0BF
:107AB000E6F9002810D1231D3246294638460BF03E
:107AC000DEF9002808D1A31D324629463846BDE814
:107AD000F0410BF0D4B90E20BDE8F0812DE9F04162
:107AE0001D4617460E001ED0EDB1E0B104460BF066
:107AF000D5F9002818D12B463A463146A01C0BF088
:107B0000CDF9002810D12B463A463146201D0BF006
:107B1000C5F9002808D12B463A463146A01DBDE8DC
:107B2000F0410BF0BBB90E20BDE8F0812DE9FC411E
:107B300098460C46050021D02CB1002601962878E5
:107B400001AF872802D00720BDE8FC810120019009
:107B5000A2B113463A4628460BF091F90028F3D11A
:107B600043463A4621462846009606F0ADF90028DD
:107B7000EAD10198A04203D00920E5E70E20E3E70F
:107B80000020E1E72DE9FF4184B01C46150088463E
:107B90001AD0CCB1002001902668872001AF8DF863
:107BA00008003B463246294602A80BF0D6F90028C9
:107BB0000BD13B463246294604A80BF0A0F9002819
:107BC00003D1049870B903E00E2008B0BDE8F0813D
:107BD000064800903B4632462946404606F0A2F948
:107BE0000028F2D1019820600020EEE73D7C0200E1
:107BF00038B5A0B19AB193B11C466B460BF0A0F911
:107C000000280BD19DF80020217862F30301217038
:107C10009DF80020120962F30711217038BD0E2073
:107C200038BD08B541B13BB130B100788DF80000E6
:107C300068460BF092F908BD0E2008BDF8B51D4648
:107C400017460E0012D08DB180B10446084800904E
:107C5000204608F083F8002809D101B02B463A46A7
:107C60003146601CBDE8F0400BF077B90E20F8BD3E
:107C7000237C020013460A4601468D200AF06CB8A8
:107C80002DE9FC471D46DDE90A490E46070040D0B4
:107C900036B10020019038780DF104088C2802D00C
:107CA0000720BDE8FC87012001908AB3106878B3F3
:107CB00075B3286860B35CB3206848B317481346AF
:107CC00000904246384606F0FFF80028E9D11448F3
:107CD00000902B4642463146384606F0F5F800281B
:107CE000DFD110480090234642463146384606F020
:107CF000EBF80028D5D14B464246314638460BF0CA
:107D00001FF90028CDD10198B04204D00920C8E75E
:107D1000FFE70E20C5E70020C3E70000ED72020078
:107D2000B99C02008D7A020013460A4601468C2057
:107D30000AF012B82DE9F0411D4617460E0016D084
:107D4000ADB1A0B104460BF0A9F8002810D12B4624
:107D50003A463146A01C0BF0A1F8002808D12B466A
:107D60003A463146201DBDE8F0410BF097B80E2091
:107D7000BDE8F0812DE9F041164607001FD0F6B1AD
:107D8000EBB11C460D460BF07AF8002818D1A31C65
:107D90003246294638460BF072F8002810D1231DD0
:107DA0003246294638460BF06AF8002808D1A31D50
:107DB000324629463846BDE8F0410BF060B80E2047
:107DC000BDE8F0812DE9F0411D4617460E001ED09A
:107DD000EDB1E0B104460BF061F8002818D12B4654
:107DE0003A463146A01C0BF059F8002810D12B461A
:107DF0003A463146201D0BF051F8002808D12B4699
:107E00003A463146A01DBDE8F0410BF047B80E20C0
:107E1000BDE8F0812DE9FC479846DDF828900C4636
:107E2000050009D02CB100260196287801AF9028D2
:107E300004D00720BDE8FC870E20FBE70120134695
:107E400001903A4628460BF01AF80028F2D10D4866
:107E5000009043463A462146284606F035F8002869
:107E6000E8D14B463A4621462846009606F02CF8C3
:107E70000028DFD10198A04201D00920DAE70020D4
:107E8000D8E70000757D02002DE9FF4184B09846D7
:107E900014460F0019D0C4B100200190256890202D
:107EA00001AE8DF8080033462A4602A80BF055F8BB
:107EB00000280BD133462A46394604A80BF01FF898
:107EC000002803D1049870B903E00E2008B0BDE883
:107ED000F0810748009033462A463946404606F06E
:107EE00021F80028F2D1019820600020EEE7000080
:107EF000357D02002DE9FF5F1D460E9F1446884622
:107F00005FEA000942D0B8F1000F07D0002602A8AE
:107F1000CDE9010699F800006F2803D0072004B0CE
:107F2000BDE8F09F012002907CB3206868B3006830
:107F300058B355B3286840B3006830B33B46414658
:107F40004846019A0AF0FCFF0028E8D103AB4146FD
:107F50004846019A0AF0F4FF0028E0D19DF80C0091
:107F6000012815D0266003AB41464846019A0AF025
:107F7000E7FF0028D3D19DF80C0001281ED02E6009
:107F8000029941452DD00920C9E7FFE70E20C6E739
:107F9000D4F800A00024DFF850B00BE00AEB840313
:107FA000CDF800B041464846019A05F08DFF002803
:107FB000B5D1641C3878A042F0D8D4E72D680024ED
:107FC0000A4E0AE005EB8403009641464846019AB2
:107FD00005F07AFF0028A2D1641C3878A042F1D8BD
:107FE000CEE700209BE70000D590020055910200EB
:107FF00013460A4601466F2009F0AEBE2DE9FC414A
:1080000090460C46050022D02CB100260196287817
:1080100001AF7D2802D00720BDE8FC81012001903E
:10802000ABB10D4800903A46284605F04DFF0028B8
:10803000F2D143463A4621462846009605F044FFD1
:108040000028E9D10198A04203D00920E4E70E20DE
:10805000E2E70020E0E700007F2E03002DE9FF4368
:1080600083B01E000E9C154689461BD0D4B100205B
:108070000190D4F800807D2001AF8DF808003B46C8
:108080004246314602A80AF068FF00280BD13B4661
:108090004246314603A80AF032FF002803D1039874
:1080A000C0B903E00E2007B0BDE8F0830B48009094
:1080B0003B4642463146284605F034FF0028F2D1BF
:1080C00045B1009729884346324648460AF068FF82
:1080D0000028E8D1019820600020E4E79D2E0300ED
:1080E0002DE9FC419846089E0C46050027D02CB18E
:1080F00000200190287801AF7C2802D00720BDE83D
:10810000FC8101200190D2B1B8F1000F17D0B6B1B7
:108110000D48134600903A46284605F0D5FE002843
:10812000EDD143463A4621462846009608F0FDFA2E
:108130000028E4D10198A04203D00920DFE70E20F7
:10814000DDE70020DBE70000F17B020013460A4672
:1081500001467C2009F000BEF8B51F460C4605001C
:1081600020D02CB10020009028786E46762801D0CF
:108170000720F8BD01200090A2B19FB113463246FE
:1081800028460AF07CFE0028F3D13B4632462146C1
:1081900028460AF0D5FE0028EBD10098A04203D073
:1081A0000920F8BD0E20F8BD0020F8BD13460A4690
:1081B0000146762009F0D0BD2DE9FC4116460700A6
:1081C00020D0FEB1F3B1102000901C460D46384679
:1081D0000AF0D0FE002813D101AB324629463846BA
:1081E0000AF0AEFE00280BD19DF80410227C4B084B
:1081F00061F3000263F34102890861F3870222748C
:10820000BDE8FC810E20FBE72DE9FC411D46174629
:108210000E001DD0E5B1D8B113460A460446102120
:1082200000950AF0BDFE002810D1207C2B46C0F33B
:108230004002014662F35F0120F0030001438DF824
:1082400004103A46314601A80AF087FEBDE8FC81D9
:108250000E20FBE7F8B51646070014D09EB193B187
:108260000A4800901C460D46384607F045FD002898
:1082700008D10748009004F11203324629463846D7
:1082800007F03AFDF8BD0E20F8BD0000B9810200EC
:10829000B1940200F8B51D4617460E0013D095B1F3
:1082A00088B1044609480090204607F057FD002891
:1082B00008D1074800902B463A46314604F1120097
:1082C00007F04CFDF8BD0E20F8BD00000982020049
:1082D000DF9402002DE9FC411D46089C0E46070074
:1082E00033D036B10020019038780DF1040885288C
:1082F00002D00720BDE8FC81012001902AB324B3FD
:108300001DB3206808B32868F8B1134642463846C2
:108310000AF0B5FD0028EDD10E4800902B464246EC
:108320003146384605F0D0FD0028E3D10A480090D8
:10833000234642463146384605F0C6FD0028D9D1CD
:108340000198B04203D00920D4E70E20D2E70020E4
:10835000D0E70000B1940200B981020013460A463A
:108360000146852009F0F8BC2DE9FE431D4616465E
:10837000040007D036B12DB120881D2804D0072075
:10838000BDE8FE830E20FBE7002001902F681D2032
:108390000DF10408ADF8080043463A46314602A8FC
:1083A0000AF07CFD0028EBD143463A463146201DB9
:1083B0000AF074FD0028E3D10648009043463A468F
:1083C000314604F1080007F0BFFC0028D8D101991C
:1083D0002960D5E7D98302002DE9FC411D4690466E
:1083E0000E0079D0002D77D0002875D004463B4888
:1083F0000090204607F0B2FC00286AD1384F2B4687
:1084000042463146A01C009707F0A8FC002860D126
:108410002B464246314604F10900009707F09EFCC6
:10842000002856D12B464246314604F110000AF08E
:1084300094FD00284DD12B464246314604F11100EF
:108440000AF08BFD002844D12B464246314604F108
:1084500012000AF082FD00283BD12B4642463146ED
:1084600004F113000AF079FD002832D12B46424670
:10847000314604F114000AF070FD002829D12B4682
:108480004246314604F115000AF067FD002820D16C
:10849000E08A2B46C0F30B00ADF80400424631469B
:1084A00001A80AF0FBFC002813D10E4800902B46CF
:1084B0004246314604F1180007F050FC002808D16C
:1084C000094800902B464246314604F1200007F04F
:1084D00045FCBDE8FC81FFE70E20FAE7E5740200E9
:1084E0003D7302000D6E0200D17802002DE9FC41BF
:1084F0001D461646040007D036B12DB12088172836
:1085000004D00720BDE8FC810E20FBE7002000908E
:108510002F681720E846ADF8040043463A46314636
:1085200001A80AF0BBFC0028ECD143463A4631468C
:10853000201D0AF0B3FC0028E4D143463A463146F8
:1085400004F108000AF009FD0028DBD10099296038
:10855000D8E700002DE9FF411D461646040008D06B
:108560003EB135B12088192805D0072004B0BDE8F8
:10857000F0810E20FAE7002001902F6819200DF1FC
:108580000408ADF8080043463A46314602A80AF00E
:1085900085FC0028EAD143463A463146201D0AF0C0
:1085A0007DFC0028E2D11648009043463A46314609
:1085B00004F1080007F0C8FB0028D7D1A08803A960
:1085C00005F04AFD18B1002001992960CEE70D4859
:1085D000009003980C49C0EB001000EB800001EB09
:1085E000800043463A463146001D07F0ADFB0028A7
:1085F000BCD1A08805F012FD0028E5D0B6E7000048
:108600000D86020041A00200E0A600202DE9FC41F9
:108610001D4690460E0045D0F5B3E8B341780446B8
:10862000C1F38002084662F39F00C1F3C00140EA33
:10863000C1008DF804004246314620460AF08DFC08
:1086400000282DD12B464246314601A80AF085FC70
:10865000002825D1144F2B4642463146A01C0097D6
:1086600007F07CFB00281BD12B4642463146E01C1C
:10867000009707F073FB002812D10C4F2B4642469F
:108680003146201D009707F069FB002808D12B46D2
:1086900042463146601D00E004E0009707F05EFBB3
:1086A000BDE8FC810E20FBE77DA00200F39E0200E6
:1086B0002DE9FE431D461646040007D036B12DB104
:1086C0002088122804D00720BDE8FE830E20FBE797
:1086D000002001902F6812200DF10408ADF8080069
:1086E00043463A46314602A80AF0D8FB0028EBD1AF
:1086F00043463A463146201D0AF0D0FB0028E3D11C
:108700000648009043463A46314604F1080007F017
:108710001BFB0028D8D101992960D5E7AD8702005D
:108720002DE9FE431D461646040007D036B12DB193
:1087300020881F2804D00720BDE8FE830E20FBE719
:10874000002001902F681F200DF10408ADF80800EB
:1087500043463A46314602A80AF0A0FB0028EBD176
:1087600043463A463146201D0AF098FB0028E3D1E3
:108770000648009043463A46314604F1080007F0A7
:10878000E3FA0028D8D101992960D5E79187020042
:1087900038B531B12BB120B1034C009407F0DEFAAB
:1087A00038BD0E2038BD0000DD7A020038B531B189
:1087B0002BB120B1034C009407F0D0FA38BD0E2045
:1087C00038BD0000DD7A02002DE9FE431D46164645
:1087D000040007D036B12DB120881A2804D0072014
:1087E000BDE8FE830E20FBE7002001902F681A20D1
:1087F0000DF10408ADF8080043463A46314602A898
:108800000AF04CFB0028EBD143463A463146201D86
:108810000AF044FB0028E3D10648009043463A465C
:10882000314604F1080007F08FFA0028D8D10199E9
:108830002960D5E73988020038B531B12BB120B1B4
:10884000034C009407F08AFA38BD0E2038BD0000B2
:108850003D7C02002DE9FE431D461646040007D06C
:1088600036B12DB12088102804D00720BDE8FE8342
:108870000E20FBE7002001902F6810200DF1040866
:10888000ADF8080043463A46314602A80AF006FB16
:108890000028EBD143463A463146201D0AF0FEFA45
:1088A0000028E3D10648009043463A46314604F199
:1088B000080007F049FA0028D8D101992960D5E7C6
:1088C000C5880200F8B51D4617460E0038D0BDB366
:1088D000B0B304461B480090204607F03FFA00283A
:1088E0002FD12B463A463146E01D0AF036FB0028D0
:1088F00027D1154800902B463A46314604F108002E
:1089000007F02CFA00281CD12B463A46314604F1D8
:1089100010000AF022FB002813D12B463A463146BC
:1089200004F118000AF0BAFA00280AD101B02B4667
:108930003A46314604F12000BDE8F0400AF0AEBAF4
:108940000E20F8BD3D730200DD7A02002DE9FE43E2
:108950001D461646040007D036B12DB120882428C4
:1089600004D00720BDE8FE830E20FBE70020019025
:108970002F6824200DF10408ADF8080043463A465C
:10898000314602A80AF08AFA0028EBD143463A465B
:108990003146201D0AF082FA0028E3D106480090F3
:1089A00043463A46314604F1080007F0CDF9002865
:1089B000D8D101992960D5E7C57D02002DE9FE4394
:1089C0001D461646040007D036B12DB12088232855
:1089D00004D00720BDE8FE830E20FBE700200190B5
:1089E0002F6823200DF10408ADF8080043463A46ED
:1089F000314602A80AF052FA0028EBD143463A4623
:108A00003146201D0AF04AFA0028E3D106480090BA
:108A100043463A46314604F1080007F095F900282C
:108A2000D8D101992960D5E7C57D02002DE9FF4124
:108A30001D461646040008D03EB135B120881128E5
:108A400005D0072004B0BDE8F0810E20FAE7002031
:108A500001902F6811200DF10408ADF8080043467D
:108A60003A46314602A80AF019FA0028EAD14346EC
:108A70003A463146201D0AF011FA0028E2D10C488E
:108A8000009043463A46314604F1080007F05CF98D
:108A90000028D7D1A08803A905F0DEFA20B9A08864
:108AA00005F0BCFA0028CDD1019900202960C9E762
:108AB000B58A020019B113B108B10AF04EBA0E20FE
:108AC00070472DE9FC411D461646040007D036B11B
:108AD0002DB12088162804D00720BDE8FC810E2087
:108AE000FBE7002000902F681620E846ADF8040050
:108AF00043463A46314601A80AF0D0F90028ECD1A5
:108B000043463A463146201D0AF0C8F90028E4D110
:108B100043463A46314604F108000AF01EFA00289E
:108B2000DBD100992960D8E72DE9FF411D461646A3
:108B3000040008D03EB135B12088182805D00720A0
:108B400004B0BDE8F0810E20FAE7002001902F6804
:108B500018200DF10408ADF8080043463A463146A6
:108B600002A80AF09BF90028EAD1207B434600F0D6
:108B700001008DF80C003A463146201D0AF08EF9AE
:108B80000028DDD10A48009043463A463146A068A5
:108B900005F0C8F90028D3D143463A46314603A828
:108BA0000AF0DBF90028CBD101992960C8E7000061
:108BB000979402002DE9FF411D46904604000AD01B
:108BC000B8F1000F07D035B12088152805D007204F
:108BD00004B0BDE8F0810E20FAE7002001902F6874
:108BE000152001AEADF8080033463A46414602A8CA
:108BF0000AF054F90028EBD1A07B334600F00100C5
:108C00008DF80C003A464146201D0AF047F900282D
:108C1000DED13B464246062104F1080000960AF0E8
:108C2000BFF90028D4D133463A46414603A80AF09A
:108C300094F90028CCD101992960C9E72DE9FC41BC
:108C40001D461646040007D036B12DB120882228D3
:108C500004D00720BDE8FC810E20FBE70020009037
:108C60002F682220E846ADF8040043463A463146D4
:108C700001A80AF013F90028ECD143463A463146E0
:108C8000201D0AF00BF90028E4D143463A4631464C
:108C900004F108000AF061F90028DBD143463A46A6
:108CA000314604F109000AF058F90028D2D14346B0
:108CB0003A46314604F10A000AF04FF90028C9D1BA
:108CC00000992960C6E700002DE9FE431D461646BF
:108CD000040007D036B12DB12088212804D0072008
:108CE000BDE8FE830E20FBE7002001902F682120C5
:108CF0000DF10408ADF8080043463A46314602A893
:108D00000AF0CCF80028EBD143463A463146201D04
:108D10000AF0C4F80028E3D10648009043463A46DA
:108D2000314604F1080007F00FF80028D8D1019966
:108D30002960D5E7959702002DE9FC411D461646AE
:108D4000040007D036B12DB120881C2804D007209C
:108D5000BDE8FC810E20FBE7002000902F681C205E
:108D6000E846ADF8040043463A46314601A80AF009
:108D700095F80028ECD143463A463146201D0AF0CA
:108D80008DF80028E4D143463A46314604F1080004
:108D90000AF0E3F80028DBD143463A46314604F1B5
:108DA00009000AF0DAF80028D2D100992960CFE74B
:108DB0002DE9FE431D461646040007D036B12DB1FD
:108DC0002088202804D00720BDE8FE830E20FBE782
:108DD000002001902F6820200DF10408ADF8080054
:108DE00043463A46314602A80AF058F80028EBD12B
:108DF00043463A463146201D0AF050F80028E3D198
:108E000043463A46314604F108000AF0A6F8002825
:108E1000DAD10B48009043463A46314604F10A0045
:108E200006F092FF0028CFD143463A46314604F17E
:108E300009000AF092F80028C6D101992960C3E719
:108E40003D7302002DE9FE431D461646040007D07F
:108E500036B12DB12088142804D00720BDE8FE8348
:108E60000E20FBE7002001902F6814200DF104086C
:108E7000ADF8080043463A46314602A80AF00EF81B
:108E80000028EBD143463A463146201D0AF006F849
:108E90000028E3D10648009043463A46314604F1A3
:108EA000080006F051FF0028D8D101992960D5E7C4
:108EB000B58E02002DE9FC411D4617460E002AD052
:108EC0004DB340B30446807CC0F34002014662F3D8
:108ED0005F01C0F3800041EA80008DF804000F4874
:108EE00000903A463146204606F038FF002810D15F
:108EF0000B4800902B463A46314604F1080006F034
:108F00002DFF002805D12B463A46314601A80AF02C
:108F100024F8BDE8FC810E20FBE700003D73020051
:108F2000DF9402002DE9FE431D461646040007D0DB
:108F300036B12DB12088132804D00720BDE8FE8368
:108F40000E20FBE7002001902F6813200DF104088C
:108F5000ADF8080043463A46314602A809F09EFFA4
:108F60000028EBD143463A463146201D09F096FFD2
:108F70000028E3D10648009043463A46314604F1C2
:108F8000080006F0E1FE0028D8D101992960D5E754
:108F9000958F020038B531B12BB120B1034C00944C
:108FA00006F0DCFE38BD0E2038BD000079A20200BC
:108FB0002DE9FE431D461646040007D036B12DB1FB
:108FC00020881E2804D00720BDE8FE830E20FBE782
:108FD000002001902F681E200DF10408ADF8080054
:108FE00043463A46314602A809F058FF0028EBD123
:108FF00043463A463146201D09F050FF0028E3D190
:109000000648009043463A46314604F1080006F00F
:109010009BFE0028D8D101992960D5E72190020054
:1090200038B5A9B1A3B198B10078C0F340050446A2
:1090300065F35F04C0F3800544EA8504C0F3C00013
:1090400044EAC0008DF80000684609F086FF38BD8C
:109050000E2038BD2DE9FC411D461646040007D000
:1090600036B12DB120881B2804D00720BDE8FC8133
:109070000E20FBE7002000902F681B20E846ADF88B
:10908000040043463A46314601A809F007FF00288C
:10909000ECD143463A463146201D09F0FFFE002838
:1090A000E4D143463A46314604F1080009F055FF41
:1090B0000028DBD1217A012908D143463A463146BE
:1090C00004F1100009F0EAFE0028CFD100992960D0
:1090D000CCE70000F8B51646070014D09EB193B156
:1090E0000A4800901C460D46384606F005FE00284A
:1090F00008D10748009004F110033246294638464B
:1091000006F0FAFDF8BD0E20F8BD000055910200F2
:10911000ED720200F8B51D4617460E0013D095B14A
:1091200088B1044609480090204606F017FE002842
:1091300008D1074800902B463A46314604F110000A
:1091400006F00CFEF8BD0E20F8BD00006B91020089
:109150003D73020038B530B12AB123B11024009418
:1091600009F008FF38BD0E2038BD08B541B13BB14C
:1091700030B1009313460A46102109F011FF08BDD3
:109180000E2008BDF8B51F460C46050020D02CB1B6
:109190000020009028786E46822801D00720F8BD74
:1091A00001200090A2B19FB113463246284609F033
:1091B00066FE0028F3D13B4632462146284609F098
:1091C000BFFE0028EBD10098A04203D00920F8BDD3
:1091D0000E20F8BD0020F8BD13460A460146822045
:1091E00008F0BABD2DE9FC411F460C46050023D00E
:1091F0002CB100200190287801AE812802D00720F0
:10920000BDE8FC8101200190B2B1AFB113463246F6
:10921000284609F034FE0028F2D1094800903B4668
:1092200032462146284604F04FFE0028E8D1019836
:10923000A04203D00920E3E70E20E1E70020DFE7AA
:109240005192020013460A460146812008F084BD6F
:1092500038B530B12AB123B12024009409F08AFE38
:1092600038BD0E2038BD00002DE9FC479846DDF8DA
:1092700028900C46050031D02CB1002601962878A4
:1092800001AF832802D00720BDE8FC8701200190B0
:1092900022B35FEA090021D0B8F1000F1ED01346B7
:1092A0003A46284609F0EBFD0028EDD10D48009024
:1092B00043463A462146284604F006FE0028E3D1FC
:1092C0004B463A4621462846009604F0FDFD00280C
:1092D000DAD10198A04203D00920D5E70E20D3E7C8
:1092E0000020D1E7819402002DE9FF4184B01C46A3
:1092F000150088461AD0CCB1002001902668832042
:1093000001AF8DF808003B463246294602A809F015
:1093100024FE00280BD13B463246294604A809F01A
:10932000EEFD002803D1049870B903E00E2008B0C8
:10933000BDE8F081064800903B463246294640464B
:1093400004F0F0FD0028F2D1019820600020EEE743
:10935000359402002DE9FC479846DDF828900C462C
:10936000050031D02CB100200190287801AE84286E
:1093700002D00720BDE8FC870120019022B3B8F19C
:10938000000F21D05FEA09001ED01346324628465E
:1093900009F075FD0028EDD10D4F434632462146B8
:1093A0002846009704F090FD0028E3D14B46324652
:1093B00021462846009704F087FD0028DAD101985D
:1093C000A04203D00920D5E70E20D3E70020D1E743
:1093D000E193020013460A460146842008F0BCBC13
:1093E0002DE9F84316465FEA00081ED0EEB1E3B15E
:1093F0000F4800901C460D46404606F07DFC0028B4
:1094000011D11027E31D324629464046009709F046
:10941000B1FD002807D104F1170332462946404622
:10942000009709F0A7FDBDE8F8830E20FBE70000D8
:10943000ED720200F8B51D4617460E001BD0D5B1DF
:10944000C8B104460D480090204606F087FC00286D
:1094500010D13B4632461021E01D009509F0A0FDD9
:10946000002807D13B463246102104F11700009531
:1094700009F096FDF8BD0E20F8BD00003D73020016
:1094800038B530B12AB123B14024009409F072FDFF
:1094900038BD0E2038BD08B541B13BB130B10093A5
:1094A00013460A46402109F07BFD08BD0E2008BD89
:1094B000F8B51646070010D07EB173B11C460D46B4
:1094C00009F0DDFC002807D108200090A31C3246DB
:1094D0002946384609F04EFDF8BD0E20F8BDF8B516
:1094E0001D4617460E000ED06DB160B1044609F05E
:1094F000D5FC002806D13B4632460821A01C009529
:1095000009F04EFDF8BD0E20F8BD2DE9F0411646DC
:1095100007000FD076B16BB11C460D4609F0AFFCC9
:10952000002808D1A31C324629463846BDE8F04140
:1095300009F0A5BC0E20BDE8F0812DE9F0411D46E3
:1095400017460E000ED06DB160B1044609F0A6FCBE
:10955000002808D12B463A463146A01CBDE8F04110
:1095600009F09CBC0E20BDE8F081F8B51646070056
:1095700010D07EB173B11C460D4609F080FC002866
:1095800007D105200090A31C32462946384609F031
:10959000F1FCF8BD0E20F8BDF8B51D4617460E00CB
:1095A0000ED06DB160B1044609F078FC002806D1F8
:1095B0003B4632460521A01C009509F0F1FCF8BDA0
:1095C0000E20F8BD38B558B152B14BB11C466B46B0
:1095D00009F0B6FC002802D19DF80010217038BDBA
:1095E0000E2038BD08B551B14BB140B1007800F044
:1095F00001008DF80000684609F0AFFC08BD0E20A0
:1096000008BD0000F8B51646070018D0BEB1B3B1CA
:109610001C460D4609F033FC00280FD1A31C32462E
:109620002946384609F02BFC002807D10548009050
:10963000231D32462946384604F046FCF8BD0E206C
:10964000F8BD00007F2E0300F8B51D4617460E003A
:1096500017D0B5B1A8B1044609F020FC00280FD1FD
:109660002B463A463146A01C09F018FC002807D1C9
:10967000054800902B463A463146606804F052FC9B
:10968000F8BD0E20F8BD00009D2E03001CB538B1BA
:1096900032B12BB106240094019404F00BFB1CBDE5
:1096A0000E201CBD08B549B143B138B10093134633
:1096B0000A460068062104F02FFB08BD0E2008BDF5
:1096C000F8B51646070013D096B18BB11C460D466F
:1096D00009F0D5FB00280AD16B46324629463846A8
:1096E00009F02EFC002802D19DF80010A170F8BDF1
:1096F0000E20F8BD2DE9FC411C460D46060025D084
:109700002DB100200190307801AF8F2802D00720C2
:10971000BDE8FC8101200190C2B1BCB12068A8B1B4
:1097200013463A46304609F0AAFB0028F0D1094812
:10973000009023463A462946304604F0C5FB0028EF
:10974000E6D10198A84203D00920E1E70E20DFE727
:109750000020DDE76597020013460A4601468F2088
:1097600008F0FABA2DE9F041164607000FD076B19D
:109770006BB11C460D4609F0E3FB002808D1631CC1
:10978000324629463846BDE8F04109F0D9BB0E20E3
:10979000BDE8F0812DE9F0411D4617460E000ED0C0
:1097A0006DB160B1044609F0D8FB002808D12B4602
:1097B0003A463146601CBDE8F04109F0CEBB0E20B0
:1097C000BDE8F0817CB50C46E0B12CB100230193DB
:1097D000057801A97B2D01D007207CBD01250195CD
:1097E00082B1156875B1022C0AD3009313460A465C
:1097F000214604F069FB0028EFD10198A04203D074
:1098000009207CBD0E207CBD00207CBD2DE9FF41E0
:1098100084B0984614460F0019D0C4B100200190BE
:1098200025687B2001AE8DF8080033462A4602A841
:1098300009F093FB00280BD133462A46394604A889
:1098400009F05DFB002803D1049870B903E00E20F5
:1098500008B0BDE8F0810748009033462A463946F3
:10986000404604F05FFB0028F2D101982060002000
:10987000EEE70000DD7A02001CB50C46C8B12CB141
:1098800000210191037801A97A2B01D007201CBD8A
:10989000012301936AB1094B009313460A462146FE
:1098A00004F012FB0028F2D10198A04203D0092055
:1098B0001CBD0E201CBD00201CBD00008D7A0200C6
:1098C00013460A4601467A2008F046BA1CB50C46F3
:1098D00040B12CB100210191037801A9712B03D073
:1098E00007201CBD0E201CBD01230193074B0093D4
:1098F00013460A46214604F0E7FA0028F3D10198FE
:10990000A04201D009201CBD00201CBD7D99020091
:109910002DE9FF4184B0984614460F0019D0C4B118
:10992000002001902568712001AE8DF808003346B3
:109930002A4602A809F011FB00280BD133462A461B
:10994000394604A809F0DBFA002803D1049870B95D
:1099500003E00E2008B0BDE8F081074800903346D0
:109960002A463946404604F0DDFA0028F2D1019833
:1099700020600020EEE70000D1990200F8B51646FD
:10998000070020D0FEB1F3B11C460D4609F0D8FA0D
:10999000002817D1631C32462946384609F0D0FA10
:1099A00000280FD1A31C32462946384609F067FA31
:1099B000002807D105480090231D32462946384625
:1099C00004F082FAF8BD0E20F8BD000055910200A7
:1099D000F8B51D4617460E001FD0F5B1E8B1044694
:1099E00009F0BBFA002817D12B463A463146601CD5
:1099F00009F0B3FA00280FD12B463A463146A01C95
:109A000009F04CFA002807D1054800902B463A4649
:109A10003146606804F086FAF8BD0E20F8BD0000FB
:109A20006B9102001CB50C4640B12CB10021019194
:109A3000037801A9702B03D007201CBD0E201CBD8C
:109A400001230193074B009313460A46214604F075
:109A50003BFA0028F3D10198A04201D009201CBD97
:109A600000201CBD7D99020013460A460146702065
:109A700008F072B938B50C46B8B12CB1002100918C
:109A800003786946912B01D0072038BD012300934C
:109A90005AB113460A46214609F01AFA0028F4D1B1
:109AA0000098A04203D0092038BD0E2038BD002008
:109AB00038BD13460A460146912008F04DB928B139
:109AC00011B10078922803D0072070470E2070470C
:109AD000012901D0092070470020704713460A462B
:109AE0000146922008F038B92DE9FC471D460A9C32
:109AF0000E46070035D046B14FF00008CDF804807F
:109B000038780DF104098E2802D00720BDE8FC87C3
:109B1000012001902AB325B3286810B313464A46A2
:109B2000384609F0ACF90028F0D12B464A463146B8
:109B30003846CDF8008004F0C7F90028E6D184B19A
:109B4000206870B123464A4631463846CDF8008039
:109B500004F0BAF90028D9D10198B04203D0092005
:109B6000D4E70E20D2E70020D0E700002DE9FF4720
:109B700084B09946DDF840A014465FEA01081AD087
:109B8000CCB10020019026688E2001AF8DF808002E
:109B90003B463246414602A809F0DFF900280BD1C6
:109BA0003B463246414604A809F0A9F9002803D1F2
:109BB0000498B8B903E00E2008B0BDE8F0870B4D5B
:109BC0003B46324641464846009504F0ABF9002832
:109BD000F2D13B46324641465046009504F0A2F988
:109BE0000028E9D1019820600020E5E75B2F030001
:109BF0002DE9F8431F46DDF820800C4605002CD0E7
:109C00002CB10020009028786E46882802D00720CA
:109C1000BDE8F88301200090FAB1F7B15FEA0800CF
:109C20001BD013463246284609F029F90028EFD107
:109C30003B4632462146284609F082F90028E7D102
:109C4000434632462146284609F07AF90028DFD1FA
:109C50000098A04203D00920DAE70E20D8E70020C0
:109C6000D6E713460A460146882008F075B838B58D
:109C70000C46B8B12CB10021009103786946892BBC
:109C800001D0072038BD012300935AB113460A467C
:109C9000214609F0F4F80028F4D10098A04203D03E
:109CA000092038BD0E2038BD002038BD13460A46B5
:109CB0000146892008F050B82DE9FF4116460700FB
:109CC00052D0002E50D0EBB31C460D4602AB09F02B
:109CD00037F9002845D19DF808102078631C61F3FE
:109CE000000020709DF808103246490861F34100D9
:109CF00020709DF80810890861F3820020709DF89B
:109D00000810C90861F3C40020702946384609F0DC
:109D100017F9002825D104F10800039005200090D0
:109D2000019003AB32462946384603F0C3FF0028B2
:109D300017D1A31C32462946384609F0A0F800285E
:109D40000FD100E010E0231D32462946384609F0C5
:109D500096F8002805D1A31D32462946384609F059
:109D60008EF804B0BDE8F0810E20FAE72DE9FC4141
:109D70001F460C46050026D02CB100200190287803
:109D800001AE8A2802D00720BDE8FC8101200190A5
:109D9000CAB11068B8B10E48134600903246284642
:109DA00004F092F80028EFD10A4800903B46324672
:109DB0002146284604F088F80028E5D10198A04201
:109DC00003D00920E0E70E20DEE70020DCE70000FA
:109DD000B99C0200C96D020013460A4601468A205A
:109DE00007F0BABF13460A4601468B2007F0B4BFFE
:109DF0002DE9FC471E46DDE90A540F465FEA0008DC
:109E000042D03FB10020019098F800000DF1040904
:109E1000862802D00720BDE8FC870120019092B37C
:109E20008EB385B37CB3306868B3286858B32068B4
:109E300048B313464A46404609F021F80028EAD1C3
:109E40001348009033464A463946404604F03CF8F1
:109E50000028E0D10F4800902B464A46394640463C
:109E600004F032F80028D6D10B48009023464A4629
:109E70003946404604F028F80028CCD10198B84271
:109E800004D00920C7E7FFE70E20C4E70020C2E79F
:109E9000B98102005591020019A3020013460A4637
:109EA0000146862007F058BF38B500B3FAB1F3B1C8
:109EB0001C466B4609F044F8002817D19DF8002095
:109EC000217862F3000121709DF80020520862F3AE
:109ED000410121709DF80020920862F382012170F7
:109EE0009DF80020D20862F3C301217038BD0E2016
:109EF00038BD38B5A9B1A3B198B10078C0F3400519
:109F0000044665F35F04C0F3800544EA8504C0F3AA
:109F1000C00044EAC0008DF80000684609F01DF852
:109F200038BD0E2038BD0000F8B51646070029D010
:109F300046B33BB3144800901C460D46384603F028
:109F4000C3FF00281DD111480090231D3246294629
:109F5000384603F0B9FF002813D10D48009004F1F2
:109F6000080332462946384603F0AEFF002808D1E0
:109F70000848009004F10C0332462946384603F0A5
:109F8000A3FFF8BD0E20F8BD55820200D590020057
:109F900019A3020081940200F8B51D4617460E0071
:109FA00026D02DB320B3044612480090206803F059
:109FB000B9FF00281BD1104800902B463A46314685
:109FC000606803F0AFFF002811D10C4800902B46C9
:109FD0003A463146A06803F0A5FF002807D108489B
:109FE00000902B463A463146E06803F09BFFF8BDEF
:109FF0000E20F8BD95820200159102002FA30200E9
:10A00000979402002DE9F84316465FEA000813D042
:10A0100096B18BB1094F1C460D46009705F06CFEBA
:10A02000002807D104F11003324629464046009724
:10A0300005F062FEBDE8F8830E20FBE7299F0200D1
:10A040002DE9F8431D4690460E0012D08DB180B127
:10A05000094F0446009705F081FE002807D12B46E2
:10A060004246314604F11000009705F077FEBDE846
:10A07000F8830E20FBE70000999F020038B5A9B1D4
:10A08000A3B198B10078C0F34005044665F35F04BE
:10A09000C0F3800544EA8504C0F3C00044EAC00070
:10A0A0008DF80000684608F058FF38BD0E2038BD16
:10A0B0002DE9FC479846DDE90A540E4607003FD0DB
:10A0C00036B10020019038780DF104097F2802D0C4
:10A0D0000720BDE8FC870120019082B3B8F1000F92
:10A0E0002ED065B3286850B34CB3206838B31346FC
:10A0F0004A46384608F0C3FE0028EAD143464A469D
:10A100003146384608F01CFF0028E2D10E48009086
:10A110002B464A463146384603F0D6FE0028D8D1B1
:10A120000A48009023464A463146384603F0CCFEA2
:10A130000028CED10198B04204D00920C9E7FFE73A
:10A140000E20C6E70020C4E7BDA1020005A0020062
:10A150002DE9FF4184B0984614460F0019D0C4B1D0
:10A160000020019025687F2001AE8DF8080033465D
:10A170002A4602A808F0F1FE00280BD133462A46F1
:10A18000394604A808F0BBFE002803D1049870B932
:10A1900003E00E2008B0BDE8F08107480090334688
:10A1A0002A463946404603F0BDFE0028F2D1019808
:10A1B00020600020EEE7000041A002002DE9FC41F4
:10A1C00016465FEA000853D0002E51D0002B4FD026
:10A1D0001C460D4601AB08F0B3FE002846D1631CB7
:10A1E00032462946404608F0ABFE00283ED1A31C6B
:10A1F00032462946404608F0A3FE002836D11D4FBE
:10A20000E31C324629464046009705F075FD0028BC
:10A210002CD1231D324629464046009705F06CFD9F
:10A22000002823D19DF80420217862F300012170D9
:10A230009DF80420520862F3410121709DF804202A
:10A24000920862F3820121709DF80420D20862F323
:10A25000C30121709DF80420120962F306112170D8
:10A260009DF80420D20962F3C7112170BDE8FC817A
:10A270000E20FBE7A99E02002DE9FC411D469046F9
:10A280000E0045D0F5B3E8B304460078C0F34002B1
:10A29000014662F35F01C0F3800241EA8201C0F32C
:10A2A000C00241EAC201C0F3021241EA021120F0E9
:10A2B0007F0001438DF804104246314601A808F0A2
:10A2C0004CFE002822D12B4642463146601C08F045
:10A2D00044FE00281AD12B4642463146A01C08F005
:10A2E0003CFE002812D10B4F2B4642463146E01C63
:10A2F000009705F033FD002808D12B464246314631
:10A30000201D00E004E0009705F028FDBDE8FC8179
:10A310000E20FBE7F39E020038B530B12AB123B11D
:10A320001024009408F026FE38BD0E2038BD08B574
:10A3300041B13BB130B1009313460A46102108F0F9
:10A340002FFE08BD0E2008BD2DE9F8439846089F52
:10A350000C46050028D02CB10020009028786E46CD
:10A36000772802D00720BDE8F88301200090DFB1F4
:10A3700013463246284608F0E3FD0028F3D1434651
:10A3800032462146284608F07AFD0028EBD13B46AC
:10A3900032462146284608F0D3FD0028E3D1009834
:10A3A000A04203D00920DEE70E20DCE70020DAE738
:10A3B00013460A460146772007F0CEBC2DE9FE4F32
:10A3C0001446060098460D4629D035B1002701975E
:10A3D00030780DF1040A6E2802D00720BDE8FE8F08
:10A3E00001200190DCB12068C8B10068B8B15246C4
:10A3F000304608F0A5FD0028F0D102AB52462946B0
:10A40000304608F09DFD0028E8D19DF8080001289D
:10A4100007D027600198A84219D00920DEE70E2056
:10A42000DCE727680024DFF82C900BE007EB8403BF
:10A43000524629463046CDF8009003F045FD0028ED
:10A44000CCD1641C98F80000A042EFD8E2E70020CD
:10A45000C4E70000ED72020013460A4601466E2072
:10A4600007F07ABC38B5A0B19AB193B11C466B46DF
:10A4700008F066FD00280BD19DF80020217862F3DA
:10A48000000121709DF80020520862F34101217003
:10A4900038BD0E2038BD38B590B38AB383B31C469F
:10A4A0006B4608F04DFD002829D19DF80020217849
:10A4B00062F3000121709DF80020520862F341010F
:10A4C00021709DF80020920862F3820121709DF8AE
:10A4D0000020D20862F3C30121709DF80020120908
:10A4E00062F3041121709DF80020520962F34511B6
:10A4F00021709DF80020920962F38611217038BD09
:10A50000FFE70E20FBE738B509B303B3F8B10078D5
:10A51000C0F34005044665F35F04C0F3800544EAD8
:10A520008504C0F3C00544EAC504C0F3001544EA3D
:10A530000514C0F3401544EA4514C0F3801044EA02
:10A5400080108DF80000684608F007FD38BD0E2029
:10A5500038BD18B112B10BB108F091BC0E20704794
:10A56000F8B51D4617460E000FD075B168B1044608
:10A5700008F094FC002807D1054800902B463A4685
:10A580003146A01C05F0FEFBF8BD0E20F8BD000012
:10A59000A3D80200F8B51D4617460E000FD075B1BE
:10A5A00068B1044608F07AFC002807D105480090FD
:10A5B0002B463A463146A01C05F0E4FBF8BD0E20C0
:10A5C000F8BD0000BDDA02002DE9FC411C460D4635
:10A5D000060025D02DB100200190307801AF9F28D2
:10A5E00002D00720BDE8FC8101200190C2B1BCB1BE
:10A5F0002068A8B113463A46304608F040FC0028CF
:10A60000F0D10948009023463A462946304603F0E7
:10A610005BFC0028E6D10198A84203D00920E1E7BD
:10A620000E20DFE70020DDE7E7B3020013460A460D
:10A6300001469F2007F090BB2DE9FC411D461746BF
:10A640000E0032D085B378B30446194800902046F6
:10A6500005F098FB002825D1164800902B463A4675
:10A660003146201D05F08EFB00281BD160792B465A
:10A6700000F001008DF804003A46314601A808F0C8
:10A680006CFC00280ED12B463A463146A01D08F03E
:10A6900005FC002806D12B463A46314604F1080055
:10A6A00008F0FCFBBDE8FC81FFE70E20FAE70000A4
:10A6B000BDDA020007A502002DE9FC411D46089CF9
:10A6C0000E46070033D036B10020019038780DF1E6
:10A6D0000408A02802D00720BDE8FC8101200190D9
:10A6E0002AB325B3286810B30CB32068F8B1134619
:10A6F0004246384608F0C3FB0028EDD10E480090D2
:10A700002B4642463146384603F0DEFB0028E3D1B3
:10A710000A480090234642463146384603F0D4FBAF
:10A720000028D9D10198B04203D00920D4E70E20E7
:10A73000D2E70020D0E700008DDA0200E7B3020084
:10A7400013460A460146A02007F006BB2DE9FC414E
:10A750001C46089F0D46060026D035B1002001900A
:10A7600030780DF10408A22802D00720BDE8FC8152
:10A7700001200190C2B1BCB12068A8B1A7B11346B5
:10A780004246304608F07BFB0028EFD12346424684
:10A7900029463046009704F04DFF0028E6D1019885
:10A7A000A84203D00920E1E70E20DFE70020DDE723
:10A7B00013460A460146A22007F0CEBA2DE9FC4115
:10A7C0001F460C46050009D02CB1002001902878C6
:10A7D00001AE9D2804D00720BDE8FC810E20FBE7D8
:10A7E0000120134601903246284608F048FB002815
:10A7F000F2D1084800903B4632462146284603F0F5
:10A8000063FB0028E8D10198A04201D00920E3E7CA
:10A810000020E1E7E7B3020013460A4601469D2007
:10A8200007F09ABA18B112B10BB108F089BB0E202B
:10A8300070470000F8B51D4617460E000FD075B1E1
:10A8400068B1044608F02AFB002807D105480090AB
:10A850002B463A463146A01C05F094FAF8BD0E206E
:10A86000F8BD0000BDDA02002DE9FC411F460C4690
:10A87000050009D02CB100200190287801AE9E2857
:10A8800004D00720BDE8FC810E20FBE70120134621
:10A8900001903246284608F0F2FA0028F2D1084822
:10A8A00000903B4632462146284603F00DFB002827
:10A8B000E8D10198A04201D00920E3E70020E1E7B8
:10A8C000E7B3020013460A4601469E2007F044BA49
:10A8D0002DE9FE431D461646040007D036B12DB1C2
:10A8E0002088342804D00720BDE8FE830E20FBE733
:10A8F000002001902F6834200DF10408ADF8080005
:10A9000043463A46314602A808F0C8FA0028EBD17F
:10A9100043463A463146201D08F0C0FA0028E3D1EC
:10A9200043463A463146A01D08F0B8FA0028DBD16C
:10A9300043463A46314604F1080008F0AFFA0028D1
:10A94000D2D10748009043463A46314604F10A0006
:10A9500005F00EFA0028C7D101992960C4E700006C
:10A9600065A902002DE9F8431F4691465FEA0108F8
:10A9700014D09FB190B1044608F090FA00280ED18F
:10A980003B464A464146A01C08F0E7FA002806D19B
:10A99000A178012905D0104E002515E00E20BDE854
:10A9A000F8830E4EF8E7A078012811D005EBC5001A
:10A9B00004EB4000001D3B464A464146009605F028
:10A9C000E1F90028EBD16D1C2188A942EBD8E6E71C
:10A9D00005EB4500ECE7000061A5020095A502002B
:10A9E0002DE9FE431D461646040007D036B12DB1B1
:10A9F0002088322804D00720BDE8FE830E20FBE724
:10AA0000002001902F6832200DF10408ADF80800F5
:10AA100043463A46314602A808F040FA0028EBD1F6
:10AA200043463A463146201D08F038FA0028E3D163
:10AA300043463A463146A01D08F030FA0028DBD1E3
:10AA400043463A46314604F1080008F027FA002848
:10AA5000D2D10748009043463A46314604F10A00F5
:10AA600005F086F90028C7D101992960C4E70000E4
:10AA700075AA02002DE9F8431E4691465FEA0108D7
:10AA800009D046B138B1044608F008FA002803D1CD
:10AA900000250B4F10E00E20BDE8F88305EB850084
:10AAA00004EB400033464A464146801C009705F0BF
:10AAB00069F90028F0D16D1C2188A942EED8EBE796
:10AAC00039A602002DE9FE431D461646040007D0B4
:10AAD00036B12DB12088352804D00720BDE8FE838B
:10AAE0000E20FBE7002001902F6835200DF10408AF
:10AAF000ADF8080043463A46314602A808F0CEF9C0
:10AB00000028EBD143463A463146201D08F0C6F9ED
:10AB10000028E3D143463A463146A01D08F0BEF96D
:10AB20000028DBD143463A46314604F1080008F0DC
:10AB3000B5F90028D2D10748009043463A4631463D
:10AB400004F10A0005F014F90028C7D10199296021
:10AB5000C4E7000059AB0200F8B51D4617460E00C9
:10AB60001AD0CDB1C0B1044608F098F9002812D12E
:10AB70002B463A463146A01C08F090F900280AD12D
:10AB800060882188801C484381B23B463246201DA4
:10AB9000009508F005FAF8BD0E20F8BD2DE9FE433A
:10ABA0001D461646040007D036B12DB1208837283F
:10ABB00004D00720BDE8FE830E20FBE700200190B3
:10ABC0002F6837200DF10408ADF8080043463A46D7
:10ABD000314602A808F062F90028EBD143463A4614
:10ABE0003146201D08F05AF90028E3D143463A4681
:10ABF0003146A01D08F052F90028DBD143463A4601
:10AC0000314604F1080008F049F90028D2D107487C
:10AC1000009043463A46314604F10A0005F0A8F890
:10AC20000028C7D101992960C4E7000031AC0200B7
:10AC3000F8B51D4617460E000ED06DB160B1044642
:10AC400008F02CF9002806D1009521883B463246B1
:10AC5000A01C08F0A5F9F8BD0E20F8BD2DE9FE43B3
:10AC60001D461646040007D036B12DB12088332882
:10AC700004D00720BDE8FE830E20FBE700200190F2
:10AC80002F6833200DF10408ADF8080043463A461A
:10AC9000314602A808F002F90028EBD143463A46B3
:10ACA0003146201D08F0FAF80028E3D143463A4621
:10ACB0003146A01D08F0F2F80028DBD143463A46A1
:10ACC000314604F1080008F0E9F80028D2D107481D
:10ACD000009043463A46314604F10A0005F048F830
:10ACE0000028C7D101992960C4E70000F1AC020037
:10ACF0002DE9F8431E4691465FEA010809D046B1A6
:10AD000038B1044608F0CAF8002803D100250B4FDB
:10AD100010E00E20BDE8F88305EB450004EB400091
:10AD200033464A464146801C009705F02BF8002820
:10AD3000F0D16D1C2188A942EED8EBE735A80200BE
:10AD40002DE9FE431D461646040007D036B12DB14D
:10AD500020883A2804D00720BDE8FE830E20FBE7B8
:10AD6000002001902F683A200DF10408ADF808008A
:10AD700043463A46314602A808F090F80028EBD145
:10AD800043463A463146201D08F088F80028E3D1B2
:10AD900043463A463146A01D08F080F80028DBD132
:10ADA00043463A46314604F1080008F077F8002897
:10ADB000D2D10748009043463A46314604F10A0092
:10ADC00004F0D6FF0028C7D101992960C4E700002C
:10ADD000D5AD020019B113B108B108F05FB80E206B
:10ADE000704700002DE9FE431D461646040007D0BB
:10ADF00036B12DB12088392804D00720BDE8FE8364
:10AE00000E20FBE7002001902F6839200DF1040887
:10AE1000ADF8080043463A46314602A808F03EF82D
:10AE20000028EBD143463A463146201D08F036F85B
:10AE30000028E3D143463A463146A01D08F02EF8DB
:10AE40000028DBD143463A46314604F1080008F0B9
:10AE500025F80028D2D10748009043463A463146AB
:10AE600004F10A0004F084FF0028C7D10199296089
:10AE7000C4E7000079AE0200F8B51D4617460E0083
:10AE80001ED0EDB1E0B1044608F008F8002816D154
:10AE90002B463A463146A01C08F05FF800280ED138
:10AEA0002B463A463146201D07F0F8FF002806D110
:10AEB0000095A1883B463246A01D08F071F8F8BD08
:10AEC0000E20F8BD2DE9FE431D461646040007D0AE
:10AED00036B12DB12088302804D00720BDE8FE838C
:10AEE0000E20FBE7002001902F6830200DF10408B0
:10AEF000ADF8080043463A46314602A807F0CEFFB7
:10AF00000028EBD143463A463146201D07F0C6FFE4
:10AF10000028E3D143463A463146A01D07F0BEFF64
:10AF20000028DBD143463A46314604F1080007F0D9
:10AF3000B5FF0028D2D10748009043463A46314633
:10AF400004F10A0004F014FF0028C7D10199296018
:10AF5000C4E7000059AF02002DE9F8431E469146B0
:10AF60005FEA010809D046B138B1044607F096FF00
:10AF7000002803D100250A4F0EE00E20BDE8F8831B
:10AF800004EBC50033464A464146801C009704F056
:10AF9000F9FE0028F2D16D1C2188A942F0D8EDE716
:10AFA00031B602002DE9FE431D461646040007D0C7
:10AFB00036B12DB12088362804D00720BDE8FE83A5
:10AFC0000E20FBE7002001902F6836200DF10408C9
:10AFD000ADF8080043463A46314602A807F05EFF46
:10AFE0000028EBD143463A463146201D07F056FF74
:10AFF0000028E3D143463A463146A01D07F04EFFF4
:10B000000028DBD143463A46314604F1080007F0F8
:10B0100045FF0028D2D10748009043463A463146C2
:10B0200004F10A0004F0A4FE0028C7D101992960A8
:10B03000C4E7000039B00200F8B51D4617460E00FF
:10B040001ED0EDB1E0B1044607F028FF002816D16C
:10B050002B463A463146A01C07F020FF00280ED1AF
:10B060002B463A463146201D07F018FF002806D12E
:10B070000095A1883B463246A01D07F091FFF8BD20
:10B080000E20F8BD2DE9FE431D461646040007D0EC
:10B0900036B12DB12088312804D00720BDE8FE83C9
:10B0A0000E20FBE7002001902F6831200DF10408ED
:10B0B000ADF8080043463A46314602A807F0EEFED6
:10B0C0000028EBD143463A463146201D07F0E6FE04
:10B0D0000028E3D143463A463146A01D07F0DEFE84
:10B0E0000028DBD143463A46314604F1080007F018
:10B0F000D5FE0028D2D10748009043463A46314653
:10B1000004F10A0004F034FE0028C7D10199296037
:10B11000C4E7000019B102002DE9F84F98469246A5
:10B120005FEA01090ED0B8F1000F0BD050B1044610
:10B130004346494607F0B2FE002804D1A51C00266C
:10B14000094F0DE00E20BDE8F88F434652464946B0
:10B150002846009704F016FE0028F4D10A35761C24
:10B160002188B142F1D8EEE7A5B402002DE9FE43F3
:10B170001D461646040007D036B12DB120883B2865
:10B1800004D00720BDE8FE830E20FBE700200190DD
:10B190002F683B200DF10408ADF8080043463A46FD
:10B1A000314602A807F07AFE0028EBD143463A4622
:10B1B0003146201D07F072FE0028E3D143463A468F
:10B1C0003146A01D07F06AFE0028DBD143463A460F
:10B1D000314604F1080007F061FE0028D2D107488B
:10B1E000009043463A46314604F10A0004F0C0FD9F
:10B1F0000028C7D101992960C4E7000001B202000C
:10B2000019B113B108B107F0A8BE0E2070472DE99F
:10B21000FC411D461646040007D036B12DB12088EA
:10B220003C2804D00720BDE8FC810E20FBE700206D
:10B2300000902F683C20E846ADF8040043463A46AB
:10B24000314601A807F02AFE0028ECD143463A46D1
:10B250003146201D07F022FE0028E4D143463A463D
:10B260003146A01D07F01AFE0028DCD143463A46BD
:10B27000314604F1080007F011FE0028D3D14346FF
:10B280003A46314604F10A0007F067FE0028CAD1A9
:10B2900000992960C7E700002DE9FE431D461646C8
:10B2A000040007D036B12DB12088382804D00720FB
:10B2B000BDE8FE830E20FBE7002001902F683820B8
:10B2C0000DF10408ADF8080043463A46314602A89D
:10B2D00007F0E4FD0028EBD143463A463146201DF5
:10B2E00007F0DCFD0028E3D143463A463146A01D75
:10B2F00007F0D4FD0028DBD143463A46314604F13D
:10B30000080007F0CBFD0028D2D107480090434643
:10B310003A46314604F10A0004F02AFD0028C7D15C
:10B3200001992960C4E700002DB30200F8B51D465D
:10B3300017460E0027D035B328B3044607F0AEFDFC
:10B3400000281FD12B463A463146A01C07F005FEC7
:10B35000002817D12B463A463146201D07F09EFDA6
:10B3600000280FD12B463A463146A01D07F096FD26
:10B37000002807D10095E1883B46324604F10800D9
:10B3800007F00EFEF8BD0E20F8BDF8B51F460C46BE
:10B39000050008D02CB10020009028786E46A52822
:10B3A00003D00720F8BD0E20F8BD01201346009001
:10B3B0003246284607F063FD0028F5D13B46324669
:10B3C0002146284607F05BFD0028EDD10098A042F9
:10B3D00001D00920F8BD0020F8BD13460A460146F9
:10B3E000A52006F0B9BC2DE9F041164607000FD0A4
:10B3F00076B16BB11C460D4607F041FD002808D11F
:10B40000A31C324629463846BDE8F04107F037BD57
:10B410000E20BDE8F0812DE9F0411D4617460E00D3
:10B420000ED06DB160B1044607F038FD002808D198
:10B430002B463A463146A01CBDE8F04107F02EBD30
:10B440000E20BDE8F081F8B51F460C46050008D077
:10B450002CB10020009028786E46A42803D0072045
:10B46000F8BD0E20F8BD0120134600903246284654
:10B4700007F005FD0028F5D13B4632462146284617
:10B4800007F0FDFC0028EDD10098A04201D0092072
:10B49000F8BD0020F8BD13460A460146A42006F078
:10B4A0005BBC0000F8B51D4617460E000FD075B105
:10B4B00068B1044607F0F2FC002807D10548009067
:10B4C0002B463A463146A01C04F05CFCF8BD0E2029
:10B4D000F8BD000031B602002DE9FC411F46DDF841
:10B4E00020800C46050009D02CB10020019028785E
:10B4F00001AE9B2804D00720BDE8FC810E20FBE7AD
:10B500000120134601903246284607F0B8FC002877
:10B51000F2D13B4632462146284607F0B0FC0028CF
:10B52000EAD108480090434632462146284602F0B8
:10B53000CBFC0028E0D10198A04201D00920DBE734
:10B540000020D9E78DDA020013460A4601469B2007
:10B5500006F002BC2DE9F8431F46DDF820800C46BA
:10B56000050009D02CB10020009028786E46A12853
:10B5700004D00720BDE8F8830E20FBE70120134626
:10B5800000903246284607F07AFC0028F2D13B466C
:10B5900032462146284607F072FC0028EAD143468D
:10B5A00032462146284607F06AFC0028E2D100987E
:10B5B000A04201D00920DDE70020DBE713460A4660
:10B5C0000146A12006F0C8BB2DE9FC411F460C46F0
:10B5D000050009D02CB100200190287801AE9C28EC
:10B5E00004D00720BDE8FC810E20FBE701201346B4
:10B5F00001903246284607F042FC0028F2D1084864
:10B6000000903B4632462146284602F05DFC002869
:10B61000E8D10198A04201D00920E3E70020E1E74A
:10B62000E7B3020013460A4601469C2006F094BB8D
:10B63000F8B51D4617460E0012D08DB180B10446F4
:10B6400008480090204604F09DFB002807D10648DA
:10B6500000902B463A463146201D04F093FBF8BD7E
:10B660000E20F8BDBDDA020017B40200F8B5164688
:10B67000070028D03EB333B31C460D4607F060FCEC
:10B6800000281FD1631C32462946384607F058FC73
:10B69000002817D1A31C32462946384607F0EFFB95
:10B6A00000280FD1231D32462946384607F0E7FB14
:10B6B000002807D1A01D831C009032462946384639
:10B6C00005F033F8F8BD0E20F8BD00002DE9FC416F
:10B6D0001F460C46050009D02CB1002001902878A7
:10B6E00001AEA32804D00720BDE8FC810E20FBE7B3
:10B6F0000120134601903246284607F0C0FB00287F
:10B70000F2D1084800903B4632462146284602F0D6
:10B71000DBFB0028E8D10198A04201D00920E3E733
:10B720000020E1E76DB6020013460A460146A32059
:10B7300006F012BB2DE9FC479846DDF828900D462F
:10B74000060009D02DB100240194307801AFB4284F
:10B7500004D00720BDE8FC870E20FBE7012013463C
:10B7600001903A46304607F08AFB0028F2D1434662
:10B770003A4629463046009402F0A6FB0028E9D15B
:10B780004B463A4629463046009402F09DFB00287D
:10B79000E0D10198A84201D00920DBE70020D9E7D9
:10B7A0002DE9FF4383B09846DDF8389014460F002A
:10B7B00019D0C4B1002001902568B42001AE8DF8E5
:10B7C000080033462A4602A807F0C7FB00280BD121
:10B7D00033462A46394603A807F091FB002803D1D7
:10B7E0000398C0B903E00E2007B0BDE8F0830C4811
:10B7F000009033462A463946404602F093FB002823
:10B80000F2D10848009033462A463946484602F0AD
:10B8100089FB0028E8D1019820600020E4E70000BF
:10B82000BDDA020095B802002DE9FC4116465FEA38
:10B8300000082BD056B34BB3154F1C460D4600974E
:10B8400004F064FA00281FD1631C324629464046A2
:10B85000009704F05BFA002816D101AB3246294666
:10B86000404607F06DFB00280ED19DF80410A27829
:10B870004B0861F3000263F34202CB0863F3C30297
:10B88000090961F30412A270BDE8FC810E20FBE7F8
:10B89000F17B02002DE9FC411D4690460E0032D09E
:10B8A00085B378B3194F0446009704F07FFA002857
:10B8B00026D12B4642463146601C009704F076FAAA
:10B8C00000281DD1A0782B46C0F34102014662F347
:10B8D0005F01C0F3C00241EAC201C0F3001041EAB7
:10B8E00000108DF804004246314601A807F035FBF0
:10B8F000002805D1A178C1F34101012900D007201A
:10B90000BDE8FC81FFE70E20FAE70000237C02007F
:10B91000F8B51646070032D086B37BB319480090BD
:10B920001C460D46384602F0CFFA002825D11648AD
:10B930000090231D32462946384602F0C5FA0028F9
:10B940001BD104F10A0332462946384607F097FA1C
:10B95000002812D104F10C0332462946384607F07C
:10B960008EFA002809D104F10800009004F11003B8
:10B9700032462946384604F0D8FEF8BDFFE70E20CF
:10B98000FBE700008DDA020029B802002DE9FC4136
:10B990001646070028D03EB333B31C460D4607F0C9
:10B9A0006EFA00281ED101AB32462946384607F010
:10B9B000C7FA002816D1231D32462946384607F01B
:10B9C0005EFA00280ED1A01D831C00903246294645
:10B9D000384604F0AAFE002804D19DF8041001F0B6
:10B9E0000101A170BDE8FC810E20FBE718B112B186
:10B9F0000BB107F06DBA0E20704738B558B152B18F
:10BA00004BB11C466B4607F09BFA002802D19DF80B
:10BA10000010217038BD0E2038BD2DE9F0411D46C3
:10BA200017460E001ED0EDB1E0B1044607F036FA1D
:10BA3000002818D12B463A463146A01C07F02EFAB2
:10BA4000002810D12B463A463146201D07F026FA31
:10BA5000002808D12B463A463146A01DBDE8F041EA
:10BA600007F01CBA0E20BDE8F08100002DE9F84374
:10BA700016465FEA000854D0002E52D0002B50D05A
:10BA8000294800901C460D46404604F03FF9002826
:10BA900045D126480090631C32462946404604F0B2
:10BAA00035F900283BD104F10803324629464046C7
:10BAB00007F0E5F9002832D104F10A000090231DB7
:10BAC00032462946404604F030FE002827D1184867
:10BAD000009004F10C0332462946404602F0F4F986
