:020000040000FA
:1000000000040020E90800007D050000C908000088
:1000100087050000910500009B050000000000001E
:100020000000000000000000000000000D090000BA
:10003000A505000000000000AF050000B9050000A4
:10004000C3050000CD050000D7050000E105000054
:10005000EB050000F5050000FF05000009060000A3
:10006000130600001D0600002706000031060000F0
:100070003B060000450600004F0600005906000040
:10008000630600006D060000770600008106000090
:100090008B060000950600009F060000A9060000E0
:1000A000B3060000BD060000C7060000D106000030
:1000B000DB060000E5060000EF060000F906000080
:1000C000030700000D0700001707000021070000CC
:1000D0002B070000350700003F070000490700001C
:1000E000530700005D07000067070000710700006C
:1000F0007B070000850700008F07000099070000BC
:10010000A30700001FB500F003F88DE80F001FBD26
:1001100000F0E0BB1FB56FF00100009040100390AD
:10012000029001904FF010208069000B420900F00E
:100130001F045DF822300120A04083434DF8223097
:10014000684600F045F91FBDF0B54FF6FF734FF458
:10015000B4751A466E1E11E0A94201D3344600E080
:100160000C46091B30F8027B641E3B441A44F9D14B
:100170009CB204EB134394B204EB12420029EBD17E
:1001800098B200EB134002EB124140EA0140F0BD8F
:10019000DE4992B00446D1E90001CDE91001FF2209
:1001A0004021684600F03CFB94E80F008DE80F000A
:1001B000684610A902E004C841F8042D8842FAD12B
:1001C00010216846FFF7C0FF1090AA208DF8440068
:1001D000FFF7A0FF00F0F3F84FF01024A069102201
:1001E0006946803000F002F9A069082210A900F0E9
:1001F000FDF800F0D8F84FF080510A6949690068AD
:100200004A43824201D8102070470020704710B541
:10021000D0E900214FF0805002EB8103026944696C
:100220006243934209D84FF01022536903EB8103D4
:100230000169406941438B4201D9092010BD5069D1
:10024000401C01D0002010BD0F2010BD70B501680A
:100250000446AF4D4FF01020072952D2DFE801F0DD
:10026000330419293C1E2500D4E902656468294637
:10027000304600F0CDF82A462146304600F0B6F868
:10028000AA002146304600F09FFA002800D0032043
:1002900070BD00F051FB4FF4805007E0201DFFF7C8
:1002A000AAFF0028F4D100F047FB60682860002016
:1002B00070BD241D94E80700920000F085FA002824
:1002C000F6D00E2070BD8069401C12D0201DFFF7B3
:1002D0009EFF0028F6D109E08069401C09D0201D4E
:1002E000FFF789FF0028EDD1606820B12046FFF7B5
:1002F0004FFF042070BDFFF70DFF00F060F800F025
:1003000052F8072070BD10B50C46182802D0012005
:10031000086010BD2068FFF799FF206010BD4FF006
:100320001024A069401C05D0A569A66980353079E4
:10033000AA2808D06069401C2DD060690068401C64
:1003400029D060692CE010212846FFF7FDFE3168B6
:1003500081421CD1A16901F18002C03105E030B1B8
:1003600008CA51F8040D984201D1012000E0002094
:100370008A42F4D158B1286810B1042803D0FEE7AE
:10038000284600F057F862496868086008E000F005
:1003900016F800F008F84FF480500168491C01D0AD
:1003A00000F0A4FAFEE7BFF34F8F5A4801685A4A9B
:1003B00001F4E06111430160BFF34F8FFEE74FF09E
:1003C00010208169491C02D0806900F0AEB87047E6
:1003D000524A01681160121D416811604F4A8168DC
:1003E00010321160111DC068086070472DE9F0419E
:1003F00017460D460646002406E03046296800F000
:10040000A7F8641C2D1D361DBC42F6D3BDE8F08153
:1004100070B50C4605464FF4806608E0284600F0AB
:1004200084F8B44205D3A4F5806405F58055002C0A
:10043000F4D170BD4168044609B1012500E00025F2
:100440004FF010267069A268920000F0BDF9C8B1A3
:10045000204600F01AF89DB17669A56864684FF4EB
:10046000002084420AD2854208D229463046FFF74E
:10047000CFFF2A4621463046FFF7B8FFFFF79FFF20
:10048000FFF791FFFFF746FEF8E72DE9FF414FF038
:100490001024616980680D0B01EB800000F6FF708D
:1004A000010B0020009001900290024603906846E4
:1004B00001230BE0560902F01F0C50F8267003FAD6
:1004C0000CFC47EA0C0740F82670521CAA42F1D3F4
:1004D0000AE04A0901F01F0650F8225003FA06F616
:1004E000354340F82250491C8029F2D3A169090BF9
:1004F0004A0901F01F0150F822408B409C4340F80C
:100500002240FFF765FFBDE8FF8100005C090000A5
:10051000000000200CED00E00400FA050006004099
:10052000144801680029FCD07047134A0221116069
:1005300010490B68002BFCD00F4B1B1D186008687E
:100540000028FCD00020106008680028FCD070470C
:10055000094B10B501221A60064A1468002CFCD021
:10056000016010680028FCD0002018601068002886
:10057000FCD010BD00E4014004E5014008208F4993
:1005800009680958084710208C4909680958084724
:1005900014208A49096809580847182087490968BA
:1005A0000958084730208549096809580847382004
:1005B00082490968095808473C2080490968095858
:1005C000084740207D4909680958084744207B496D
:1005D00009680958084748207849096809580847B0
:1005E0004C20764909680958084750207349096822
:1005F0000958084754207149096809580847582084
:100600006E490968095808475C206C49096809580F
:100610000847602069490968095808476420674904
:100620000968095808476820644909680958084753
:100630006C20624909680958084770205F490968B9
:100640000958084774205D49096809580847782007
:100650005A490968095808477C20584909680958C7
:10066000084780205549096809580847842053499C
:1006700009680958084788205049096809580847F7
:100680008C204E4909680958084790204B49096851
:10069000095808479420494909680958084798208B
:1006A00046490968095808479C204449096809587F
:1006B0000847A0204149096809580847A4203F4934
:1006C000096809580847A8203C490968095808479B
:1006D000AC203A49096809580847B02037490968E9
:1006E00009580847B4203549096809580847B8200F
:1006F0003249096809580847BC2030490968095837
:100700000847C0202D49096809580847C4202B49CB
:10071000096809580847C82028490968095808473E
:10072000CC202649096809580847D0202349096880
:1007300009580847D4202149096809580847D82092
:100740001E49096809580847DC201C4909680958EE
:100750000847E0201949096809580847E420174963
:10076000096809580847E8201449096809580847E2
:10077000EC201249096809580847F0200F49096818
:1007800009580847F4200D49096809580847F82016
:100790000A49096809580847FC20084909680958A6
:1007A00008475FF480700549096809580847000048
:1007B00003480449024A034B704700000000002030
:1007C000680900006809000040EA010310B59B07B2
:1007D0000FD1042A0DD310C808C9121F9C42F8D0AB
:1007E00020BA19BA884201D9012010BD4FF0FF305C
:1007F00010BD1AB1D30703D0521C07E0002010BD72
:1008000010F8013B11F8014B1B1B07D110F8013BFD
:1008100011F8014B1B1B01D1921EF1D1184610BDDE
:1008200002F0FF0343EA032242EA024200F005B865
:100830007047704770474FF000020429C0F01280E3
:1008400010F0030C00F01B80CCF1040CBCF1020F83
:1008500018BF00F8012BA8BF20F8022BA1EB0C0158
:1008600000F00DB85FEAC17C24BF00F8012B00F84E
:10087000012B48BF00F8012B70474FF0000200B574
:10088000134694469646203922BFA0E80C50A0E8B3
:100890000C50B1F12001BFF4F7AF090728BFA0E861
:1008A0000C5048BF0CC05DF804EB890028BF40F82D
:1008B000042B08BF704748BF20F8022B11F0804F6F
:1008C00018BF00F8012B7047014B1B68DB68184705
:1008D0000000002009480A497047FFF7FBFFFFF7B7
:1008E00011FC00BD20BFFDE7064B1847064A10600B
:1008F000016881F30888406800470000680900002B
:10090000680900001F030000000000201EF0040F13
:100910000CBFEFF30881EFF3098188690238007892
:10092000182803D100E00000074A1047074A126860
:100930002C3212681047000000B5054B1B68054AB1
:100940009B58984700BD00000703000000000020EE
:100950005809000004000000001000000000000022
:0809600000FFFFFF0090D0032F
:10100000E0120020D1430200192F000043430200E8
:10101000192F0000192F0000192F000000000000F8
:101020000000000000000000000000002944020051
:10103000192F000000000000192F0000192F0000D8
:101040009144020097440200192F0000192F00005C
:10105000192F0000192F0000192F0000192F000070
:101060009D440200192F0000192F0000A344020024
:10107000192F0000A9440200AF440200B544020049
:10108000192F0000192F0000192F0000192F000040
:10109000192F0000192F0000192F0000192F000030
:1010A000192F0000BB440200192F0000192F000067
:1010B000192F0000192F0000192F0000192F000010
:1010C000C1440200192F0000192F0000192F000041
:1010D000192F0000192F0000192F0000192F0000F0
:1010E000192F0000192F0000192F0000192F0000E0
:1010F000192F0000192F0000192F0000192F0000D0
:10110000192F0000192F000000F002F823F04DF90C
:101110000AA090E8000C82448344AAF10107DA4552
:1011200001D123F042F9AFF2090EBAE80F0013F033
:10113000010F18BFFB1A43F0010318479038020053
:10114000B03802000A444FF0000C10F8013B13F0D5
:10115000070408BF10F8014B1D1108BF10F8015B10
:10116000641E05D010F8016B641E01F8016BF9D103
:1011700013F0080F1EBF10F8014BAD1C0C1B09D15A
:101180006D1E58BF01F801CBFAD505E014F8016BCC
:1011900001F8016B6D1EF9D59142D6D3704700005E
:1011A0000023002400250026103A28BF78C1FBD870
:1011B000520728BF30C148BF0B6070471FB500F011
:1011C0003DF88DE80F001FBD1EF0040F0CBFEFF3BC
:1011D0000880EFF30980014A10470000752E0000D7
:1011E0008269034981614FF001001044704700009B
:1011F000F511000001B41EB400B512F00FFE01B4E9
:101200000198864601BC01B01EBD0000F0B4404606
:10121000494652465B460FB402A0013001B506486C
:10122000004700BF01BC86460FBC804689469246F7
:101230009B46F0BC704700000911000023F0B2B8D3
:1012400070B51A4C054609202070A01C00F05FF80C
:101250005920A08029462046BDE8704008F05CB8BF
:1012600008F065B870B50C461149097829B1A0F1AC
:1012700060015E2908D3012013E0602804D06928AA
:1012800002D043F201000CE020CC0A4E94E80E009C
:1012900006EB8000A0F58050241FD0F8806E284611
:1012A000B047206070BD012070470000080000209A
:1012B0001C0000202845020010B504460021012032
:1012C00000F03DF800210B2000F039F8042119202E
:1012D00000F035F804210D2000F031F804210E2033
:1012E00000F02DF804210F2000F029F80421C84354
:1012F00000F025F80621162000F021F8062115201F
:1013000000F01DF82046FFF79BFF002010BDA8212C
:1013100001807047FFF7A4BF11487047104870471D
:10132000104A10B514680F4B0F4A08331A60FFF7C4
:1013300099FF0C48001D046010BD704770474907B5
:10134000090E002806DA00F00F0000F1E02080F816
:10135000141D704700F1E02080F800147047000071
:1013600003F900421005024001000001FE4800217F
:1013700001604160018170472DE9F743044692B056
:101380009146406813F00EF840B1606813F013F80E
:1013900020B9607800F00300022801D0012000E0AD
:1013A0000020F14E3072484612F0B8FF18B11020FC
:1013B00015B0BDE8F0834946012001F018FF002870
:1013C000F6D101258DF842504FF4C050ADF84000E1
:1013D000002210A9284606F047FC0028E8D18DF825
:1013E00042504FF428504FF00008ADF840004746F7
:1013F0001C216846CDF81C8022F07BFF9DF81C0064
:1014000008AA20F00F00401C20F0F00010308DF8EA
:101410001C0020788DF81D0061789DF81E0061F396
:10142000420040F001008DF81E009DF800000AA95E
:1014300040F002008DF800002089ADF83000ADF8D2
:101440003270608907AFADF834000B97606810AC5C
:101450000E900A94684606F0FCF90028A8D1BDF861
:10146000200030808DF8425042F60120ADF8400057
:101470009DF81E0008AA20F00600801C20F0010044
:101480008DF81E000220ADF83000ADF8340013A82E
:101490000E900AA9684606F0DCF9002888D1BDF84C
:1014A00020007080311D484600F033F9002887D1B4
:1014B0008DF8425042F6A620ADF840001C21684647
:1014C000CDF81C8022F015FF9DF81C00ADF83450BB
:1014D00020F00F00401C20F0F00010308DF81C00B0
:1014E0009DF81D0008AA20F0FF008DF81D009DF852
:1014F0001E000AA920F0060040F00100801C8DF8B3
:101500001E009DF800008DF8445040F002008DF858
:101510000000CDE90A4711A80E90ADF8305068469A
:1015200006F097F9002899D1BDF82000F08000203E
:101530003EE73EB504460820ADF80000204612F014
:10154000EDFE08B110203EBD2146012001F04FFE06
:101550000028F8D12088ADF804006088ADF80600B6
:10156000A088ADF80800E088ADF80A007E4801AB1D
:101570006A468088002106F071FDBDF80010082938
:10158000E1D003203EBD1FB5044600200290082094
:10159000ADF80800CDF80CD0204612F0BFFE10B117
:1015A000102004B010BD704802AA81884FF6FF7069
:1015B00006F096FF0028F4D1BDF80810082901D0E4
:1015C0000320EEE7BDF800102180BDF80210618015
:1015D000BDF80410A180BDF80610E180E1E701B577
:1015E00082B00220ADF800005F4802AB6A46408836
:1015F000002106F033FDBDF80010022900D00320C1
:101600000EBD1CB5002100910221ADF80010019023
:1016100012F0AAFE08B110201CBD53486A4641884A
:101620004FF6FF7006F05CFFBDF800100229F3D002
:1016300003201CBDFEB54C4C06461546207A0F46CD
:10164000C00705D0084612F069FE18B11020FEBD93
:101650000F20FEBDF82D01D90C20FEBD304612F042
:101660005DFE18BB208801A905F03CFE0028F4D1DE
:1016700030788DF80500208801A906F0CEFC0028FE
:10168000EBD100909DF800009DF8051040F002009D
:101690008DF80000090703D040F008008DF8000025
:1016A0002088694606F056FC0028D6D1ADF80850CF
:1016B00020883B4602AA002106F0D0FCBDF80810A5
:1016C000A942CAD00320FEBD7CB50546002000908B
:1016D00001900888ADF800000C462846019512F0EC
:1016E00061FE18B9204612F03FFE08B110207CBD03
:1016F00015B1BDF8000050B11B486A4601884FF68D
:10170000FF7006F0EDFEBDF8001021807CBD0C20BE
:101710007CBD30B593B0044600200D4600901421E6
:1017200001A822F0E6FD1C2108A822F0E2FD9DF8A8
:101730000000CDF808D020F00F00401C20F0F00091
:1017400010308DF800009DF8010020F0FF008DF8AA
:1017500001009DF8200040F002008DF820000120DB
:101760008DF8460002E000000C02002042F6042042
:10177000ADF8440011A801902088ADF83C006088C5
:10178000ADF83E00A088ADF84000E088ADF842001A
:101790009DF8020006AA20F00600801C20F001003F
:1017A0008DF802000820ADF80C00ADF810000FA86D
:1017B000059001A908A806F04CF8002803D1BDF84F
:1017C00018002880002013B030BD0000F0B5007B69
:1017D000059F1E4614460D46012800D0FFDF0C2051
:1017E00030803A203880002C08D0287A032806D090
:1017F000287B012800D0FFDF17206081F0BDA88979
:10180000FBE72DE9F04786B0144691F80C900E9A4C
:101810000D46B9F1010F0BD01021007B2E8A8846AE
:10182000052807D0062833D0FFDF06B0BDE8F087D3
:101830000221F2E7E8890C2100EB400001EB4000B7
:10184000188033201080002CEFD0E88960810027B9
:101850001AE00096688808F1020301AA696900F09D
:1018600084FF06EB0800801C07EB470186B204EBFF
:101870004102BDF8040090810DF1060140460E3290
:1018800010F018FE7F1CBFB26089B842E1D8CCE7E7
:1018900034201080E889B9F1010F11D0122148439A
:1018A0000E301880002CC0D0E88960814846B9F11C
:1018B000010F00D00220207300270DF1040A1FE061
:1018C0000621ECE70096688808F1020301AA69691D
:1018D00000F04BFF06EB0800801C86B2B9F1010F47
:1018E00012D007EBC70004EB4000BDF80410C18123
:1018F00010220AF10201103022F05AFC7F1CBFB204
:101900006089B842DED890E707EB470104EB41025B
:10191000BDF80400D0810AF102014046103210F0F7
:10192000C9FDEBE72DE9F0470E4688B090F80CC0F2
:1019300096F80C80378AF5890C20109902F10C0476
:101940004FF0000ABCF1030F08D0BCF1040F3ED0E9
:10195000BCF1070F7DD0FFDF08B067E705EB850C12
:1019600000EB4C00188031200880002AF4D0A8F148
:10197000060000F0FF09558125E0182101A822F09A
:10198000B8FC00977088434601AA716900F0EDFE2B
:10199000BDF804002080BDF80600E080BDF8080016
:1019A0002081A21C0DF10A01484610F083FDB9F117
:1019B000000F00D018B184F804A0A4F802A007EB2F
:1019C000080087B20A346D1EADB2D6D2C4E705EB6B
:1019D000850C00EB4C00188032200880002ABBD018
:1019E000A8F1050000F0FF09558137E000977088E5
:1019F000434601AA716900F0B8FE9DF80600BDF8E3
:101A00000410E1802179420860F3000162F3410192
:101A1000820862F38201C20862F3C301020962F321
:101A20000411420962F34511820962F386112171A2
:101A3000C0096071BDF80700208122460DF109013F
:101A4000484610F037FD18B184F802A0A4F800A0B1
:101A500000E007E007EB080087B20A346D1EADB264
:101A6000C4D279E7A8F1020084B205FB08F000F1C6
:101A70000E0CA3F800C035230B80002AA6D0558198
:101A80009481009783B270880E32716900F06DFE08
:101A900062E72DE9F84F1E460A9D0C4681462AB1A1
:101AA000607A00F58070D080E089108199F80C0090
:101AB0000C274FF000084FF00E0A0D2873D2DFE814
:101AC00000F09E070E1C28303846556A7373730069
:101AD000214648460095FFF779FEBDE8F88F207B48
:101AE0009146082802D0032800D0FFDF378030203D
:101AF0000AE000BFA9F80A80EFE7207B914604289E
:101B000000D0FFDF378031202880B9F1000FF1D1FC
:101B1000E3E7207B9146042800D0FFDF37803220A6
:101B2000F2E7207B9146022800D0FFDF3780332088
:101B3000EAE7207B1746022800D0FFDF3420A6F812
:101B400000A02880002FC8D0A7F80A80C5E7207B16
:101B50001746042800D0FFDF3520A6F800A0288013
:101B6000002FBAD04046A7F80A8012E0207B174623
:101B7000052802D0062800D0FFDF10203080362054
:101B80002880002FA9D0E0897881A7F80E80B9F8C5
:101B90000E00B881A1E7207B9146072800D0FFDF27
:101BA00037803720B0E72AE04FF0120018804FF05E
:101BB00038001700288090D0E0897881A7F80E803F
:101BC000A7F8108099F80C000A2805D00B2809D036
:101BD0000C280DD0FFDF80E7207B0A2800D0FFDF34
:101BE00001200AE0207B0B2800D0FFDF042004E066
:101BF000207B0C2800D0FFDF052038736DE7FFDF66
:101C00006BE770B50C46054601F025FC20B1007865
:101C1000222804D2082070BD43F2020070BD0521C5
:101C200028460EF0C5FE206008B1002070BD0320DC
:101C300070BD30B44880087820F00F00C01C20F040
:101C4000F000903001F8080B1DCA81E81D0030BC7F
:101C500007F0E3BB2DE9FF4784B0002782460297D7
:101C600007989046894612300AF014F9401D20F07A
:101C70000306079828B907A95046FFF7C2FF0028B6
:101C800054D1B9F1000F05D00798017B19BB052588
:101C900004681BE098F80000092803D00D2812D032
:101CA000FFDF46E0079903254868B0B3497B4288C7
:101CB0007143914239D98AB2B3B2011D0EF0EBFCE7
:101CC0000446078002E0079C042508340CB12088F4
:101CD00010B1032D29D02CE00798012112300AF011
:101CE0000BF9ADF80C00024602AB2946504608F04D
:101CF000F0F9070001D1A01C029007983A46123073
:101D0000C8F80400A8F802A003A94046029B0AF004
:101D100000F9D8B10A2817D200E006E0DFE800F0A9
:101D200007091414100B0D141412132014E60020CC
:101D300012E6112010E608200EE643F203000BE63F
:101D4000072009E60D2007E6032005E6BDF80C0094
:101D50002346CDE900702A465046079900F015FD4C
:101D600057B9032D08D10798B3B2417B406871433E
:101D70008AB2011D0EF0A3FCB9F1000FD7D007996C
:101D800081F80C90D3E72DE9FE4F91461A881C4646
:101D90008A468046FAB102AB494608F09AF9050036
:101DA00019D04046A61C27880EF046FF324607266B
:101DB00029463B4600960EF054FB20882346CDE989
:101DC00000504A465146404600F0DFFC002020808B
:101DD0000120BDE8FE8F0020FBE710B586B01C4651
:101DE000AAB104238DF800301388ADF8083052886A
:101DF000ADF80A208A788DF80E200988ADF80C100D
:101E000000236A462146FFF725FF06B010BD1020CB
:101E1000FBE770B50D4605210EF0CAFD040000D1A8
:101E2000FFDF294604F11200BDE870400AF04DB80A
:101E30002DE9F8430D468046002607F0EBFA0446EC
:101E40002878102878D2DFE800F0773B345331311E
:101E5000123131310831313131312879001FC0B2AE
:101E6000022801D0102810D114BBFFDF35E004B9DF
:101E7000FFDF052140460EF09BFD007B032806D0C6
:101E800004280BD0072828D0FFDF072655E0287943
:101E9000801FC0B2022820D050B1F6E72879401F39
:101EA000C0B2022819D0102817D0EEE704B9FFDF1E
:101EB00013E004B9FFDF287901280ED1172137E09C
:101EC000052140460EF074FD070000D1FFDF07F149
:101ED0001201404609F0D6FF2CB12A462146404661
:101EE000FFF7A7FE29E01321404602F0A7FD24E0FA
:101EF00004B9FFDF052140460EF05AFD060000D16F
:101F0000FFDF694606F1120009F0C6FF060000D0A7
:101F1000FFDFA988172901D2172200E00A46BDF881
:101F20000000824202D9014602E005E01729C5D32C
:101F3000404600F03AFCD0E7FFDF3046BDE8F883CA
:101F4000401D20F0030219B102FB01F0001D00E06A
:101F500000201044704713B5009848B1002468462B
:101F60000EF043FB002C02D1F74A009911601CBD12
:101F700001240020F4E72DE9F0470C461546242102
:101F8000204622F0B6F905B9FFDFA87860732888EB
:101F9000DFF8B4A3401D20F00301AF788946DAF8DA
:101FA00000000EF040FB060000D1FFDF4FF00008FC
:101FB0002660A6F8008077B109FB07F1091D0AD059
:101FC000DAF800000EF02FFB060000D1FFDF66609C
:101FD000C6F8008001E0C4F80480298804F11200EA
:101FE000BDE8F04709F040BF2DE9F047804601F118
:101FF00012000D46814609F04DFF401DD24F20F0E2
:1020000003026E7B1446296838680EF037FB3EB138
:1020100004FB06F2121D03D0696838680EF02EFB2F
:1020200005200EF06DFC044605200EF071FC201A10
:10203000012802D138680EF0EBFA49464046BDE867
:10204000F04709F026BF70B5054605210EF0B0FC3B
:10205000040000D1FFDF04F112012846BDE8704002
:1020600009F010BF2DE9F04F91B04FF0000BADF823
:1020700034B0ADF804B047880C46054692460521B9
:1020800038460EF095FC060000D1FFDF24B1A78092
:10209000A4F806B0A4F808B0297809220B20B2EB06
:1020A000111F7DD12A7A04F1100138274FF00C0856
:1020B0004FF001090391102A73D2DFE802F072F2A7
:1020C000F1F07F08D2888D9F3DDBF3EEB6B6307B12
:1020D000022800D0FFDFA88908EBC001ADF804108A
:1020E0003021ADF83410002C25D06081B5F80E9069
:1020F00000271DE004EBC708317C88F80E10F18939
:10210000A8F80C10CDF800906888042304AA296967
:1021100000F02BFBBDF81010A8F8101009F1040016
:10212000BDF812107F1C1FFA80F9A8F81210BFB278
:102130006089B842DED80DE1307B022800D0FFDF95
:10214000E98908EBC100ADF804003020ADF8340097
:10215000287B0A90001FC0B20F90002CEBD0618149
:10216000B5F81090002725E0CDF8009068886969DF
:1021700003AA0A9B00F0F9FA0A9804EBC70848443E
:102180001FFA80F908F10C0204A90F9810F092F9D7
:1021900018B188F80EB0A8F80CB0BDF80C1001E02A
:1021A000D4E0CFE0A8F81010BDF80E107F1CA8F8FE
:1021B0001210BFB26089B842D6D8CBE00DA800900B
:1021C00001AB224629463046FFF71BFBC2E0307BBD
:1021D000082805D0FFDF03E0307B082800D0FFDFB0
:1021E000E8891030ADF804003620ADF83400002C3A
:1021F0003FD0A9896181F189A18127E0307B09283D
:1022000000D0FFDFA88900F10C01ADF804103721E0
:10221000ADF83410002C2CD06081E8890090AB8997
:10222000688804F10C02296956E0E88939211030E8
:1022300080B2ADF80400ADF83410002C74D0A98938
:102240006181287A0E280AD002212173E989E1816F
:10225000288A0090EB8968886969039A3CE001212B
:10226000F3E70DA8009001AB224629463046FFF760
:1022700059FB6FE0307B0A2800D0FFDF1220ADF859
:102280000400ADF834704CB3A9896181A4F810B092
:10229000A4F80EB084F80C905CE020E002E031E09D
:1022A00039E042E0307B0B2800D0FFDF288AADF810
:1022B00034701230ADF8040084B104212173A9896F
:1022C0006181E989E181298A2182688A00902B8ACB
:1022D000688804F11202696900F047FA3AE0307B3D
:1022E0000C2800D0FFDF1220ADF80400ADF83470E8
:1022F0003CB305212173A4F80AB0A4F80EB0A4F8E9
:1023000010B027E00DA8009001AB224629463046C8
:10231000FFF75CFA1EE00DA8009001AB22462946AB
:102320003046FFF7B6FB15E034E03B21ADF8040082
:10233000ADF8341074B3A4F80690A4F808B084F88B
:102340000AB007E0FFDF05E010000020297A01292C
:1023500017D0FFDFBDF80400AAF800006CB1BDF88B
:1023600034002080BDF804006080BDF834003928B6
:1023700003D03C2801D086F80CB011B00020BDE895
:10238000F08F3C21ADF80400ADF8341014B1697A37
:10239000A172DFE7AAF80000EFE72DE9F8435688BD
:1023A0000F4680461546052130460EF001FB04001D
:1023B00000D1FFDF123400943B46414630466A6844
:1023C00009F0DBFEBAE570B50D4605210EF0F0FA16
:1023D000040000D1FFDF294604F11200BDE870407F
:1023E00009F065BD70B50D4605210EF0E1FA040057
:1023F00000D1FFDF294604F11200BDE8704009F06A
:1024000083BD70B5054605210EF0D2FA040000D157
:10241000FFDF04F1080321462846BDE8704004228E
:10242000B1E470B5054605210EF0C2FA040000D1F2
:10243000FFDF214628462368BDE870400522A2E45C
:1024400070B5064605210EF0B3FA040000D1FFDF97
:1024500004F1120009F01EFD401D20F0030511E0FB
:10246000011D00880322431821463046FFF78BFCEC
:1024700000280BD0607BABB2684382B26068011D5C
:102480000EF053F9606841880029E9D170BD70B53C
:102490000E46054606F0BEFF040000D1FFDF012016
:1024A000207266726580207820F00F00C01C20F03A
:1024B000F00030302070BDE8704006F0AEBF2DE96E
:1024C000F0438BB00D461446814606A9FFF799FBF1
:1024D000002814D14FF6FF7601274FF420588CB115
:1024E00003208DF800001020ADF8100007A805901B
:1024F00007AA204604A90FF0FCFF78B107200BB013
:10250000BDE8F0830820ADF808508DF80E708DF806
:102510000000ADF80A60ADF80C800CE00698A178D8
:1025200001742188C1818DF80E70ADF80850ADF8A6
:102530000C80ADF80A606A4602214846069BFFF708
:1025400089FBDCE708B501228DF8022042F6020281
:10255000ADF800200A4603236946FFF73EFC08BD9C
:1025600008B501228DF8022042F60302ADF80020E2
:102570000A4604236946FFF730FC08BD00B587B062
:1025800079B102228DF800200A88ADF80820498828
:10259000ADF80A1000236A460521FFF75BFB07B080
:1025A00000BD1020FBE709B1072316E407207047A0
:1025B00070B588B00D461446064606A9FFF721FB04
:1025C00000280ED17CB10620ADF808508DF800002F
:1025D000ADF80A40069B6A460821DC813046FFF7C9
:1025E00039FB08B070BD05208DF80000ADF808502B
:1025F000F0E700B587B059B107238DF80030ADF88A
:102600000820039100236A460921FFF723FBC6E750
:102610001020C4E770B588B00C460646002506A910
:10262000FFF7EFFA0028DCD106980121123009F0FB
:1026300063FC9CB12178062921D2DFE801F0200556
:1026400005160318801E80B2C01EE28880B20AB14F
:10265000A3681BB1824203D90C20C2E71020C0E757
:10266000042904D0A08850B901E00620B9E7012967
:1026700013D0022905D004291CD005292AD007200F
:10268000AFE709208DF800006088ADF80800E08809
:10269000ADF80A00A068039023E00A208DF800003E
:1026A0006088ADF80800E088ADF80A00A0680A2547
:1026B000039016E00B208DF800006088ADF808004C
:1026C000A088ADF80A00E088ADF80C00A0680B25E2
:1026D000049006E00C208DF8000060788DF808006A
:1026E0000C256A4629463046069BFFF7B3FA78E781
:1026F00000B587B00D228DF80020ADF8081000233A
:102700006A461946FFF7A6FA49E700B587B071B1E6
:1027100002228DF800200A88ADF808204988ADF81B
:102720000A1000236A460621FFF794FA37E71020C3
:1027300035E770B586B0064601200D46ADF80810A5
:102740008DF80000014600236A463046FFF782FA02
:10275000040008D12946304605F09AFC0021304695
:1027600005F0B4FC204606B070BDF8B51C46154611
:102770000E46069F0EF04EFA2346FF1DBCB23146B0
:102780002A4600940DF039FEF8BD30B41146DDE95B
:1027900002423CB1032903D0002330BC08F022BB25
:1027A0000123FAE71A8030BC704770B50C46054625
:1027B000FFF72FFB2146284605F079FC2846BDE8A7
:1027C0007040012105F082BC4FF0E0224FF400413F
:1027D0000020C2F88011204908702049900208604A
:1027E000704730B51C4D04462878A04218BF002C15
:1027F00002D0002818BFFFDF2878A04208BF30BDF4
:102800002C701749154A0020ECB1164DDFF858C05E
:10281000131F012C0DD0022C1CBFFFDF30BD086040
:1028200003200860CCF800504FF4000010601860DE
:1028300030BD086002200860CCF800504FF04070B6
:102840001060186030BD086008604FF06070106064
:1028500030BD00B5FFDF00BD1800002008F50140C5
:1028600000F500408C02002014F5004070B50B20EC
:1028700000F0B5F9082000F0B2F900210B2000F0BB
:10288000C4F90021082000F0C0F9EC4C0125656076
:10289000A5600020C4F84001C4F84401C4F8480110
:1028A0000B2000F0A7F9082000F0A4F90B2000F09D
:1028B0008BF9256070BD10B50B2000F090F9082051
:1028C00000F08DF9DD48012141608160DC490A6832
:1028D000002AFCD10021C0F84011C0F84411C0F812
:1028E00048110B2000F086F9BDE81040082000F0E8
:1028F00081B910B50B2000F07DF9BDE8104008202B
:1029000000F078B900B530B1012806D0022806D011
:10291000FFDF002000BDCB4800BDCB4800BDCA484A
:10292000001D00BD70B5C9494FF000400860C84D9A
:10293000C00BC5F80803C74800240460C5F840412F
:102940000820C43500F04BF9C5F83C41C24804707A
:1029500070BD08B5B94A002128B1012811D002285C
:102960001CD0FFDF08BD4FF48030C2F80803C2F866
:102970004803B3483C300160C2F84011BDE808404C
:10298000D0E74FF40030C2F80803C2F84803AC485F
:1029900040300160C2F84411AB480CE04FF4802095
:1029A000C2F80803C2F84803A54844300160C2F8E1
:1029B0004811A548001D0068009008BD70B5164676
:1029C0000D460446022800D9FFDF00229B48012360
:1029D00004F110018B4000EB8401C1F8405526B191
:1029E000C1F84021C0F8043303E0C0F80833C1F84F
:1029F0004021C0F8443370BD2DE9F0411C46154616
:102A000030B1012834D0022839D0FFDFBDE8F08191
:102A1000891E002221F07F411046FFF7CFFF012CD5
:102A200024D000208C4E8A4F012470703C6189496B
:102A300000203C3908600220091D086085490420F7
:102A40003039086083483D350560C7F800420820EA
:102A500000F0D0F82004C7F80403082000F0B4F810
:102A60007A49E007091F08603470CFE70120D9E7F1
:102A7000012B02D00022012005E00122FBE7012BFF
:102A800004D000220220BDE8F04197E70122F9E7D7
:102A90006B480068704770B500F0C7F8674C054692
:102AA000D4F840010026012809D1D4F80803C00356
:102AB00005D54FF48030C4F80803C4F84061D4F859
:102AC000440101280CD1D4F80803800308D54FF441
:102AD0000030C4F80803C4F84461012010F0CDFCB4
:102AE000D4F8480101280CD1D4F80803400308D5D4
:102AF0004FF48020C4F80803C4F84861022010F0A5
:102B0000BCFC5648056070BD70B500F08EF8524DA3
:102B10000446287858B1FFF705FF687820B10020F7
:102B200085F8010010F0A9FC4C48046070BD03203A
:102B3000F8E74FF0E0214FF40010C1F800027047B1
:102B4000152000F057B8424901200861082000F024
:102B500051B83F494FF47C10C1F8080300200246E9
:102B600001EB8003C3F84025C3F84021401CC0B2EC
:102B70000628F5D37047410A43F609525143C0F382
:102B8000080010FB02F000F5807001EB5020704748
:102B900010B5430B48F2376463431B0C5C020C60B6
:102BA0002F4C03FB04002F4B4CF2F72443435B0DE7
:102BB00013FB04F404EB402000F580704012107009
:102BC00008681844086010BD00F01F020121914000
:102BD0004009800000F1E020C0F80011704700F0CB
:102BE0001F02012191404009800000F1E020C0F85F
:102BF0008011704700F01F020121914040098000C0
:102C000000F1E020C0F8801270474907090E002843
:102C100006DA00F00F0000F1E02080F8141D704784
:102C200000F1E02080F8001470470C48001F006895
:102C30000A4A0D49121D11607047000000B00040A3
:102C400004B500404081004044B1004008F5014017
:102C500000800040408500403800002014050240FC
:102C6000F7C2FFFF6F0C0100010000010A4810B518
:102C70000468094909480831086010F092FC0648C8
:102C8000001D046010BD0649002008604FF0E021DF
:102C90000220C1F8800270471005024001000001C7
:102CA000FC1F004010B50D2000F06FF8C4B26FF0AB
:102CB000040000F06AF8C0B2844200D0FFDF3A4955
:102CC0000120086010BD70B50D2000F048F8374CA9
:102CD0000020C4F800010125C4F804530D2000F0C1
:102CE00049F825604FF0E0216014C1F8000170BD83
:102CF00010B50D2000F033F82C480121416000216F
:102D0000C0F80011BDE810400D2000F033B828488D
:102D100010B5046826492748083108602349D1F8CE
:102D20000001012804D0FFDF2148001D046010BD10
:102D30001D48001D00680022C0B2C1F8002110F03B
:102D4000E7FFF1E710B51948D0F800110029FBD0D2
:102D5000FFF7DDFFBDE810400D2000F00BB800F0DC
:102D60001F02012191404009800000F1E020C0F8DD
:102D70008011704700F01F0201219140400980003E
:102D800000F1E020C0F880127047002806DA00F059
:102D90000F0000F1E02090F8140D03E000F1E020B6
:102DA00090F800044009704704D5004000D000406E
:102DB000100502400100000110B5202000F082F84B
:102DC000202000F08AF84A49202081F8000449496F
:102DD00000060860091D48480860FEF79DFA45494D
:102DE000C83108604548D0F8041341F00101C0F82B
:102DF0000413D0F8041341F08071C0F804133C4967
:102E000001201C39C1F8000110BD10B5202000F0D0
:102E100059F8384800210160001D0160354A481EFC
:102E2000E83A1060354AC2F80803324BC8331960DB
:102E3000C2F80001C2F8600131490860BDE81040E5
:102E4000202000F04AB82B492E48EC390860704722
:102E500028492C48E8390860704726480160001D61
:102E6000521E0260704723490120E8390860BFF311
:102E70004F8F704770B51F4A8069E83A2149116049
:102E80001E49D1F8006100231F4D1D4A5C1E1EB172
:102E9000A84206D300210FE0D1F8606186B1A842B4
:102EA00009D2C1F80031C1F860311460BDE870404A
:102EB000202000F012B81168BDE8704021F040BA3F
:102EC000FFDF70BD00F01F0201219140400980002A
:102ED00000F1E020C0F88011704700F01F020121CE
:102EE00091404009800000F1E020C0F88012704756
:102EF00020E000E000060240C41400200000024070
:102F00000004024001000001006002000F4A126844
:102F10000D498A420CD118470C4A12680A4B9A4252
:102F200006D101B510F06EFFFFF78DFFBDE801403F
:102F3000074909680958084706480749054A064BE2
:102F40007047000000000000BEBAFECAB0000020BA
:102F500004000020E0120020E012002070B50C46B2
:102F6000054609F0A7FA21462846BDE870400AF058
:102F70008CBB10B511F0B0FBFFF726FC11F04CFA3A
:102F8000BDE8104011F0FEBA0120810708607047CB
:102F9000012081074860704712480068C00700D0D0
:102FA000012070470F48001F0068C00700D00120B3
:102FB00070470C4808300068C00700D001207047F7
:102FC000084810300068704706490C310A68D2037F
:102FD00006D5096801F00301814201D10120704743
:102FE000002070470C0400407047704770477047DE
:102FF000704770477047704770470004050600002F
:103000002CFFFFFFDBE5B15100600200A800FFFFCD
:1030100084000000808D5B0016425791AD5F58BC64
:103020008E702F5A0FAA100DBCD52BFD30B5FC4D5C
:103030000446062CA9780ED2DFE804F0030E0E0E2B
:103040000509FFDF08E0022906D0FFDF04E00329BD
:1030500002D0FFDF00E0FFDFAC7030BD30B50446CA
:103060001038EF4D07280CD2DFE800F0040C060CF6
:103070000C0C0C00FFDF05E0287E112802D0FFDFDA
:1030800000E0FFDF2C7630BD2DE9F0410FF09CFB16
:10309000044610F038FD201AC5B206200DF030FCB1
:1030A000044606200DF034FC211ADD4C207E122847
:1030B00018D000200F1807200DF022FC064607202C
:1030C0000DF026FC301A3918207E13280CD0002071
:1030D0000144A078042809D000200844281AC0B26E
:1030E000BDE8F0810120E5E70120F1E70120F4E7E8
:1030F000CB4810B590F825004108C94800F12600DA
:1031000005D00BF0B6FABDE8104005F0AFBF0BF0EC
:1031100089FAF8E730B50446A1F120000D460A28E7
:103120004AD2DFE800F005070C1C2328353A3F445B
:10313000FFDF42E0207820283FD1FFDF3DE0B848A4
:103140008178052939D0007E122836D020782428AD
:1031500033D0252831D023282FD0FFDF2DE0207851
:1031600022282AD0232828D8FFDF26E0207822280A
:1031700023D0FFDF21E0207822281ED024281CD075
:1031800026281AD0272818D0292816D0FFDF14E0C7
:103190002078252811D0FFDF0FE0207825280CD0DB
:1031A000FFDF0AE02078252807D0FFDF05E0207840
:1031B000282802D0FFDF00E0FFDF257030BD10B50A
:1031C000012803D0022805D0FFDF10BDBDE8104064
:1031D00003202BE79248007E122800D0FFDF002159
:1031E000052011F04FF8BDE81040112036E71FB55B
:1031F00004466A46002001F01FFEB4B1BDF802206B
:103200004FF6FF700621824201D1ADF80210BDF8E1
:103210000420824201D1ADF80410BDF808108142AB
:1032200003D14FF44860ADF8080068460BF089FF01
:1032300005F01CFF04B010BD70B514460D460646DF
:1032400011F06CF858B90DB1A54201D90C2070BD30
:10325000002408E056F8240011F060F808B11020AE
:1032600070BD641CE4B2AC42F4D3002070BD2DE903
:10327000F04105461F4690460E460024006811F0B6
:103280009AF808B110202BE728680028A88802D0F7
:10329000B84202D84FE00028F5D0092020E728687E
:1032A000025DB2B1611C475C152F2DD03BDC3AD2D8
:1032B000DFE807F03912222228282A2A3131393949
:1032C00039393939393939392200025D32BB641C48
:1032D000A4B2A142F9D833E0022ADED1A21C805C5C
:1032E00088F80000072801D2400701D40A20F7E639
:1032F000307840F0010015E0D043C00707E0012A14
:1033000007D010E00620EBE61007A0F1805000285F
:10331000F5D01846E4E63078820701D50B20DFE6C9
:1033200040F0020030702868005D084484B2A8882C
:10333000A04202D2B1E74FF4485381B2A142AED8C5
:103340000020CDE610B5027843F202235408012292
:10335000022C12D003DC3CB1012C16D106E0032C68
:1033600010D07F2C11D112E0002011E080790324CD
:10337000B4EB901F09D10A700BE08079B2EB901F7B
:1033800003D1F8E780798009F5D0184610BDFF20F9
:103390000870002010BD224991F82E2042B191F80A
:1033A0002F10022909D0032909D043F202207047C7
:1033B00001461B48253001F092BD032100E00121A8
:1033C00001700020704738B50C460546694601F08B
:1033D00086FD00280DD19DF80010207861F347008C
:1033E000207055F8010FC4F80100A888A4F8050062
:1033F000002038BD38B51378B0B1022814D0FF28AA
:103400001BD008A46D46246800944C7905EB9414F5
:10341000247864F34703137003280AD010E00000F7
:10342000D80100200302FF0123F0FE0313700228DD
:10343000F2D1D8B240F0010005E043F0FE00107078
:10344000107820F0010010700868C2F80100888828
:10345000A2F8050038BD02210DF0AABA38B50C4615
:103460000978222901D2082038BDADF800008DF876
:10347000022068460BF044F905F0F8FD050003D181
:1034800021212046FFF746FE284638BD1CB5002006
:103490008DF80000CDF80100ADF80500FE4890F869
:1034A0002E00022801D0012000E000208DF8070046
:1034B00068460BF056FB002800D0FFDF1CBD002241
:1034C0000A80437892B263F345120A8043785B081E
:1034D00063F386120A8000780C282BD2DFE800F014
:1034E0002A06090E1116191C1F220C2742F0110082
:1034F00009E042F01D0008800020704742F01100F2
:1035000012E042F0100040F00200F4E742F0100038
:10351000F1E742F00100EEE742F0010004E042F082
:103520000200E8E742F0020040F00400E3E742F066
:103530000400E0E7072070472DE9FF478AB0002527
:10354000BDF82C6082461C4690468DF81C507007D2
:1035500003D5606810F0E2FE68B9CF4F4FF0010963
:1035600097F82E0058B197F82F00022807D160680D
:1035700010F021FF18B110200EB0BDE8F087300721
:1035800002D5A089802816D8700705D4B8F1000F9D
:1035900002D097F8240070B1E07DC0F300108DF8E0
:1035A0001B00617D072041B1012906D00229E3D02B
:1035B0000429E1D12CE00720DEE749468DF8179079
:1035C000F00609D4A27D072032B1012A04D0022AD4
:1035D00005D0042AD0D11BE08DF8191002E002209A
:1035E0008DF819008DF815806068B0B107A9FFF754
:1035F000A9FE0028C0D19DF81C00FF280AD06068F1
:1036000050F8011FCDF80F108088ADF8130008E0C6
:103610000620B1E743F20220AEE7CDF80F50ADF837
:103620001350E07B0028F3D1207C0028F0D1607C8F
:103630000028EDD1A07C0028EAD1E07CC006E7D1CB
:103640008DF800A0BDF82C00ADF80200A068019034
:10365000A068029004F10F0001F035FC8DF80C0019
:103660000DF10D00FFF797FE00B1FFDF9DF81C0084
:103670008DF80E008DF816508DF81850E07D08A9D1
:1036800000F00F008DF81A0068460BF036FF05F0C9
:10369000EDFC71E7F0B59DB000228DF868208DF843
:1036A00058208DF8602005468DF86C2012921392F8
:1036B0001492159219B10FC912AC84E80F00764C20
:1036C000A078052801D004280CD11298616888429E
:1036D00000D120B91498E168884203D110B10820C4
:1036E0001DB0F0BD1F26334618AA1AA912A8FFF76D
:1036F000BEFD0028F4D133461BAA16A914A8FFF773
:10370000B6FD0028ECD19DF85800C00701D00A2072
:10371000E6E7A08A410708D4A17D31B19DF8601089
:10372000890702D043F20120DAE79DF86010C9074B
:1037300009D0400707D4208818B144F2506188426C
:1037400001D90720CCE78DF8005003268DF80160E1
:1037500001278DF80270BDF84C208DF8032001A8D8
:10376000129920F025FD68460BF028FF05F07EFC3D
:103770000028B5D18DF824508DF825608DF826707D
:10378000BDF854208DF827200AA8149920F010FDC8
:1037900009A80BF060FF05F069FC0028A0D112AD6C
:1037A000241D95E80F0084E80F00002098E770B50D
:1037B00086B00D46040005D010F0FDFD20B11020AC
:1037C00006B070BD0820FBE72078C107A98802D0A9
:1037D000FF2902D303E01F2901D20920F0E7800767
:1037E00061D4FFF751FC38B12078C0F3C101012941
:1037F00004D0032902D005E01320E1E7264991F81F
:10380000241041B1C0074FF000054FF0010604D06D
:103810008DF80F6003E00720D2E78DF80F5068465F
:10382000FFF7B9FD00B1FFDF2078C0F3C1008DF8CC
:1038300001008DF80250607808B98DF80260607858
:10384000C00705D09DF8020040F001008DF802008D
:103850006078800705D59DF8020040F002008DF8E1
:1038600002006078400705D59DF8020040F0040092
:103870008DF802002078C0F380008DF80300608886
:10388000ADF80600A088ADF80A00207A58B9607A31
:1038900048B9A07A38B901E0D8010020E07A10B91F
:1038A000207BC00601D006208AE704F1080001F061
:1038B0000AFB8DF80E0068460BF087F905F0D6FB81
:1038C00000288BD18DF810608DF81150ADF8125092
:1038D000ADF8145004A80BF0FDF905F0C7FB002863
:1038E0008BD1E08864280AD248B1012001F001FBA5
:1038F000002891D12078C00705D0152004E064216C
:10390000B0FBF1F0F2E71320FFF7A8FB002057E728
:103910002DE9FF470220FF4E8DF804000027708E2E
:10392000ADF80600B84643F202094CE001A80CF0DD
:10393000A6FF050006D0708EA8B3A6F83280ADF8B9
:1039400006803EE0039CA07F01072DD504F12400F2
:103950000090A28EBDF80800214604F1360301F064
:1039600054FC050005D04D452AD0112D3CD0FFDF79
:103970003AE0A07F20F00801E07F420862F3C7111F
:10398000A177810861F30000E07794F8210000F04E
:103990001F0084F820002078282826D129212046DD
:1039A000FFF7B8FB21E014E040070AD5BDF8080096
:1039B00004F10E0101F0ABFA05000DD04D4510D118
:1039C00000257F1CFFB202200CF09AFF401CB84279
:1039D000ACD8052D11D008E0A07F20F00400A0771E
:1039E00003E0112D00D0FFDF0025BDF80600708632
:1039F000052D04D0284604B0BFE5A6F8328000208B
:103A0000F9E770B50646FFF726FD054605F002FD0D
:103A1000040000D1FFDF6680207820F00F00801CBA
:103A200020F0F000203020700620207295F83E0033
:103A30006072BDE8704005F0F0BC2DE9F04786B03B
:103A4000040000D1FFDF2078B24D20F00F00801C71
:103A500020F0F0007030207060680178491F1B2949
:103A600033D2DFE801F0FE32323255FD320EFDFD79
:103A700042FC32323278FCFCFB323232FCFCFAF986
:103A8000FC00C6883046FFF7E6FC0546304607F0E6
:103A9000A7F8E0B16068007A85F83E002121284649
:103AA000FFF738FB3046FEF7CEFA304603F016FE3D
:103AB0003146012010F0E6FBA87F20F01000A87727
:103AC000FFF726FF002800D0FFDF06B055E520787D
:103AD00020F0F000203020700620207266806068A0
:103AE000007A607205F099FCD8E7C5882846FFF790
:103AF000B2FC00B9FFDF60680079012800D0FFDF69
:103B00006068017A06B02846BDE8F04707F044BC7B
:103B1000C6883046FFF79FFC050000D1FFDF05F0A7
:103B20007CFC606831460089288160684089688132
:103B300060688089A881012010F0A4FB0020A8758E
:103B4000A87F00F003000228BFD1FFF7E1FE0028A4
:103B5000BBD0FFDFB9E70079022811D000B1FFDF49
:103B600005F05BFC6668B6F806A0307A361D0128C1
:103B70000CD0687E814605F0E5F9070009D107E021
:103B800006B00220BDE8F047FFF719BBE878F1E77F
:103B9000FFDF0022022150460CF001FF040000D19B
:103BA000FFDF22212046FFF7B5FA3079012800D047
:103BB0000220A17F804668F30101A177308B20812C
:103BC000708B6081B08BA08184F822908DF8088082
:103BD000B8680090F86801906A46032150460CF0DE
:103BE000DEFE00B9FFDFB888ADF81000B8788DF8B8
:103BF000120004AA052150460CF0D1FE00B9FFDFE7
:103C0000B888ADF80C00F8788DF80E0003AA0421EE
:103C100050460CF0C4FE00B9FFDF062106F1120089
:103C200001F093F938B37079800700D5FFDF71791F
:103C3000E07D61F34700E075D6F80600A061708969
:103C4000A083062106F10C0001F07FF9E8B195F898
:103C500025004108607805E032E02AE047E03FE0D7
:103C600021E035E061F347006070D5F82600C4F824
:103C70000200688D12E0E07D20F0FE00801CE075FF
:103C8000D6F81200A061F08ADAE7607820F0FE0032
:103C9000801C6070F068C4F80200308AE080404602
:103CA000FFF78DFA11E706B02046BDE8F04701F0B6
:103CB00035BD05F0B2FB15F8300F40F0020005E00D
:103CC00005F0ABFB15F8300F40F004002870FCE65F
:103CD000287E132809D01528E4D11620FFF7BEF955
:103CE00006B0BDE8F04705F098BB1420F6E7A978C8
:103CF000052909D00429D5D105F08FFB022006B093
:103D0000BDE8F047FFF792B900790028CAD0E878FB
:103D100002E00000D801002001F0BCF805F07DFBB6
:103D20000320ECE72DE9F05F054600784FF000082E
:103D30000009DFF820A891460C46464601287AD0B3
:103D400001274FF0020C4FF6FF73022874D00728AA
:103D50000BD00A2871D0FFDFA9F8006014B1A4F8D5
:103D6000008066800020BDE8F09F696804F10800CB
:103D70000A78172A70D010DC4FF0000B142A31D0CB
:103D800006DC052A6DD0092A0FD0102A7ED11FE04B
:103D9000152A7CD0162AF9D1F0E01B3A052A75D2F3
:103DA000DFE802F009C5FDDAFC00C8884FF0120810
:103DB0001026214675E14FF01C080A26D4B38888E6
:103DC000A0806868807920726868C0796072C3E7F3
:103DD0004FF01B0814266CB303202072686880889B
:103DE000A080B9E70A793C2AB6D00D1D4FF0100823
:103DF0002C26FCB16988A180298B6182298B2182C4
:103E0000698BA182A98BE1826B790246A91D1846B4
:103E1000FFF7F0FA2879012810D084F80FC0FF20AE
:103E20002076C4F81CB0C4F820B0C4F824B0C4F89C
:103E300028B091E712E013E13BE135E1E7730AF1C5
:103E4000040084F818B090E80E00DAF81000C4E915
:103E50000930C4E907127FE7A8E002E0A9F8006092
:103E600080E72C264FF01D08002CF7D00546A380D4
:103E7000887B2A880F1D60F300022A80887B400817
:103E800060F341022A80887B800801E0E6E0ADE033
:103E900060F382022A80887BB91CC00860F3C302E9
:103EA0002A80B87A0011401C60F3041202F07F00EF
:103EB00028807878AA1CFFF79DFA387D05F1090261
:103EC00007F11501FFF796FA387B01F04DF82874D9
:103ED000787B01F049F86874F87EA874787AE87401
:103EE00097F83B002875B87B6875A5F816B0DAF826
:103EF0001C00A861397ABAF82000884201D2014634
:103F000010E0B87AC0F3411002280BD0012809D084
:103F1000288820F060002880A1840A4607F11C014F
:103F2000A86998E0288820F060004030F3E7112667
:103F30004FF02008002C91D0A380686804F10A0299
:103F4000007920726868007B607269688B1D48790F
:103F50001946FFF74FFAFFE60A264FF02108002C1A
:103F6000E9D08888A0806868807920726868C07904
:103F700060729AF8301021F004018BE00B264FF0AC
:103F80002208002CD7D0C888A080686800792072E9
:103F90006868007A00F0E8FF607201E052E039E002
:103FA0006868407A00F0E0FFA072D5E61C264FF06A
:103FB0002608002CBFD0A3806868407960726868CA
:103FC000007AA0720AF1040090E80E00DAF81000FE
:103FD000C4E90530C4E90312686800793C2803D0BD
:103FE00043287DD0FFDFB7E62772B5E610264FF0F5
:103FF0002408002C9FD08888A08068688079208160
:104000006868807A608168680089A08168688089B2
:10401000E081A1E610264FF02308002C8BD0888881
:10402000A0806868C08820816868008960816868AD
:104030004089A08168688089E0819AF8301021F079
:10404000020127E030264FF02508002C88D0A380FD
:1040500069682822496820F0ABF87DE64A4677E097
:10406000287A012803D0022817D0FFDF74E6102633
:104070004FF01F08002C85D06888A080A889208177
:10408000E8896081288AA081688AE0819AF83010E6
:1040900021F001018AF830105EE64FF01208102678
:1040A000688800F03FFF57E62846BDE8F05F01F062
:1040B000BFBC287A07284DD2DFE800F04C38384AD8
:1040C0004A4A040009264FF01108002C92D06F884C
:1040D0003846FFF7C0F990F822A0A780687A00E080
:1040E0002DE02072042138460CF074FC052138467E
:1040F0000CF070FC002138460CF06CFC01213846B5
:104100000CF068FC032138460CF064FC02213846B0
:104110000CF060FC062138460CF05CFC07213846A8
:104120000CF058FC504600F0B5FE15E614264FF092
:104130001B08002C8AD0A380287A012802D084F89A
:1041400008C009E62772DAE90710C4E9031003E69C
:104150002146A9E7FFDFFFE570B5FE4D287E122856
:1041600001D0082070BD0AF0C3FF04F07FFF0400F7
:1041700002D1687E00F08EFE0021052010F082F84A
:10418000204670BD1CB5F348007E132801D20820DC
:104190001CBD00208DF8000068460AF09BFD04F06D
:1041A00065FF0028F4D10021052010F06BF81120E4
:1041B000FEF754FF00201CBD70B5012805D005286E
:1041C00025D0062800D0FFDF70BD8DB22846FFF74E
:1041D00042F9040000D1FFDF20782128F4D005F057
:1041E00019F968B1017821F00F01891C21F0F00163
:1041F000103101700221017245800020A07528E075
:1042000021462846BDE870401322FFF727B9D14860
:10421000047EA4F1120005281FD2DFE800F0060397
:1042200003030300FFF7AEFF01E0FFF795FF00284F
:10423000CAD105F0EFF80028C6D0017821F00F01AF
:10424000891C21F0F00120310170132C07D00221CC
:104250000172BDE8704005F0E0B8FFDF70BD0121DC
:10426000F6E72DE9F04116460C00804600D1FFDF4D
:10427000307820F00F00801C20F0F00010303070FB
:104280002078012804D0022818D0FFDFBDE8F08193
:104290004046FFF7E0F8050000D1FFDF0320A875D6
:1042A00005F0BBF894E80F00083686E80F00A9482F
:1042B00010F8301F41F001010170E7E74046FFF7B9
:1042C000CAF8050000D1FFDFA1884FF6FF70002774
:1042D000814202D1E288824203D0814201D1E0884A
:1042E00040B105F09AF894E80F00083686E80F0010
:1042F000AF75CBE7A87D0128C8D1782300224146BD
:104300000FF016FF0220A875C0E738B505460C4629
:10431000084610F003F818BB203D062D4AD2DFE80E
:1043200005F0031B373C4230002106200FF080FFD0
:1043300008B1112038BDA01C0AF0AFFF04F096FEB2
:10434000050038D100220823114606200FF0F0FEA8
:10435000062830D0FFDF2EE0606810F023F808B1A7
:10436000102038BD618820886A460BF05FFB04F09E
:104370007DFE05001FD16068E8B1BDF80010018026
:1043800019E0A07800F0010120880BF085FB0EE019
:10439000206801F0FBFD05460DE0207800F00100EB
:1043A0000AF033F903E0618820880BF0C4FA04F0C6
:1043B0005DFEF0E70725284638BD70B505460C467A
:1043C00008460FF0D1FF08B1102070BD202D07D096
:1043D000212D0DD0222D0BD0252D09D0072070BD09
:1043E0002088A11C0AF006FABDE8704004F03EBE29
:1043F000062070BD57482530704708B53421554810
:104400001FF077FF0120FEF711FE1120FEF726FEB8
:1044100050496846263104F093FF4E489DF800202D
:1044200010F8251F62F3470121F0010101700021FE
:1044300041724FF46171A0F8071002218172FEF7FA
:1044400057FE00B1FFDFFCF791FF01F032F908BD24
:1044500010B50C46402120461FF029FFA07F20F018
:104460000300A077202020700020A07584F823008E
:1044700010BD70472DE9FC4107460FF04FFF10B10A
:104480001020BDE8FC81334E06F12501D6F8250049
:104490000090B6F82950ADF8045096F82B408DF8EE
:1044A00006403846FEF78FFF0028EAD1FEF720FECF
:1044B0000028E6D0009946F8251FB580B471E0E7E2
:1044C00010B504460FF050FF08B1102010BD214870
:1044D0002049224690F8250026314008FEF78AFF41
:1044E000002010BDFEB50D4604004FF0000712D0AD
:1044F0000822FEF7A1FE002812D1002609E000BF25
:1045000054F826006946FEF71DFF002808D1761CE6
:10451000F6B2AE42F4D309F07CFF10B143F20320AF
:10452000FEBD0C4E86F8247024B300271EE000BFA9
:1045300054F8270002A9FEF705FF00B1FFDF9DF840
:1045400008008DF8000054F8270050F8011FCDF83E
:10455000011001E0D80100208088ADF80500684610
:1045600009F0A1FF00B1FFDF7F1CFFB2AF42DFD334
:1045700086F824500020FEBD2DE9F0478AB015468C
:10458000894604001ED00F4608222946FEF754FE35
:10459000002810D1002613E054F826006946103098
:1045A00000F09DFC002806D147B157F826000FF017
:1045B000B5FE18B110200AB0BDE8F087761CF6B23F
:1045C000AE42E9D30026A5F101081BE006F1010A7D
:1045D0000AF0FF0712E000BF54F82600017C4A08E9
:1045E00054F827100B7CB2EB530F05D10622113083
:1045F00011311FF0B1FD58B17F1CFFB2AF42EBD3B8
:104600000AF0FF064645E1DB4E4624B1012003E0F7
:1046100043F20520CFE7002009F076FF10B909F03A
:1046200087FF10B143F20420C5E75CB300270DF10A
:10463000170825E054F827006946103000F04FFCB9
:1046400000B1FFDF54F82700102250F8111FCDF8F9
:1046500001108088ADF8050054F827100DF107000F
:104660001FF0A6FD96B156F82710102240461FF005
:104670009FFD684609F0F0FE00B1FFDF7F1CFFB22E
:10468000AF42D7D3FEF702FF002094E7404601F087
:1046900071FCEEE730B585B004460FF03FFE18B967
:1046A00060680FF088FE10B1102005B030BD608842
:1046B0004AF2B811884206D82078FB4D28B101286B
:1046C00006D0022804D00720EFE7FEF711FD18E01E
:1046D0006078022804D0032802D043F20220E4E7E5
:1046E00085F82F00C1B200200090ADF80400022927
:1046F0002CD0032927D0FFDF684609F0BAFF04F069
:10470000B5FC0028D1D1606801F027FC207858B1B1
:1047100001208DF800000DF1010001F02BFC68462E
:104720000BF018FA00B1FFDF207885F82E00FEF7B5
:10473000ADFE608860B1A88580B209F0DDFE00B1F1
:10474000FFDF0020B1E78DF80500D5E74020FAE74C
:104750004FF46170EFE710B504460FF005FE20B985
:10476000606838B10FF01EFE08B1102010BD6068FF
:1047700001F000FCCC4830F82C1F6180C1786170DA
:1047800080782070002010BD2DE9F843144689463A
:1047900006460FF0E9FDA0B948460FF00CFE80B9BF
:1047A00020460FF008FE60B9BF4DA878012800D15F
:1047B0003CB13178FF2906D049B143F20400BDE88D
:1047C000F8831020FBE7012801D00420F7E74FF021
:1047D0000008A4B3052811D004280FD0694620464C
:1047E000FEF76DFE0028EAD1207D48B1012809D0EE
:1047F000022809D0032809D00720E0E70820DEE7D7
:10480000424604E0012202E0022200E003222346A5
:10481000174600200099FEF78FFE0028CFD1A0890F
:104820002880A07BE875BDF80000A882AF75BDF8B0
:104830000000000701D5A08988B1A08928804946D9
:104840000020FEF727FF0028B9D1A87805280BD053
:10485000042809D0287DC00703D0032002E080206F
:10486000ECE70220FEF7E2FB86F800800020A6E7D6
:104870007CB58D4C05460E46A078022803D003284F
:1048800001D008207CBD15B143F204007CBD072097
:104890000CF03EF810B9A078032806D0FEF7F4FB20
:1048A00028B1A078032804D009E012207CBD132091
:1048B0007CBD304600F0CDFA0028F9D1E670012029
:1048C0008DF800008DF801008DF802502088ADF8B9
:1048D0000400E07D8DF8060068460AF0EAFF04F067
:1048E000C5FB0028E4D1A078032805D05FF00400C0
:1048F000FEF79CFB00207CBDE07800F0BAFA0520B2
:10490000F6E71CB510B143F204001CBD664CA0785C
:10491000042803D0052801D008201CBD00208DF8F4
:10492000000001218DF801108DF8020068460AF0A0
:10493000C0FF04F09BFB0028EFD1A078052805D02C
:104940005FF00200FEF772FB00201CBDE07800F073
:10495000A1FA0320F6E72DE9FC4180460E46032527
:1049600008460FF028FD002866D14046FEF773FD8B
:10497000040004D02078222804D2082081E543F2E4
:1049800002007EE5A07F00F003073EB1012F0CD0AE
:1049900000203146FEF72BFC0500EFD1012F06D099
:1049A000022F1AD0FFDF28466BE50120F1E7A07D3A
:1049B0003146022801D011B107E0112061E56846B7
:1049C000FCF7E1FD0028D9D16946404606F0A7FC76
:1049D0000500E8D10120A075E5E7A07D032804D1FA
:1049E000314890F83000C00701D02EB30EE026B158
:1049F000A07F40071ED4002100E00121404606F0C0
:104A0000AEFC0500CFD1A075002ECCD0314640467B
:104A100000F07DFA05461128C5D1A07F4107C2D418
:104A2000316844F80E1F7168616040F00400207422
:104A30000025B8E71125B6E7102022E570B50C4631
:104A40000546FEF708FD010005D022462846BDE8D0
:104A50007040FEF703BD43F2020070BD10B501289F
:104A600007D1114B9B78012B00D011B143F2040008
:104A700010BD09F084FDBDE8104004F0F7BA012331
:104A800000F012BA00231A46194600F00DBA70B5AC
:104A900006460C4608460FF041FC18B920680FF096
:104AA00063FC18B1102070BDD8010020F74D2A7E9C
:104AB000112A04D0132A00D33EB10820F3E721467F
:104AC0003046FEF774FE60B1EDE70920132A0DD0E1
:104AD000142A0BD0A188FF29E5D31520FEF7BEFAD2
:104AE0000020D4E90012C5E90712DCE7A1881F29DC
:104AF000D9D31320F2E72DE9F047DFF8908307467A
:104B000090B098F818009A4615460C46132803D31F
:104B1000FFF738FB002822D120460FF0FFFBA0BB97
:104B200028460FF0FBFB80BB20784FF00101C00747
:104B30004FF0000602D08DF83A1001E08DF83A608F
:104B40002078C0F3C1008DF800006278072042B1E0
:104B5000012A06D0022A02D0042A00D1062010B071
:104B60002AE58DF809106088ADF80A00A088ADF834
:104B7000100020788946C0F3C10001281FD0032807
:104B80001DD038460FF0CAFB08B11020E7E738788F
:104B9000400808D0012809D0022807D0032805D0F2
:104BA00043F20220DBE78DF8026001E08DF802900D
:104BB00057F8010FCDF80300B888ADF807000DF1E4
:104BC0000100FEF7E8FB08B10320C8E72888ADF82C
:104BD00016006888ADF81C00A888ADF82200E888A7
:104BE000ADF82800ADF82E60ADF8346068460AF0E4
:104BF000BDF8E8B998F818004546112801D00820FA
:104C0000ADE706200BF084FE38B12078C0F3C10078
:104C1000012804D0032802D004E012209FE795F871
:104C2000240028B1FEF730FA022803D2132096E7B9
:104C3000072094E7504600F00CF900288FD185F842
:104C400019A068460AF051FA04F010FA002886D13B
:104C5000687E00F00EF9E08864280AD248B101208D
:104C600000F047F9040091D11220FEF7F7F9204631
:104C700075E76421B0FBF1F0F2E770B50646154622
:104C80000C4608460FF070FB18B928460FF06CFB75
:104C900008B1102007E72A46214630460AF0A9FE4F
:104CA00004F0E4F90028F5D121787F29F2D105201C
:104CB000F9E67CB505460C4608460FF02FFB08B117
:104CC00010207CBD2846FEF7C6FB20B100782228C4
:104CD00004D208207CBD43F202007CBD6B4890F8F2
:104CE0003000400701D511207CBD2178C80802D1D1
:104CF0006078C20801D007207CBD890801D18008F6
:104D000001D006207CBDADF8005020788DF802005F
:104D100060788DF803000220ADF80400684609F0C1
:104D200042FF04F0A3F97CBD70B586B014460D4671
:104D30000646FEF790FB28B10078222805D208200D
:104D400006B0B0E643F20200FAE728460FF033FB64
:104D500020B944B120460FF025FB08B11020EFE741
:104D600000202060A080494890F83000800701D5DD
:104D70001120E5E703A9304609F0BDFD18B100BFD9
:104D800004F074F9DCE7ADF80060BDF81400ADF88C
:104D90000200BDF81600ADF80400BDF81000BDF823
:104DA0001210ADF80600ADF808107DB1298809B1E0
:104DB000ADF80610698809B1ADF80210A98809B1EB
:104DC000ADF80810E98809B1ADF80410DCB1BDF800
:104DD0000610814201D9081A2080BDF80210BDF8E2
:104DE0001400814201D9081A6080BDF80800BDF89E
:104DF0000410BDF816200144BDF812001044814291
:104E000001D9081AA080684609F0AAFEB8E71CB5C7
:104E10001F490968CDE90010684609F0AAFF04F0AF
:104E200025F91CBD1CB5002000900190684609F0D2
:104E3000A0FF04F01BF91CBD108008885080488832
:104E40009080C88810818888D0800020508190810F
:104E5000704710B5044604F075F830B1407830B1B1
:104E6000204604F07EFB002010BD052010BD12205E
:104E700010BD10B504F066F8040000D1FFDF6078C3
:104E800000B9FFDF6078401E607010BDD8010020BF
:104E90009C46020010B504F055F8040000D1FFDF75
:104EA0006078401C6070F0E71CB5ADF800008DF82C
:104EB00002308DF803108DF8042068460AF05EFD7C
:104EC00004F0D4F81CBD0CB52DA2D2E90012CDE936
:104ED00000120079694601EB501000780CBD027891
:104EE000520804D0012A02D043F202207047FEF794
:104EF00029BA10B548B183000022114605200FF0F1
:104F000017F9052801D00320BFE70020BDE71FB532
:104F10006A46FFF791FF68460AF04CF904F0A6F8DC
:104F200004B0B2E770B50C0006460DD0FEF793FA58
:104F3000050000D1FFDFA6802889208128896081B3
:104F40006889A081A889E081ADE510B500231A46E3
:104F500003E0845C2343521CD2B28A42F9D30BB1E2
:104F6000002092E7012090E700B530B1012803D07E
:104F7000022801D0FFDF002000BDFF2000BD00009F
:104F8000070605040302010010B504460FF0C6F938
:104F900008B1102010BD2078C0F30210042807D8F3
:104FA0006078072804D3A178102901D8814201D262
:104FB000072010BDE078410706D421794A0703D4C1
:104FC000000701D4080701D5062010BD002010BD40
:104FD00010B513785C08837F64F3C7138377137865
:104FE0009C08C37F64F30003C3771078C309487833
:104FF00063F34100487013781C090B7864F347137E
:105000000B701378DB0863F3000048705078487128
:1050100010BD10B5C4780B7864F300030B70C4782E
:10502000640864F341030B70C478A40864F382033A
:105030000B70C478E40864F3C3030B700379117830
:1050400063F30001117003795B0863F34101117090
:1050500003799B0863F3820111700079C00860F343
:10506000C301117010BD70B514460D46064604F01C
:10507000D1F980B10178182221F00F01891C21F0AB
:10508000F001A03100F8081B21461FF0D6F8BDE85A
:10509000704004F0C2B929463046BDE87040132282
:1050A000FEF7DCB92DE9F047064608A8894690E8E6
:1050B00030041F469046142128461FF01AF900219B
:1050C000CAF80010B8F1000F03D0B9F1000F03D1F6
:1050D00014E03878C00711D020680FF045F9C0BB44
:1050E000B8F1000F07D12068123028602068143012
:1050F00068602068A8602168CAF8001038788007C6
:1051000024D560680FF04EF918BBB9F1000F21D01B
:10511000FFF770F90168C6F868118188A6F86C116C
:10512000807986F86E0101F002FDF94FEF60626848
:1051300062B196F8680106F2691140081032FEF774
:1051400059F91022394660681FF032F80020BDE896
:10515000F08706E0606820B1E8606068C6F8640126
:10516000F4E71020F3E730B5054608780C4620F048
:105170000F00401C20F0F001103121700020607001
:1051800095F8230030B104280FD0052811D0062847
:1051900014D0FFDF20780121B1EB101F04D295F865
:1051A000200000F01F00607030BD21F0F0002030C2
:1051B00002E021F0F00030302070EBE721F0F00049
:1051C0004030F9E7F0B591B0022715460C46064687
:1051D0003A46ADF80870092103AB04F07AFF049059
:1051E000002810D004208DF804008DF80170E03400
:1051F000099605948DF818500AA968460DF0CAF86A
:1052000000B1FFDF012011B0F0BD10B588B00C4631
:105210000A99ADF80000C3B11868CDF802005868CB
:10522000CDF80600ADF80A20102203A81EF0C0FF3A
:1052300068460AF062F803F019FF002803D1A17F45
:1052400041F01001A17708B010BD0020CDF8020098
:10525000E6E72DE9F84F0646808A0D4680B2824681
:10526000FEF7F9F804463078DFF8A48200274FF003
:105270000509A8F120080F2870D2DFE800F06FF2CE
:105280003708387D8CC8F1F0EFF35FF3F300A07FAF
:1052900000F00300022809D05FF0000080F0010157
:1052A00050460BF085FB050003D101E00120F5E736
:1052B000FFDF98F85C10C90702D0D8F860000BE057
:1052C000032105F11D000EF004FDD5F81D009149E4
:1052D000B0FBF1F201FB1200C5F81D0070686867B1
:1052E000B068A8672078252800D0FFDFCAE0A07F3B
:1052F00000F00300022809D05FF0000080F00101F7
:1053000050460BF055FB060003D101E00120F5E704
:10531000FFDF3078810702D52178252904D040F0BD
:1053200001003070BDE8F88F02202870307F2871AE
:1053300006F11D002D36C5E90206F3E7A07F00F057
:105340000300022808D0002080F0010150460BF035
:105350002FFB040004D102E00120F5E7A7E1FFDF05
:105360002078C10604D5072028703D346C60D9E749
:1053700040F008002070D5E7E07F000700D5FFDF90
:10538000307CB28800F0010301B05046BDE8F04F18
:10539000092105F027BD04B9FFDF716821B1102292
:1053A00004F124001EF004FF28212046FDF7B2FE80
:1053B000A07F00F0030002280ED104F12400002396
:1053C00000901A4621465046FFF71FFF112807D0CC
:1053D00029212046FDF79EFE307A84F82000A1E7BF
:1053E000A07F000700D5FFDF14F81E0F40F0080073
:1053F0002070E782A761E761C109607861F341002D
:10540000014660F382016170307AE0708AE7A07F24
:1054100000F00300022809D05FF0000080F00101D5
:1054200050460BF0C5FA040003D101E00120F5E776
:10543000FFDF022104F185000EF04BFC04202870F0
:1054400004F5B4706860B4F88500288230481038DC
:105450007C346C61C5E9028064E703E024E15BE031
:105460002DE015E0A07F00F00300022807D0002007
:1054700080F0010150460BF09BFA18B901E00120C1
:10548000F6E7FFDF324621465046BDE8F84FEAE531
:1054900004B9FFDF20782128A1D93079012803D170
:1054A000E07F40F00800E077324621465046FFF7A3
:1054B000DAFD2046BDE8F84F2321FDF72BBE3279F7
:1054C000AA8005F108030921504604F002FEE860B5
:1054D00010B185F8009025E7A07F00F003000228B6
:1054E00008D0002080F0010150460BF061FA040062
:1054F00003D101E00120F5E7FFDF04F1620102239F
:105500001022081F0BF0DBF807703179417009E7B2
:105510003802002040420F00A07F00F00300022864
:1055200008D0002080F0010150460BF041FA050040
:1055300003D101E00120F5E7FFDF95F8840000F0DA
:10554000030001287AD1A07F00F00307E07F10F06C
:10555000010602D0022F04D133E095F8A000C00765
:105560002BD0D5F8601121B395F88320087C62F325
:1055700087000874A17FCA09D5F8601162F3410061
:105580000874D5F8601166F300000874AEB1D5F860
:105590006001102204F1240188351EF009FE287EE6
:1055A00040F001002876287820F0010005F88809ED
:1055B00000E016B1022F04D02DE095F88800C00756
:1055C00027D0D5F85C1121B395F88320087C62F3CD
:1055D00087000874A17FCA09D5F85C1162F3410005
:1055E0000874D5F85C1166F3000008748EB1D5F824
:1055F0005C01102204F1240188351EF0D9FD2878C1
:1056000040F0010005F8180B287820F0010005F89B
:10561000A009022F44D0002000EB400005EBC000A1
:1056200090F88800800709D595F87C00D5F86421AA
:10563000400805F17D011032FDF7DCFE8DF8009089
:1056400095F884006A4600F003008DF8010095F893
:1056500088108DF8021095F8A0008DF803002146FF
:10566000504601F04DFA2078252805D0212807D092
:10567000FFDF2078222803D922212046FDF74AFDAA
:10568000A07F00F0030002280CD0002080F0010170
:1056900050460BF09FF900283FF44FAEFFDF41E684
:1056A0000120B9E70120F1E7706847703AE6FFDFB3
:1056B00038E670B5FE4C002584F85C5025660CF089
:1056C00036FE04F11001204603F060FE84F83050ED
:1056D00070BD70B50D46FDF7BEFE040000D1FFDFC2
:1056E0004FF4B87128461EF004FE04F1240028612E
:1056F000A07F00F00300022808D0012105F1E0009E
:105700000CF016FE002800D0FFDF70BD0221F5E787
:105710000A46014602F1E0000CF02ABE70B50546CB
:10572000406886B001780A2906D00D2933D00E29A9
:105730002FD0FFDF06B070BD86883046FDF78BFEA8
:10574000040000D1FFDF20782128F3D028281BD1C6
:10575000686802210E3001F0C8F9A8B16868082114
:10576000801D01F0C2F978B104F1240130460AF03D
:10577000A2F803F07BFC00B1FFDF06B02046BDE8D5
:1057800070402921FDF7C6BC06B0BDE8704003F0AB
:1057900044BE012101726868C6883046FDF75BFE91
:1057A000040000D1FFDFA07F00F00301022902D135
:1057B00020F01000A077207821280AD06868017AAC
:1057C00009B1007980B1A07F00F00300022862D007
:1057D000FFDFA07F00F003000228ABD1FEF798F8AE
:1057E0000028A7D0FFDFA5E703F017FEA17F08067A
:1057F0002BD5E07FC00705D094F8200000F01F00F3
:10580000102820D05FF0050084F823002078292894
:105810001DD02428DDD1314604200EF033FD222195
:105820002046FDF777FCA07F00F00300022830D06F
:105830005FF0000080F0010130460BF0CBF800284B
:10584000C7D0FFDFC5E70620DEE70420DCE701F074
:105850000300022808D0002080F0010130460BF040
:10586000A7F8050003D101E00120F5E7FFDF2521BE
:105870002046FDF74FFC03208DF80000694605F136
:10588000E0000CF06CFD0228A3D00028A1D0FFDFBF
:105890009FE70120CEE703F0C0FD9AE72DE9F04332
:1058A00087B09946164688460746FDF7D4FD0400A2
:1058B0004BD02078222848D3232846D0E07F000709
:1058C00043D4A07F00F00300022809D05FF000005D
:1058D00080F0010138460BF06BF8050002D00CE0B7
:1058E0000120F5E7A07F00F00300022805D0012188
:1058F000002238460BF053F805466946284601F069
:1059000026F9009800B9FFDF45B10098E035056140
:105910002078222806D0242804D007E0009900200F
:10592000086103E025212046FDF7F4FB00980121E2
:1059300041704762868001A9C0E902890CF02AFD06
:10594000022802D0002800D0FFDF07B0BDE8F083B6
:1059500070B586B00546FDF77EFD017822291ED977
:10596000807F00F00300022808D0002080F00101B1
:1059700028460BF01DF804002FD101E00120F5E7C7
:10598000FFDF2AE0B4F85E0004F1620630440178DB
:10599000427829B121462846FFF714FCB0B9C9E680
:1059A000ADF804200921284602AB04F092FB0390D5
:1059B0000028F4D005208DF80000694604F1E000CD
:1059C0000CF0CDFC022801D000B1FFDF0223102231
:1059D000314604F15E000AF0A8FEB4F86000002829
:1059E000D0D1A7E610B586B00446FDF734FD0178A6
:1059F00022291BD9807F00F00300022808D0002054
:105A000080F0010120460AF0D3FF040003D101E039
:105A10000120F5E7FFDF06208DF80000694604F15C
:105A2000E0000CF09CFC002800D0FFDF06B010BDA9
:105A30002DE9F05F05460C460027007890460109E5
:105A40003E4604F1080BBA4602297DD0072902D050
:105A50000A2909D146E0686801780A2905D00D298C
:105A600030D00E292ED0FFDFBCE114271C26002CDD
:105A70006BD08088A080FDF7EEFC5FEA000900D1C2
:105A8000FFDF99F817005A46400809F11801FDF7A1
:105A9000B1FC6868C0892082696851F8060FC4F8B3
:105AA00012004868C4F81600A07E20F0060001E04D
:105AB0001802002040F00100A07699F81E0040F086
:105AC00020014DE01A270A26002CD1D0C088A080E2
:105AD000FDF7C1FC050000D1FFDF59462846FFF75E
:105AE00042FB7FE10CB1A88BA080287A0B287DD0E7
:105AF00006DC01287BD0022808D0032804D135E039
:105B00000D2875D00E2874D0FFDF6BE11E27092603
:105B1000002CADD0A088FDF79EFC5FEA000900D103
:105B2000FFDF287B00F003000128207A1BD020F043
:105B300001002072297B890861F341002072297BD2
:105B4000C90861F3820001E041E1F2E02072297BA3
:105B5000090961F3C300207299F81E0040F040016A
:105B600089F81E103EE140F00100E2E713270D2600
:105B7000002CAAD0A088FDF76EFC8146807F00F043
:105B80000300022808D0002080F00101A0880AF05C
:105B90000FFF050003D101E00120F5E7FFDF99F8D1
:105BA0001E0000F00302022A50D0686F817801F0D5
:105BB00003010129217A4BD021F001012172837860
:105BC0009B0863F3410121728378DB0863F3820150
:105BD000217283781B0963F3C3012172037863F395
:105BE00006112172437863F3C71103E061E0A9E075
:105BF00090E0A1E0217284F809A0C178A172022A84
:105C000029D00279E17A62F30001E1720279520847
:105C100062F34101E1720279920862F38201E1725A
:105C20000279D20862F3C301E1724279217B62F307
:105C3000000121734279520862F3410121734279D4
:105C4000920862F382012173407928E0A86FADE7E2
:105C500041F00101B2E74279E17A62F30001E172B9
:105C60004279520862F34101E1724279920862F38B
:105C70008201E1724279D20862F3C301E1720279D2
:105C8000217B62F3000121730279520862F3410122
:105C900021730279920862F3820121730079C008AE
:105CA00060F3C301217399F80000232831D926211C
:105CB00040E018271026E4B3A088FDF7CCFB83460C
:105CC000807F00F00300022809D0002080F001014D
:105CD000A0880AF06DFE5FEA000903D101E001200F
:105CE000F4E7FFDFE868A06099F8000040F00401E5
:105CF00089F8001099F80100800708D50120207369
:105D00009BF8000023286DD92721584651E084F8DC
:105D10000CA067E015270F265CB1A088FDF79BFB60
:105D2000814606225946E86808F059F90120A07317
:105D3000A2E041E048463CE016270926E4B3287B70
:105D400020724FE0287B19270E26ACB3C4F808A0B8
:105D5000A4F80CA0012807D0022805D0032805D0FC
:105D6000042803D0FFDF0DE0207207E0697B0428E0
:105D700001F00F0141F0800121721ED0607A20F005
:105D800003006072A088FDF766FB054600782128B5
:105D900028D0232800D0FFDFA87F00F003000228CE
:105DA00013D0002080F00101A0880AF013FE222108
:105DB0002846FDF7AFF915E004E0607A20F0030013
:105DC000401CDEE7A8F8006011E00120EAE70CB112
:105DD0006888A080287A03282ED004280AD00528B5
:105DE00050D0FFDFA8F800600CB12780668000204B
:105DF000BDE8F09F15270F26002CE3D0A088FDF703
:105E00002AFB807F00F00300022809D05FF0000029
:105E100080F00101A0880AF0CBFD050003D101E06C
:105E20000120F5E7FFDFD5F81D000622594608F0EE
:105E3000D6F884F80EA0D5E717270926002CC1D084
:105E4000A088FDF708FB8146807F00F00300022850
:105E500008D0002080F00101A0880AF0A9FD05000B
:105E600003D101E00120F5E7FFDF6878800701D565
:105E7000022000E00120207299F800002328B1D907
:105E8000272157E719270E26002C9BD0A088FDF765
:105E9000E2FA5FEA000900D1FFDFC4F808A0A4F825
:105EA0000CA084F808A0A07A40F00300A07299F832
:105EB0001E10C90961F38200A07299F81F2099F899
:105EC0001E1012EAD11F05D099F8201001F01F0111
:105ED00010292BD020F00800A07299F81F10607ACA
:105EE00061F3C3006072697A01F003010129A2D154
:105EF00040F00400607299F81E0000F003000228D0
:105F0000E87A16D0217B60F300012173AA7A607BC6
:105F100062F300006073EA7A520862F34101217370
:105F2000A97A490861F3410060735BE740F008001B
:105F3000D2E7617B60F300016173AA7A207B62F390
:105F400000002073EA7A520862F341016173A97A72
:105F5000490861F34100207344E710B5FE4C30B1AD
:105F60000146102204F120001EF022F9012084F8DD
:105F7000300010BD10B5044600F0D9FDF6492046AA
:105F80001022BDE8104020311EF012B970B5F24D5C
:105F900006004FF0000413D00EF0C0F908B1102431
:105FA0000CE00621304608F001F8411C05D02866B7
:105FB0005FF0010085F85C0000E00724204670BD1A
:105FC0000020F7E7007810F00F0204D0012A05D076
:105FD000022A0CD110E0000909D10AE000090128C9
:105FE00007D0022805D0032803D0042801D00720B9
:105FF00070470870002070470620704705282AD295
:10600000DFE800F003070F171F00087820F0FF00FB
:106010001EE0087820F00F00401C20F0F000103047
:1060200016E0087820F00F00401C20F0F00020302F
:106030000EE0087820F00F00401C20F0F000303017
:1060400006E0087820F00F00401C20F0F0004030FF
:10605000087000207047072070472DE9F041804606
:1060600088B00D46002708460EF0A5F9A8B94046AD
:10607000FDF7F1F9040003D02078222815D104E0BF
:1060800043F2020008B0BDE8F08145B9A07F4106A7
:1060900003D500F00300022801D01020F2E7A07F12
:1060A000C10601D4010702D50DB10820EAE7E17F5E
:1060B000090701D50D20E5E700F00300022805D10E
:1060C00025B12846FEF760FF0700DBD1A07F00F076
:1060D0000300022808D0002080F0010140460AF0A9
:1060E00067FC060002D00FE00120F5E7A07F00F07A
:1060F000030002280ED0002080F00101002240465B
:106100000AF04DFC060007D0A07F00F00300022833
:1061100004D009E00120EFE70420B3E725B12A46C7
:1061200031462046FEF754FF6946304600F00FFD29
:10613000009800B9FFDF0099022006F1E0024870E4
:10614000C1F824804A6100220A81A27F02F0030282
:10615000022A1CD001200871287800F00102087E74
:1061600062F3010008762A78520862F3820008760A
